{
  "contractName": "IncentiveEvaluation",
  "abi": [
    {
      "constant": true,
      "inputs": [],
      "name": "threshold",
      "outputs": [
        {
          "name": "",
          "type": "uint256"
        }
      ],
      "payable": false,
      "stateMutability": "view",
      "type": "function"
    },
    {
      "constant": true,
      "inputs": [],
      "name": "owner",
      "outputs": [
        {
          "name": "",
          "type": "address"
        }
      ],
      "payable": false,
      "stateMutability": "view",
      "type": "function"
    },
    {
      "constant": true,
      "inputs": [],
      "name": "commitPhaseEndTime",
      "outputs": [
        {
          "name": "",
          "type": "uint256"
        }
      ],
      "payable": false,
      "stateMutability": "view",
      "type": "function"
    },
    {
      "constant": true,
      "inputs": [],
      "name": "reviewPhaseEndTime",
      "outputs": [
        {
          "name": "",
          "type": "uint256"
        }
      ],
      "payable": false,
      "stateMutability": "view",
      "type": "function"
    },
    {
      "constant": true,
      "inputs": [],
      "name": "revealPhaseEndTime",
      "outputs": [
        {
          "name": "",
          "type": "uint256"
        }
      ],
      "payable": false,
      "stateMutability": "view",
      "type": "function"
    },
    {
      "inputs": [
        {
          "name": "topic",
          "type": "string"
        },
        {
          "name": "desc",
          "type": "string"
        },
        {
          "name": "docs",
          "type": "string"
        },
        {
          "name": "_ReviewPhaseLengthInSeconds",
          "type": "uint256"
        },
        {
          "name": "_CommitPhaseLengthInSeconds",
          "type": "uint256"
        },
        {
          "name": "_RevealPhaseLengthInSeconds",
          "type": "uint256"
        },
        {
          "name": "_threshold",
          "type": "uint256"
        }
      ],
      "payable": false,
      "stateMutability": "nonpayable",
      "type": "constructor"
    },
    {
      "payable": true,
      "stateMutability": "payable",
      "type": "fallback"
    },
    {
      "anonymous": false,
      "inputs": [
        {
          "indexed": false,
          "name": "",
          "type": "string"
        }
      ],
      "name": "logString",
      "type": "event"
    },
    {
      "anonymous": false,
      "inputs": [
        {
          "indexed": false,
          "name": "",
          "type": "string"
        },
        {
          "indexed": false,
          "name": "",
          "type": "bytes32"
        }
      ],
      "name": "newVoteCommit",
      "type": "event"
    },
    {
      "anonymous": false,
      "inputs": [
        {
          "indexed": false,
          "name": "",
          "type": "string"
        },
        {
          "indexed": false,
          "name": "",
          "type": "string"
        }
      ],
      "name": "voteWinner",
      "type": "event"
    },
    {
      "anonymous": false,
      "inputs": [
        {
          "indexed": false,
          "name": "",
          "type": "address"
        },
        {
          "indexed": false,
          "name": "",
          "type": "uint256"
        }
      ],
      "name": "TheEnd",
      "type": "event"
    },
    {
      "constant": false,
      "inputs": [
        {
          "name": "_voteCommit",
          "type": "bytes32"
        }
      ],
      "name": "commitVote",
      "outputs": [],
      "payable": false,
      "stateMutability": "nonpayable",
      "type": "function"
    },
    {
      "constant": false,
      "inputs": [
        {
          "name": "upTechnical",
          "type": "uint256"
        },
        {
          "name": "downTechnical",
          "type": "uint256"
        },
        {
          "name": "upNonTechnical",
          "type": "uint256"
        },
        {
          "name": "downNonTechnical",
          "type": "uint256"
        },
        {
          "name": "choice",
          "type": "uint256"
        },
        {
          "name": "salt",
          "type": "string"
        }
      ],
      "name": "revealVote",
      "outputs": [],
      "payable": false,
      "stateMutability": "nonpayable",
      "type": "function"
    },
    {
      "constant": false,
      "inputs": [],
      "name": "conclusion",
      "outputs": [],
      "payable": true,
      "stateMutability": "payable",
      "type": "function"
    },
    {
      "constant": false,
      "inputs": [],
      "name": "endProposal",
      "outputs": [],
      "payable": true,
      "stateMutability": "payable",
      "type": "function"
    }
  ],
  "bytecode": "0x60806040523480156200001157600080fd5b506040516200137838038062001378833981018060405260e08110156200003757600080fd5b8101908080516401000000008111156200005057600080fd5b828101905060208101848111156200006757600080fd5b81518560018202830111640100000000821117156200008557600080fd5b50509291906020018051640100000000811115620000a257600080fd5b82810190506020810184811115620000b957600080fd5b8151856001820283011164010000000082111715620000d757600080fd5b50509291906020018051640100000000811115620000f457600080fd5b828101905060208101848111156200010b57600080fd5b81518560018202830111640100000000821117156200012957600080fd5b50509291906020018051906020019092919080519060200190929190805190602001909291908051906020019092919050505033600160006101000a81548173ffffffffffffffffffffffffffffffffffffffff021916908373ffffffffffffffffffffffffffffffffffffffff160217905550620001b3876200022660201b62000e1a1760201c565b600281905550620001cf866200022660201b62000e1a1760201c565b600381905550620001eb856200022660201b62000e1a1760201c565b6004819055508342016009819055508383420101600a8190555083838342010101600b8190555080600081905550505050505050506200033d565b60006002826040516020018082805190602001908083835b602083106200026357805182526020820191506020810190506020830392506200023e565b6001836020036101000a0380198251168184511680821785525050505050509050019150506040516020818303038152906040526040518082805190602001908083835b60208310620002cc5780518252602082019150602081019050602083039250620002a7565b6001836020036101000a038019825116818451168082178552505050505050905001915050602060405180830381855afa1580156200030f573d6000803e3d6000fd5b5050506040513d60208110156200032557600080fd5b81019080805190602001909291905050509050919050565b61102b806200034d6000396000f3fe6080604052600436106100865760003560e01c806398f6560b1161005957806398f6560b1461014f578063a619350414610159578063acf654f714610184578063e01d71a1146101af578063fe95abf5146102a957610086565b80632628c8cb146100885780633e8589231461009257806342cde4e8146100cd5780638da5cb5b146100f8575b005b6100906102d4565b005b34801561009e57600080fd5b506100cb600480360360208110156100b557600080fd5b81019080803590602001909291905050506104a7565b005b3480156100d957600080fd5b506100e2610647565b6040518082815260200191505060405180910390f35b34801561010457600080fd5b5061010d61064d565b604051808273ffffffffffffffffffffffffffffffffffffffff1673ffffffffffffffffffffffffffffffffffffffff16815260200191505060405180910390f35b610157610673565b005b34801561016557600080fd5b5061016e61095c565b6040518082815260200191505060405180910390f35b34801561019057600080fd5b50610199610962565b6040518082815260200191505060405180910390f35b3480156101bb57600080fd5b506102a7600480360360c08110156101d257600080fd5b8101908080359060200190929190803590602001909291908035906020019092919080359060200190929190803590602001909291908035906020019064010000000081111561022157600080fd5b82018360208201111561023357600080fd5b8035906020019184600183028401116401000000008311171561025557600080fd5b91908080601f016020809104026020016040519081016040528093929190818152602001838380828437600081840152601f19601f820116905080830192505050505050509192919290505050610968565b005b3480156102b557600080fd5b506102be610d3d565b6040518082815260200191505060405180910390f35b600b54421161034b576040517f08c379a000000000000000000000000000000000000000000000000000000000815260040180806020018281038252601f8152602001807f4c6574207468652072657665616c20506572696f6420656e642066697273740081525060200191505060405180910390fd5b6000610355610d43565b9050600061036282610d66565b90506060600f60008481526020019081526020016000208054806020026020016040519081016040528092919081815260200182805480156103f957602002820191906000526020600020905b8160009054906101000a900473ffffffffffffffffffffffffffffffffffffffff1673ffffffffffffffffffffffffffffffffffffffff16815260200190600101908083116103af575b5050505050905060008090505b8281101561047d5781818151811061041a57fe5b602002602001015173ffffffffffffffffffffffffffffffffffffffff166108fc67016345785d8a00009081150290604051600060405180830381858888f1935050505015801561046f573d6000803e3d6000fd5b508080600101915050610406565b506002601060006101000a81548160ff0219169083600281111561049d57fe5b0217905550505050565b600954421161051e576040517f08c379a000000000000000000000000000000000000000000000000000000000815260040180806020018281038252601e8152602001807f5761697420666f722072657669657720706572696f6420746f20656e6420000081525060200191505060405180910390fd5b600a544210610578576040517f08c379a000000000000000000000000000000000000000000000000000000000815260040180806020018281038252602b815260200180610f8a602b913960400191505060405180910390fd5b80600c60003373ffffffffffffffffffffffffffffffffffffffff1673ffffffffffffffffffffffffffffffffffffffff168152602001908152602001600020819055506000600d600083815260200190815260200160002060006101000a81548160ff021916908360028111156105ec57fe5b02179055507f651840caa1b0e1c52ec1324c2c0aca317ef17e709f0016630d8739f84c0f3f3681604051808060200183815260200182810382526027815260200180610fb5602791396040019250505060405180910390a150565b60005481565b600160009054906101000a900473ffffffffffffffffffffffffffffffffffffffff1681565b3373ffffffffffffffffffffffffffffffffffffffff16600160009054906101000a900473ffffffffffffffffffffffffffffffffffffffff1673ffffffffffffffffffffffffffffffffffffffff1614610736576040517f08c379a000000000000000000000000000000000000000000000000000000000815260040180806020018281038252601e8152602001807f4f6e7765722773207065726d697373696f6e206973207265717569726564000081525060200191505060405180910390fd5b600b5442116107ad576040517f08c379a000000000000000000000000000000000000000000000000000000000815260040180806020018281038252601f8152602001807f4c6574207468652072657665616c20506572696f6420656e642066697273740081525060200191505060405180910390fd5b6002808111156107b957fe5b601060009054906101000a900460ff1660028111156107d457fe5b14610847576040517f08c379a00000000000000000000000000000000000000000000000000000000081526004018080602001828103825260158152602001807f456e64206f6620746865204576616c756174696f6e000000000000000000000081525060200191505060405180910390fd5b60003073ffffffffffffffffffffffffffffffffffffffff16319050600160009054906101000a900473ffffffffffffffffffffffffffffffffffffffff1673ffffffffffffffffffffffffffffffffffffffff166108fc829081150290604051600060405180830381858888f193505050501580156108cb573d6000803e3d6000fd5b507f4db06b3f8ea08c30ed5017c65f565dc2f06f14388f48d83a5d4398b4f3c7fe9e600160009054906101000a900473ffffffffffffffffffffffffffffffffffffffff1682604051808373ffffffffffffffffffffffffffffffffffffffff1673ffffffffffffffffffffffffffffffffffffffff1681526020018281526020019250505060405180910390a150565b600a5481565b60095481565b600a5442116109c2576040517f08c379a0000000000000000000000000000000000000000000000000000000008152600401808060200182810382526038815260200180610f2c6038913960400191505060405180910390fd5b600b544210610a1c576040517f08c379a0000000000000000000000000000000000000000000000000000000008152600401808060200182810382526026815260200180610f646026913960400191505060405180910390fd5b6000600c60003373ffffffffffffffffffffffffffffffffffffffff1673ffffffffffffffffffffffffffffffffffffffff1681526020019081526020016000205490506000600d600083815260200190815260200160002060009054906101000a900460ff16905060006002811115610a9257fe5b816002811115610a9e57fe5b14610b11576040517f08c379a000000000000000000000000000000000000000000000000000000000815260040180806020018281038252601a8152602001807f20566f7465205761736e277420636f6d6d69747465642079657400000000000081525060200191505060405180910390fd5b8787878787876040516020018087815260200186815260200185815260200184815260200183815260200182805190602001908083835b60208310610b6b5780518252602082019150602081019050602083039250610b48565b6001836020036101000a038019825116818451168082178552505050505050905001965050505050505060405160208183030381529060405280519060200120821415610c03576040517f08c379a0000000000000000000000000000000000000000000000000000000008152600401808060200182810382526024815260200180610fdc6024913960400191505060405180910390fd5b600760008981526020019081526020016000206000815460010191905081905550600860008881526020019081526020016000206000815460010191905081905550600560008781526020019081526020016000206000815460010191905081905550600660008681526020019081526020016000206000815460010191905081905550600f60008581526020019081526020016000203390806001815401808255809150509060018203906000526020600020016000909192909190916101000a81548173ffffffffffffffffffffffffffffffffffffffff021916908373ffffffffffffffffffffffffffffffffffffffff160217905550506001600d600084815260200190815260200160002060006101000a81548160ff02191690836002811115610d2e57fe5b02179055505050505050505050565b600b5481565b6000610d61610d526001610d66565b610d5c6000610d66565b610d86565b905090565b6000600f6000838152602001908152602001600020805490509050919050565b600081831415610dfe576040517f08c379a000000000000000000000000000000000000000000000000000000000815260040180806020018281038252600d8152602001807f546869732069732061207469650000000000000000000000000000000000000081525060200191505060405180910390fd5b818311610e0c576000610e0f565b60015b60ff16905092915050565b60006002826040516020018082805190602001908083835b60208310610e555780518252602082019150602081019050602083039250610e32565b6001836020036101000a0380198251168184511680821785525050505050509050019150506040516020818303038152906040526040518082805190602001908083835b60208310610ebc5780518252602082019150602081019050602083039250610e99565b6001836020036101000a038019825116818451168082178552505050505050905001915050602060405180830381855afa158015610efe573d6000803e3d6000fd5b5050506040513d6020811015610f1357600080fd5b8101908080519060200190929190505050905091905056fe506c65617365204f6e6c792072657665616c20766f74657320616674657220636f6d6d697474696e6720706572696f64206973206f766572204f6e6c7920616c6c6f77656420447572696e67207468652072657665616c20706572696f644f6e6c7920616c6c6f7720636f6d6d69747320647572696e6720636f6d6d697474696e6720706572696f64566f746520636f6d6d697474656420776974682074686520666f6c6c6f77696e6720686173683a566f7465206861736820646f6573206e6f74206d6174636820766f746520636f6d6d6974a165627a7a72305820815c29aac49b3fbcd541cde8a1f2ac5f37786c7fb33f28900f79e2f7432926ba0029",
  "source": "///@author Sanchay Mittal\n\npragma solidity ^0.5.0;\n\n// import \"node_modules/openzeppelin-solidity/contracts/math/Math.sol\";\n// import \"node_modules/openzeppelin-solidity/contracts/math/SafeMath.sol\";\nimport \"./SupportLib.sol\";\n\n///@title IncentiveEvaluation\n///@notice Unique\ncontract IncentiveEvaluation{\n\n  uint256 public threshold;\n\n  uint constant amount = 1 * 10**17;    /**> Threshold amount in wei as a deposit entry fee */\n\n  ///@notice Admin's address\n  address payable public owner;     //owner of the contract\n\n// MetaData\n  bytes32 Topic;                        /**> Topic of Discussion*/\n  bytes32 Description;                  /**> Discription of technology*/\n  bytes32 Docs;                         /**> Docs and other additional materials uploaded*/\n\n// Vote distribution for the Comments.\n    mapping (uint256 => uint256) UpNonTechnical;\n    mapping (uint256 => uint256) DownNonTechnical;\n    mapping (uint256 => uint256) UpTechnical;\n    mapping (uint256 => uint256) DownTechnical;\n\n\n  // Information about the current status of the vote\n  uint256 public reviewPhaseEndTime;\n  uint256 public commitPhaseEndTime;\n  uint256 public revealPhaseEndTime;\n\n\n  enum Status{\n    Committed, Revealed, EndGame\n  }\n\n  // The actual votes and vote commits\n  mapping (address => bytes32) voteCommits;\n  mapping (bytes32 => Status) voteStatuses;\n  mapping (address => uint256) vote;\n  mapping (uint256 => address payable[]) Choice;\n  Status Period;\n\n\n    // Events used to log what's going on in the contract\n    event logString(string);\n    event newVoteCommit(string, bytes32);\n    event voteWinner(string, string);\n    event TheEnd(address, uint256);\n\n\n    modifier onlyOwner(){\n      require(owner == msg.sender,\"Onwer's permission is required\");\n      _;\n    }\n\n  ///@notice Fallback function\n  ///@dev Funds Collection here.\n  function() external payable{\n  }\n\n  // Constructor used to set parameters for the this specific vote\n\n  constructor (\n      string memory topic,\n      string memory desc,\n      string memory docs,\n      uint256 _ReviewPhaseLengthInSeconds,\n      uint256 _CommitPhaseLengthInSeconds,\n      uint256 _RevealPhaseLengthInSeconds,\n      uint256 _threshold) public {\n    owner = msg.sender;\n    Topic = SupportLib.encryption(topic);\n    Description = SupportLib.encryption(desc);\n    Docs = SupportLib.encryption(docs);\n    reviewPhaseEndTime = block.timestamp + _ReviewPhaseLengthInSeconds;\n    commitPhaseEndTime = block.timestamp + _CommitPhaseLengthInSeconds + _ReviewPhaseLengthInSeconds;\n    revealPhaseEndTime = block.timestamp + _RevealPhaseLengthInSeconds + _CommitPhaseLengthInSeconds + _ReviewPhaseLengthInSeconds;\n    threshold = _threshold;\n  }\n\n\n\n    function commitVote(bytes32 _voteCommit) public{\n      require(block.timestamp > reviewPhaseEndTime, \"Wait for review period to end \");\n      require(block.timestamp < commitPhaseEndTime, \"Only allow commits during committing period\");\n\n      // We are still in the committing period & the commit is new so add it\n\n      voteCommits[msg.sender] = _voteCommit;\n      voteStatuses[_voteCommit] = Status.Committed;\n\n      emit newVoteCommit(\"Vote committed with the following hash:\", _voteCommit);\n    }\n\n    function revealVote(\n      uint256 upTechnical,\n      uint256 downTechnical,\n      uint256 upNonTechnical,\n      uint256 downNonTechnical,\n      uint256 choice,\n      string memory salt)\n      public{\n        require(block.timestamp > commitPhaseEndTime, \"Please Only reveal votes after committing period is over\");\n        require(block.timestamp < revealPhaseEndTime, \" Only allowed During the reveal period\");\n\n        // FIRST: Verify the vote & commit is valid\n        bytes32 _voteCommit = voteCommits[msg.sender];\n        Status status = voteStatuses[_voteCommit];\n\n        require(status == Status.Committed, \" Vote Wasn't committed yet\");\n\n        require(_voteCommit !=\n        keccak256(abi.encodePacked(upTechnical, downTechnical, upNonTechnical, downNonTechnical, choice, salt)),'Vote hash does not match vote commit');\n\n\n        // NEXT: Count the vote!\n        ++UpTechnical[upTechnical];\n        ++DownTechnical[downTechnical];\n        ++UpNonTechnical[upNonTechnical];\n        ++DownNonTechnical[downNonTechnical];\n        Choice[choice].push(msg.sender);\n        voteStatuses[_voteCommit] = Status.Revealed;\n    }\n\n    function conclusion() public payable {\n      require(block.timestamp > revealPhaseEndTime, \"Let the reveal Period end first\");\n      uint winner = majority();\n      uint limit = getCount(winner);\n      address payable[] memory array = Choice[winner];\n      for (uint i = 0; i < limit; i++ ){\n        array[i].transfer(amount);\n      }\n      Period = Status.EndGame;\n    }\n\n    function endProposal() public payable onlyOwner{\n      require(block.timestamp > revealPhaseEndTime, \"Let the reveal Period end first\");\n      require(Period == Status.EndGame,\"End of the Evaluation\");\n      uint remainder = address(this).balance;\n      owner.transfer(remainder);\n      emit TheEnd(owner, remainder);\n    }\n\n\n    //\n    //helper function\n    //\n\n    function getCount(uint choice) private view returns(uint count) {\n    return Choice[choice].length;\n    }\n\n    // function award(address payable _winner) public payable{\n    //   _winner.transfer(amount);\n    // }\n\n    function majority() private view returns(uint256){\n        return SupportLib.boolMax(getCount(1), getCount(0));\n    }\n\n//   function stakeAmount private()\n//     public payable returns(uint256){\n//       return msg.value;\n//     }\n}\n",
  "sourcePath": "/home/sanchaymittal/Justice-League/contracts/IncentiveEvaluation.sol",
  "compiler": {
    "name": "solc",
    "version": "0.5.8+commit.23d335f2.Emscripten.clang"
  },
  "schemaVersion": "3.0.11",
  "updatedAt": "2019-07-26T16:33:31.704Z",
  "devdoc": {
    "methods": {},
    "title": "IncentiveEvaluation"
  },
  "userdoc": {
    "methods": {},
    "notice": "Unique"
  }
}