{
  "contractName": "IncentivizeProposalEvaluation",
  "abi": [
    {
      "constant": true,
      "inputs": [],
      "name": "reward",
      "outputs": [
        {
          "name": "",
          "type": "uint256"
        }
      ],
      "payable": false,
      "stateMutability": "view",
      "type": "function"
    },
    {
      "constant": true,
      "inputs": [],
      "name": "Topic",
      "outputs": [
        {
          "name": "",
          "type": "string"
        }
      ],
      "payable": false,
      "stateMutability": "view",
      "type": "function"
    },
    {
      "constant": true,
      "inputs": [],
      "name": "threshold",
      "outputs": [
        {
          "name": "",
          "type": "uint256"
        }
      ],
      "payable": false,
      "stateMutability": "view",
      "type": "function"
    },
    {
      "constant": true,
      "inputs": [],
      "name": "Description",
      "outputs": [
        {
          "name": "",
          "type": "string"
        }
      ],
      "payable": false,
      "stateMutability": "view",
      "type": "function"
    },
    {
      "constant": true,
      "inputs": [],
      "name": "owner",
      "outputs": [
        {
          "name": "",
          "type": "address"
        }
      ],
      "payable": false,
      "stateMutability": "view",
      "type": "function"
    },
    {
      "constant": true,
      "inputs": [],
      "name": "commitPhaseEndTime",
      "outputs": [
        {
          "name": "",
          "type": "uint256"
        }
      ],
      "payable": false,
      "stateMutability": "view",
      "type": "function"
    },
    {
      "constant": true,
      "inputs": [],
      "name": "reviewPhaseEndTime",
      "outputs": [
        {
          "name": "",
          "type": "uint256"
        }
      ],
      "payable": false,
      "stateMutability": "view",
      "type": "function"
    },
    {
      "constant": true,
      "inputs": [],
      "name": "rewardPhaseEndTime",
      "outputs": [
        {
          "name": "",
          "type": "uint256"
        }
      ],
      "payable": false,
      "stateMutability": "view",
      "type": "function"
    },
    {
      "constant": true,
      "inputs": [],
      "name": "period",
      "outputs": [
        {
          "name": "",
          "type": "uint8"
        }
      ],
      "payable": false,
      "stateMutability": "view",
      "type": "function"
    },
    {
      "constant": true,
      "inputs": [],
      "name": "revealPhaseEndTime",
      "outputs": [
        {
          "name": "",
          "type": "uint256"
        }
      ],
      "payable": false,
      "stateMutability": "view",
      "type": "function"
    },
    {
      "inputs": [
        {
          "name": "topic",
          "type": "string"
        },
        {
          "name": "desc",
          "type": "string"
        },
        {
          "name": "docs",
          "type": "string"
        },
        {
          "name": "_ReviewPhaseLengthInSeconds",
          "type": "uint256"
        },
        {
          "name": "_CommitPhaseLengthInSeconds",
          "type": "uint256"
        },
        {
          "name": "_RevealPhaseLengthInSeconds",
          "type": "uint256"
        },
        {
          "name": "_threshold",
          "type": "uint256"
        },
        {
          "name": "_reward",
          "type": "uint256"
        }
      ],
      "payable": false,
      "stateMutability": "nonpayable",
      "type": "constructor"
    },
    {
      "payable": true,
      "stateMutability": "payable",
      "type": "fallback"
    },
    {
      "anonymous": false,
      "inputs": [
        {
          "indexed": false,
          "name": "",
          "type": "string"
        }
      ],
      "name": "logString",
      "type": "event"
    },
    {
      "anonymous": false,
      "inputs": [
        {
          "indexed": false,
          "name": "",
          "type": "string"
        },
        {
          "indexed": false,
          "name": "",
          "type": "bytes32"
        }
      ],
      "name": "newVoteCommit",
      "type": "event"
    },
    {
      "anonymous": false,
      "inputs": [
        {
          "indexed": false,
          "name": "",
          "type": "string"
        },
        {
          "indexed": false,
          "name": "",
          "type": "string"
        }
      ],
      "name": "voteWinner",
      "type": "event"
    },
    {
      "anonymous": false,
      "inputs": [
        {
          "indexed": false,
          "name": "",
          "type": "address"
        },
        {
          "indexed": false,
          "name": "",
          "type": "uint256"
        }
      ],
      "name": "TheEnd",
      "type": "event"
    },
    {
      "anonymous": false,
      "inputs": [
        {
          "indexed": false,
          "name": "_winner",
          "type": "address"
        }
      ],
      "name": "WinnerIsHere",
      "type": "event"
    },
    {
      "constant": false,
      "inputs": [
        {
          "name": "_voteCommit",
          "type": "bytes32"
        }
      ],
      "name": "commitVote",
      "outputs": [],
      "payable": false,
      "stateMutability": "nonpayable",
      "type": "function"
    },
    {
      "constant": false,
      "inputs": [
        {
          "name": "upTechnical",
          "type": "uint256"
        },
        {
          "name": "downTechnical",
          "type": "uint256"
        },
        {
          "name": "upNonTechnical",
          "type": "uint256"
        },
        {
          "name": "downNonTechnical",
          "type": "uint256"
        },
        {
          "name": "choice",
          "type": "uint256"
        },
        {
          "name": "salt",
          "type": "string"
        }
      ],
      "name": "revealVote",
      "outputs": [],
      "payable": false,
      "stateMutability": "nonpayable",
      "type": "function"
    },
    {
      "constant": false,
      "inputs": [
        {
          "name": "_reviewEndTime",
          "type": "uint256"
        }
      ],
      "name": "conclusion",
      "outputs": [],
      "payable": false,
      "stateMutability": "nonpayable",
      "type": "function"
    },
    {
      "constant": false,
      "inputs": [],
      "name": "winnersReward",
      "outputs": [],
      "payable": true,
      "stateMutability": "payable",
      "type": "function"
    },
    {
      "constant": false,
      "inputs": [],
      "name": "endProposal",
      "outputs": [],
      "payable": true,
      "stateMutability": "payable",
      "type": "function"
    }
  ],
  "bytecode": "0x60806040526000601460006101000a81548160ff021916908360018111156200002457fe5b02179055503480156200003657600080fd5b50604051620019e4380380620019e483398101806040526101008110156200005d57600080fd5b8101908080516401000000008111156200007657600080fd5b828101905060208101848111156200008d57600080fd5b8151856001820283011164010000000082111715620000ab57600080fd5b50509291906020018051640100000000811115620000c857600080fd5b82810190506020810184811115620000df57600080fd5b8151856001820283011164010000000082111715620000fd57600080fd5b505092919060200180516401000000008111156200011a57600080fd5b828101905060208101848111156200013157600080fd5b81518560018202830111640100000000821117156200014f57600080fd5b50509291906020018051906020019092919080519060200190929190805190602001909291908051906020019092919080519060200190929190505050336000806101000a81548173ffffffffffffffffffffffffffffffffffffffff021916908373ffffffffffffffffffffffffffffffffffffffff1602179055508760049080519060200190620001e492919062000252565b508660059080519060200190620001fd92919062000252565b5085600690805190602001906200021692919062000252565b50844201600b8190555083600b5401600c8190555082600c5401600d819055508160018190555080600281905550505050505050505062000301565b828054600181600116156101000203166002900490600052602060002090601f016020900481019282601f106200029557805160ff1916838001178555620002c6565b82800160010185558215620002c6579182015b82811115620002c5578251825591602001919060010190620002a8565b5b509050620002d59190620002d9565b5090565b620002fe91905b80821115620002fa576000816000905550600101620002e0565b5090565b90565b6116d380620003116000396000f3fe6080604052600436106100e85760003560e01c80638da5cb5b1161008a578063dd1df89f11610059578063dd1df89f14610397578063e01d71a1146103c2578063ef78d4fd146104bc578063fe95abf5146104f5576100e8565b80638da5cb5b146102e057806398f6560b14610337578063a619350414610341578063acf654f71461036c576100e8565b80633e858923116100c65780633e858923146101e057806342cde4e81461021b5780635c1faf0a146102465780638191745f14610250576100e8565b80630ebfa35d146100ea578063228cb733146101255780633879ad4314610150575b005b3480156100f657600080fd5b506101236004803603602081101561010d57600080fd5b8101908080359060200190929190505050610520565b005b34801561013157600080fd5b5061013a610732565b6040518082815260200191505060405180910390f35b34801561015c57600080fd5b50610165610738565b6040518080602001828103825283818151815260200191508051906020019080838360005b838110156101a557808201518184015260208101905061018a565b50505050905090810190601f1680156101d25780820380516001836020036101000a031916815260200191505b509250505060405180910390f35b3480156101ec57600080fd5b506102196004803603602081101561020357600080fd5b81019080803590602001909291905050506107d6565b005b34801561022757600080fd5b50610230610976565b6040518082815260200191505060405180910390f35b61024e61097c565b005b34801561025c57600080fd5b50610265610d0f565b6040518080602001828103825283818151815260200191508051906020019080838360005b838110156102a557808201518184015260208101905061028a565b50505050905090810190601f1680156102d25780820380516001836020036101000a031916815260200191505b509250505060405180910390f35b3480156102ec57600080fd5b506102f5610dad565b604051808273ffffffffffffffffffffffffffffffffffffffff1673ffffffffffffffffffffffffffffffffffffffff16815260200191505060405180910390f35b61033f610dd2565b005b34801561034d57600080fd5b506103566110b8565b6040518082815260200191505060405180910390f35b34801561037857600080fd5b506103816110be565b6040518082815260200191505060405180910390f35b3480156103a357600080fd5b506103ac6110c4565b6040518082815260200191505060405180910390f35b3480156103ce57600080fd5b506104ba600480360360c08110156103e557600080fd5b8101908080359060200190929190803590602001909291908035906020019092919080359060200190929190803590602001909291908035906020019064010000000081111561043457600080fd5b82018360208201111561044657600080fd5b8035906020019184600183028401116401000000008311171561046857600080fd5b91908080601f016020809104026020016040519081016040528093929190818152602001838380828437600081840152601f19601f8201169050808301925050505050505091929192905050506110ca565b005b3480156104c857600080fd5b506104d16114e3565b604051808260018111156104e157fe5b60ff16815260200191505060405180910390f35b34801561050157600080fd5b5061050a6114f6565b6040518082815260200191505060405180910390f35b3373ffffffffffffffffffffffffffffffffffffffff166000809054906101000a900473ffffffffffffffffffffffffffffffffffffffff1673ffffffffffffffffffffffffffffffffffffffff16146105e2576040517f08c379a000000000000000000000000000000000000000000000000000000000815260040180806020018281038252601e8152602001807f4f6e7765722773207065726d697373696f6e206973207265717569726564000081525060200191505060405180910390fd5b600d544211610659576040517f08c379a000000000000000000000000000000000000000000000000000000000815260040180806020018281038252601f8152602001807f4c6574207468652072657665616c20506572696f6420656e642066697273740081525060200191505060405180910390fd5b6000600181111561066657fe5b601460009054906101000a900460ff16600181111561068157fe5b146106f4576040517f08c379a00000000000000000000000000000000000000000000000000000000081526004018080602001828103825260128152602001807f4576616c617574696f6e20697320646f6e65000000000000000000000000000081525060200191505060405180910390fd5b6106fc6114fc565b600381905550804201600e819055506001601460006101000a81548160ff0219169083600181111561072a57fe5b021790555050565b60025481565b60048054600181600116156101000203166002900480601f0160208091040260200160405190810160405280929190818152602001828054600181600116156101000203166002900480156107ce5780601f106107a3576101008083540402835291602001916107ce565b820191906000526020600020905b8154815290600101906020018083116107b157829003601f168201915b505050505081565b600b54421161084d576040517f08c379a000000000000000000000000000000000000000000000000000000000815260040180806020018281038252601e8152602001807f5761697420666f722072657669657720706572696f6420746f20656e6420000081525060200191505060405180910390fd5b600c5442106108a7576040517f08c379a000000000000000000000000000000000000000000000000000000000815260040180806020018281038252602b815260200180611632602b913960400191505060405180910390fd5b80600f60003373ffffffffffffffffffffffffffffffffffffffff1673ffffffffffffffffffffffffffffffffffffffff1681526020019081526020016000208190555060006010600083815260200190815260200160002060006101000a81548160ff0219169083600181111561091b57fe5b02179055507f651840caa1b0e1c52ec1324c2c0aca317ef17e709f0016630d8739f84c0f3f368160405180806020018381526020018281038252602781526020018061165d602791396040019250505060405180910390a150565b60015481565b60018081111561098857fe5b601460009054906101000a900460ff1660018111156109a357fe5b14610a16576040517f08c379a00000000000000000000000000000000000000000000000000000000081526004018080602001828103825260098152602001807f4974277320446f6e65000000000000000000000000000000000000000000000081525060200191505060405180910390fd5b600e544210610a8d576040517f08c379a00000000000000000000000000000000000000000000000000000000081526004018080602001828103825260108152602001807f596f752061726520746f6f206c6174650000000000000000000000000000000081525060200191505060405180910390fd5b600354601160003373ffffffffffffffffffffffffffffffffffffffff1673ffffffffffffffffffffffffffffffffffffffff1681526020019081526020016000205414610b43576040517f08c379a00000000000000000000000000000000000000000000000000000000081526004018080602001828103825260168152602001807f596f75206172656e2774207468652077696e6e6572200000000000000000000081525060200191505060405180910390fd5b60001515601360003373ffffffffffffffffffffffffffffffffffffffff1673ffffffffffffffffffffffffffffffffffffffff16815260200190815260200160002060009054906101000a900460ff16151514610c09576040517f08c379a000000000000000000000000000000000000000000000000000000000815260040180806020018281038252601b8152602001807f596f7520686176652072656465656d20796f757220726577617264000000000081525060200191505060405180910390fd5b6001601360003373ffffffffffffffffffffffffffffffffffffffff1673ffffffffffffffffffffffffffffffffffffffff16815260200190815260200160002060006101000a81548160ff0219169083151502179055503373ffffffffffffffffffffffffffffffffffffffff166108fc6002549081150290604051600060405180830381858888f19350505050158015610ca9573d6000803e3d6000fd5b507fc2f58463acbb5b94b885e368cd3ae56785e5c703d98f2f6ec083c70e508f9f4633604051808273ffffffffffffffffffffffffffffffffffffffff1673ffffffffffffffffffffffffffffffffffffffff16815260200191505060405180910390a1565b60058054600181600116156101000203166002900480601f016020809104026020016040519081016040528092919081815260200182805460018160011615610100020316600290048015610da55780601f10610d7a57610100808354040283529160200191610da5565b820191906000526020600020905b815481529060010190602001808311610d8857829003601f168201915b505050505081565b6000809054906101000a900473ffffffffffffffffffffffffffffffffffffffff1681565b3373ffffffffffffffffffffffffffffffffffffffff166000809054906101000a900473ffffffffffffffffffffffffffffffffffffffff1673ffffffffffffffffffffffffffffffffffffffff1614610e94576040517f08c379a000000000000000000000000000000000000000000000000000000000815260040180806020018281038252601e8152602001807f4f6e7765722773207065726d697373696f6e206973207265717569726564000081525060200191505060405180910390fd5b600e544211610f0b576040517f08c379a000000000000000000000000000000000000000000000000000000000815260040180806020018281038252601f8152602001807f4c6574207468652072657761726420506572696f6420656e642066697273740081525060200191505060405180910390fd5b600180811115610f1757fe5b601460009054906101000a900460ff166001811115610f3257fe5b14610fa5576040517f08c379a00000000000000000000000000000000000000000000000000000000081526004018080602001828103825260158152602001807f456e64206f6620746865204576616c756174696f6e000000000000000000000081525060200191505060405180910390fd5b60003073ffffffffffffffffffffffffffffffffffffffff163190506000809054906101000a900473ffffffffffffffffffffffffffffffffffffffff1673ffffffffffffffffffffffffffffffffffffffff166108fc829081150290604051600060405180830381858888f19350505050158015611028573d6000803e3d6000fd5b507f4db06b3f8ea08c30ed5017c65f565dc2f06f14388f48d83a5d4398b4f3c7fe9e6000809054906101000a900473ffffffffffffffffffffffffffffffffffffffff1682604051808373ffffffffffffffffffffffffffffffffffffffff1673ffffffffffffffffffffffffffffffffffffffff1681526020018281526020019250505060405180910390a150565b600c5481565b600b5481565b600e5481565b600c544211611124576040517f08c379a00000000000000000000000000000000000000000000000000000000081526004018080602001828103825260388152602001806115d46038913960400191505060405180910390fd5b600d54421061117e576040517f08c379a000000000000000000000000000000000000000000000000000000000815260040180806020018281038252602681526020018061160c6026913960400191505060405180910390fd5b6000600f60003373ffffffffffffffffffffffffffffffffffffffff1673ffffffffffffffffffffffffffffffffffffffff16815260200190815260200160002054905060006010600083815260200190815260200160002060009054906101000a900460ff169050600060018111156111f457fe5b81600181111561120057fe5b14611273576040517f08c379a000000000000000000000000000000000000000000000000000000000815260040180806020018281038252601a8152602001807f20566f7465205761736e277420636f6d6d69747465642079657400000000000081525060200191505060405180910390fd5b8787878787876040516020018087815260200186815260200185815260200184815260200183815260200182805190602001908083835b602083106112cd57805182526020820191506020810190506020830392506112aa565b6001836020036101000a038019825116818451168082178552505050505050905001965050505050505060405160208183030381529060405280519060200120821415611365576040517f08c379a00000000000000000000000000000000000000000000000000000000081526004018080602001828103825260248152602001806116846024913960400191505060405180910390fd5b600960008981526020019081526020016000206000815460010191905081905550600a60008881526020019081526020016000206000815460010191905081905550600760008781526020019081526020016000206000815460010191905081905550600860008681526020019081526020016000206000815460010191905081905550601260008581526020019081526020016000203390806001815401808255809150509060018203906000526020600020016000909192909190916101000a81548173ffffffffffffffffffffffffffffffffffffffff021916908373ffffffffffffffffffffffffffffffffffffffff1602179055505083601160003373ffffffffffffffffffffffffffffffffffffffff1673ffffffffffffffffffffffffffffffffffffffff1681526020019081526020016000208190555060016010600084815260200190815260200160002060006101000a81548160ff021916908360018111156114d457fe5b02179055505050505050505050565b601460009054906101000a900460ff1681565b600d5481565b600061151a61150b600161151f565b611515600261151f565b61153f565b905090565b600060126000838152602001908152602001600020805490509050919050565b6000818314156115b7576040517f08c379a000000000000000000000000000000000000000000000000000000000815260040180806020018281038252600d8152602001807f546869732069732061207469650000000000000000000000000000000000000081525060200191505060405180910390fd5b8183116115c55760006115c8565b60015b60ff1690509291505056fe506c65617365204f6e6c792072657665616c20766f74657320616674657220636f6d6d697474696e6720706572696f64206973206f766572204f6e6c7920616c6c6f77656420447572696e67207468652072657665616c20706572696f644f6e6c7920616c6c6f7720636f6d6d69747320647572696e6720636f6d6d697474696e6720706572696f64566f746520636f6d6d697474656420776974682074686520666f6c6c6f77696e6720686173683a566f7465206861736820646f6573206e6f74206d6174636820766f746520636f6d6d6974a165627a7a72305820c9258a1740a577015edb153820235c0ce97358505907b4df670e23bd0dde173b0029",
  "source": "///@title IncentiveProposalEvaluation\n///@author Sanchay Mittal\n///@notice Unique\npragma solidity ^0.5.0;\n\n// import \"node_modules/openzeppelin-solidity/contracts/math/Math.sol\";\n// import \"node_modules/openzeppelin-solidity/contracts/math/SafeMath.sol\";\nimport \"./SupportLib.sol\";\n\ncontract IncentivizeProposalEvaluation{\n  ///@notice Admin's address\n  ///@dev payable allows address to recieve funding.\n  address payable public owner;     \n\n  ///@notice Entry Security Deposit\n  uint256 public threshold;\n\n  uint256 public reward;    /**> Threshold amount in wei as a deposit entry fee */\n\n  uint256 winner;\n\n\n\n// MetaData\n  string public Topic;                        /**> Topic of Discussion*/\n  string public Description;                  /**> Discription of technology*/\n  string Docs;                         /**> Docs and other additional materials uploaded*/\n\n// Vote distribution for the Comments.\n    mapping (uint256 => uint256) UpNonTechnical;\n    mapping (uint256 => uint256) DownNonTechnical;\n    mapping (uint256 => uint256) UpTechnical;\n    mapping (uint256 => uint256) DownTechnical;\n\n\n  // Information about the current status of the vote\n  uint256 public reviewPhaseEndTime;\n  uint256 public commitPhaseEndTime;\n  uint256 public revealPhaseEndTime;\n  uint256 public rewardPhaseEndTime;\n\n  enum Status{\n    Committed, Revealed\n  }\n  enum Period{\n    Evaluation, EndGame\n  }\n\n  // The actual votes and vote commits\n  mapping (address => bytes32) voteCommits;\n  mapping (bytes32 => Status) voteStatuses;\n  mapping (address => uint256) vote;\n  mapping (uint256 => address[]) Choice;\n  mapping (address => bool) Redeem;\n  Period public period = Period.Evaluation;\n\n\n    // Events used to log what's going on in the contract\n    event logString(string);\n    event newVoteCommit(string, bytes32);\n    event voteWinner(string, string);\n    event TheEnd(address, uint256);\n    event WinnerIsHere(address _winner);\n\n\n    modifier onlyOwner(){\n      require(owner == msg.sender,\"Onwer's permission is required\");\n      _;\n    }\n\n  ///@notice Fallback function\n  ///@dev Funds Collection here.\n  function() external payable{\n  }\n\n  // Constructor used to set parameters for the this specific vote\n\n  constructor (\n      string memory topic,\n      string memory desc,\n      string memory docs,\n      uint256 _ReviewPhaseLengthInSeconds,\n      uint256 _CommitPhaseLengthInSeconds,\n      uint256 _RevealPhaseLengthInSeconds,\n      uint256 _threshold,\n      uint256 _reward) public {\n    owner = msg.sender;\n    Topic = topic;\n    Description = desc;\n    Docs = docs;\n    reviewPhaseEndTime = block.timestamp + _ReviewPhaseLengthInSeconds;\n    commitPhaseEndTime = reviewPhaseEndTime + _CommitPhaseLengthInSeconds;\n    revealPhaseEndTime = commitPhaseEndTime + _RevealPhaseLengthInSeconds;\n    threshold = _threshold;\n    reward = _reward;\n  }\n\n\n\n    function commitVote(bytes32 _voteCommit) public{\n      require(now > reviewPhaseEndTime, \"Wait for review period to end \");\n      require(now < commitPhaseEndTime, \"Only allow commits during committing period\");\n\n      // We are still in the committing period & the commit is new so add it\n\n      voteCommits[msg.sender] = _voteCommit;\n      voteStatuses[_voteCommit] = Status.Committed;\n\n      emit newVoteCommit(\"Vote committed with the following hash:\", _voteCommit);\n    }\n\n    function revealVote(\n      uint256 upTechnical,\n      uint256 downTechnical,\n      uint256 upNonTechnical,\n      uint256 downNonTechnical,\n      uint256 choice,\n      string memory salt)\n      public{\n        require(now > commitPhaseEndTime, \"Please Only reveal votes after committing period is over\");\n        require(now < revealPhaseEndTime, \" Only allowed During the reveal period\");\n\n        // FIRST: Verify the vote & commit is valid\n        bytes32 _voteCommit = voteCommits[msg.sender];\n        Status status = voteStatuses[_voteCommit];\n\n        require(status == Status.Committed, \" Vote Wasn't committed yet\");\n\n        require(_voteCommit !=\n        keccak256(abi.encodePacked(upTechnical, downTechnical, upNonTechnical, downNonTechnical, choice, salt)),'Vote hash does not match vote commit');\n\n\n        // NEXT: Count the vote!\n        ++UpTechnical[upTechnical];\n        ++DownTechnical[downTechnical];\n        ++UpNonTechnical[upNonTechnical];\n        ++DownNonTechnical[downNonTechnical];\n        Choice[choice].push(msg.sender);\n        vote[msg.sender] = choice;\n        voteStatuses[_voteCommit] = Status.Revealed;\n    }\n\n    function conclusion(uint256 _reviewEndTime) public onlyOwner{\n      require(now > revealPhaseEndTime, \"Let the reveal Period end first\");\n      require(period == Period.Evaluation, \"Evalaution is done\");\n      winner = majority();\n      rewardPhaseEndTime = block.timestamp + _reviewEndTime;\n      period = Period.EndGame;\n    }\n\n    function winnersReward() public payable{\n      require(period == Period.EndGame,\"It's Done\");\n      require(now < rewardPhaseEndTime,\"You are too late\");\n      require(vote[msg.sender] == winner, \"You aren't the winner \");\n      require(Redeem[msg.sender] == false, \"You have redeem your reward\");\n      Redeem[msg.sender] = true;\n      msg.sender.transfer(reward);\n      emit WinnerIsHere(msg.sender);\n    }\n\n    function endProposal() public payable onlyOwner{\n      require(now > rewardPhaseEndTime, \"Let the reward Period end first\");\n      require(period == Period.EndGame,\"End of the Evaluation\");\n      uint remainder = address(this).balance;\n      owner.transfer(remainder);\n      emit TheEnd(owner, remainder);\n    }\n\n\n    //\n    //helper function\n    //\n\n    function getCount(uint choice) private view returns(uint count) {\n    return Choice[choice].length;\n    }\n\n    // function award(address payable _winner) public payable{\n    //   _winner.transfer(amount);\n    // }\n\n    function majority() private view returns(uint256){\n        return SupportLib.boolMax(getCount(1), getCount(2));\n    }\n\n//   function stakeAmount private()\n//     public payable returns(uint256){\n//       return msg.value;\n//     }\n}\n",
  "sourcePath": "/home/sanchaymittal/Prescience/contracts/IncentivizeProposalEvaluation.sol",
  "compiler": {
    "name": "solc",
    "version": "0.5.8+commit.23d335f2.Emscripten.clang"
  },
  "schemaVersion": "3.0.11",
  "updatedAt": "2019-08-01T21:00:50.275Z",
  "devdoc": {
    "methods": {}
  },
  "userdoc": {
    "methods": {}
  }
}