{
  "contractName": "IncentivizeProposalEvaluation",
  "abi": [
    {
      "constant": true,
      "inputs": [],
      "name": "Topic",
      "outputs": [
        {
          "name": "",
          "type": "string"
        }
      ],
      "payable": false,
      "stateMutability": "view",
      "type": "function"
    },
    {
      "constant": true,
      "inputs": [],
      "name": "threshold",
      "outputs": [
        {
          "name": "",
          "type": "uint256"
        }
      ],
      "payable": false,
      "stateMutability": "view",
      "type": "function"
    },
    {
      "constant": true,
      "inputs": [],
      "name": "Description",
      "outputs": [
        {
          "name": "",
          "type": "string"
        }
      ],
      "payable": false,
      "stateMutability": "view",
      "type": "function"
    },
    {
      "constant": true,
      "inputs": [],
      "name": "owner",
      "outputs": [
        {
          "name": "",
          "type": "address"
        }
      ],
      "payable": false,
      "stateMutability": "view",
      "type": "function"
    },
    {
      "constant": true,
      "inputs": [],
      "name": "commitPhaseEndTime",
      "outputs": [
        {
          "name": "",
          "type": "uint256"
        }
      ],
      "payable": false,
      "stateMutability": "view",
      "type": "function"
    },
    {
      "constant": true,
      "inputs": [],
      "name": "amount",
      "outputs": [
        {
          "name": "",
          "type": "uint256"
        }
      ],
      "payable": false,
      "stateMutability": "view",
      "type": "function"
    },
    {
      "constant": true,
      "inputs": [],
      "name": "reviewPhaseEndTime",
      "outputs": [
        {
          "name": "",
          "type": "uint256"
        }
      ],
      "payable": false,
      "stateMutability": "view",
      "type": "function"
    },
    {
      "constant": true,
      "inputs": [],
      "name": "rewardPhaseEndTime",
      "outputs": [
        {
          "name": "",
          "type": "uint256"
        }
      ],
      "payable": false,
      "stateMutability": "view",
      "type": "function"
    },
    {
      "constant": true,
      "inputs": [],
      "name": "period",
      "outputs": [
        {
          "name": "",
          "type": "uint8"
        }
      ],
      "payable": false,
      "stateMutability": "view",
      "type": "function"
    },
    {
      "constant": true,
      "inputs": [],
      "name": "revealPhaseEndTime",
      "outputs": [
        {
          "name": "",
          "type": "uint256"
        }
      ],
      "payable": false,
      "stateMutability": "view",
      "type": "function"
    },
    {
      "inputs": [
        {
          "name": "topic",
          "type": "string"
        },
        {
          "name": "desc",
          "type": "string"
        },
        {
          "name": "docs",
          "type": "string"
        },
        {
          "name": "_ReviewPhaseLengthInSeconds",
          "type": "uint256"
        },
        {
          "name": "_CommitPhaseLengthInSeconds",
          "type": "uint256"
        },
        {
          "name": "_RevealPhaseLengthInSeconds",
          "type": "uint256"
        },
        {
          "name": "_threshold",
          "type": "uint256"
        }
      ],
      "payable": false,
      "stateMutability": "nonpayable",
      "type": "constructor"
    },
    {
      "payable": true,
      "stateMutability": "payable",
      "type": "fallback"
    },
    {
      "anonymous": false,
      "inputs": [
        {
          "indexed": false,
          "name": "",
          "type": "string"
        }
      ],
      "name": "logString",
      "type": "event"
    },
    {
      "anonymous": false,
      "inputs": [
        {
          "indexed": false,
          "name": "",
          "type": "string"
        },
        {
          "indexed": false,
          "name": "",
          "type": "bytes32"
        }
      ],
      "name": "newVoteCommit",
      "type": "event"
    },
    {
      "anonymous": false,
      "inputs": [
        {
          "indexed": false,
          "name": "",
          "type": "string"
        },
        {
          "indexed": false,
          "name": "",
          "type": "string"
        }
      ],
      "name": "voteWinner",
      "type": "event"
    },
    {
      "anonymous": false,
      "inputs": [
        {
          "indexed": false,
          "name": "",
          "type": "address"
        },
        {
          "indexed": false,
          "name": "",
          "type": "uint256"
        }
      ],
      "name": "TheEnd",
      "type": "event"
    },
    {
      "anonymous": false,
      "inputs": [
        {
          "indexed": false,
          "name": "_winner",
          "type": "address"
        }
      ],
      "name": "WinnerIsHere",
      "type": "event"
    },
    {
      "constant": false,
      "inputs": [
        {
          "name": "_voteCommit",
          "type": "bytes32"
        }
      ],
      "name": "commitVote",
      "outputs": [],
      "payable": false,
      "stateMutability": "nonpayable",
      "type": "function"
    },
    {
      "constant": false,
      "inputs": [
        {
          "name": "upTechnical",
          "type": "uint256"
        },
        {
          "name": "downTechnical",
          "type": "uint256"
        },
        {
          "name": "upNonTechnical",
          "type": "uint256"
        },
        {
          "name": "downNonTechnical",
          "type": "uint256"
        },
        {
          "name": "choice",
          "type": "uint256"
        },
        {
          "name": "salt",
          "type": "string"
        }
      ],
      "name": "revealVote",
      "outputs": [],
      "payable": false,
      "stateMutability": "nonpayable",
      "type": "function"
    },
    {
      "constant": false,
      "inputs": [
        {
          "name": "_reviewEndTime",
          "type": "uint256"
        }
      ],
      "name": "conclusion",
      "outputs": [],
      "payable": false,
      "stateMutability": "nonpayable",
      "type": "function"
    },
    {
      "constant": false,
      "inputs": [],
      "name": "reward",
      "outputs": [],
      "payable": true,
      "stateMutability": "payable",
      "type": "function"
    },
    {
      "constant": false,
      "inputs": [],
      "name": "endProposal",
      "outputs": [],
      "payable": true,
      "stateMutability": "payable",
      "type": "function"
    }
  ],
  "bytecode": "0x60806040526000601360006101000a81548160ff021916908360018111156200002457fe5b02179055503480156200003657600080fd5b50604051620019df380380620019df833981018060405260e08110156200005c57600080fd5b8101908080516401000000008111156200007557600080fd5b828101905060208101848111156200008c57600080fd5b8151856001820283011164010000000082111715620000aa57600080fd5b50509291906020018051640100000000811115620000c757600080fd5b82810190506020810184811115620000de57600080fd5b8151856001820283011164010000000082111715620000fc57600080fd5b505092919060200180516401000000008111156200011957600080fd5b828101905060208101848111156200013057600080fd5b81518560018202830111640100000000821117156200014e57600080fd5b505092919060200180519060200190929190805190602001909291908051906020019092919080519060200190929190505050336000806101000a81548173ffffffffffffffffffffffffffffffffffffffff021916908373ffffffffffffffffffffffffffffffffffffffff1602179055508660039080519060200190620001d992919062000241565b508560049080519060200190620001f292919062000241565b5084600590805190602001906200020b92919062000241565b50834201600a819055508383420101600b8190555083838342010101600c819055508060018190555050505050505050620002f0565b828054600181600116156101000203166002900490600052602060002090601f016020900481019282601f106200028457805160ff1916838001178555620002b5565b82800160010185558215620002b5579182015b82811115620002b457825182559160200191906001019062000297565b5b509050620002c49190620002c8565b5090565b620002ed91905b80821115620002e9576000816000905550600101620002cf565b5090565b90565b6116df80620003006000396000f3fe6080604052600436106100e85760003560e01c806398f6560b1161008a578063dd1df89f11610059578063dd1df89f14610397578063e01d71a1146103c2578063ef78d4fd146104bc578063fe95abf5146104f5576100e8565b806398f6560b1461030c578063a619350414610316578063aa8c217c14610341578063acf654f71461036c576100e8565b80633e858923116100c65780633e858923146101bf57806342cde4e8146101fa5780638191745f146102255780638da5cb5b146102b5576100e8565b80630ebfa35d146100ea578063228cb733146101255780633879ad431461012f575b005b3480156100f657600080fd5b506101236004803603602081101561010d57600080fd5b8101908080359060200190929190505050610520565b005b61012d610732565b005b34801561013b57600080fd5b50610144610acb565b6040518080602001828103825283818151815260200191508051906020019080838360005b83811015610184578082015181840152602081019050610169565b50505050905090810190601f1680156101b15780820380516001836020036101000a031916815260200191505b509250505060405180910390f35b3480156101cb57600080fd5b506101f8600480360360208110156101e257600080fd5b8101908080359060200190929190505050610b69565b005b34801561020657600080fd5b5061020f610d09565b6040518082815260200191505060405180910390f35b34801561023157600080fd5b5061023a610d0f565b6040518080602001828103825283818151815260200191508051906020019080838360005b8381101561027a57808201518184015260208101905061025f565b50505050905090810190601f1680156102a75780820380516001836020036101000a031916815260200191505b509250505060405180910390f35b3480156102c157600080fd5b506102ca610dad565b604051808273ffffffffffffffffffffffffffffffffffffffff1673ffffffffffffffffffffffffffffffffffffffff16815260200191505060405180910390f35b610314610dd2565b005b34801561032257600080fd5b5061032b6110b8565b6040518082815260200191505060405180910390f35b34801561034d57600080fd5b506103566110be565b6040518082815260200191505060405180910390f35b34801561037857600080fd5b506103816110ca565b6040518082815260200191505060405180910390f35b3480156103a357600080fd5b506103ac6110d0565b6040518082815260200191505060405180910390f35b3480156103ce57600080fd5b506104ba600480360360c08110156103e557600080fd5b8101908080359060200190929190803590602001909291908035906020019092919080359060200190929190803590602001909291908035906020019064010000000081111561043457600080fd5b82018360208201111561044657600080fd5b8035906020019184600183028401116401000000008311171561046857600080fd5b91908080601f016020809104026020016040519081016040528093929190818152602001838380828437600081840152601f19601f8201169050808301925050505050505091929192905050506110d6565b005b3480156104c857600080fd5b506104d16114ef565b604051808260018111156104e157fe5b60ff16815260200191505060405180910390f35b34801561050157600080fd5b5061050a611502565b6040518082815260200191505060405180910390f35b3373ffffffffffffffffffffffffffffffffffffffff166000809054906101000a900473ffffffffffffffffffffffffffffffffffffffff1673ffffffffffffffffffffffffffffffffffffffff16146105e2576040517f08c379a000000000000000000000000000000000000000000000000000000000815260040180806020018281038252601e8152602001807f4f6e7765722773207065726d697373696f6e206973207265717569726564000081525060200191505060405180910390fd5b600c544211610659576040517f08c379a000000000000000000000000000000000000000000000000000000000815260040180806020018281038252601f8152602001807f4c6574207468652072657665616c20506572696f6420656e642066697273740081525060200191505060405180910390fd5b6000600181111561066657fe5b601360009054906101000a900460ff16600181111561068157fe5b146106f4576040517f08c379a00000000000000000000000000000000000000000000000000000000081526004018080602001828103825260128152602001807f4576616c617574696f6e20697320646f6e65000000000000000000000000000081525060200191505060405180910390fd5b6106fc611508565b600281905550804201600d819055506001601360006101000a81548160ff0219169083600181111561072a57fe5b021790555050565b60018081111561073e57fe5b601360009054906101000a900460ff16600181111561075957fe5b146107cc576040517f08c379a00000000000000000000000000000000000000000000000000000000081526004018080602001828103825260098152602001807f4974277320446f6e65000000000000000000000000000000000000000000000081525060200191505060405180910390fd5b600d544210610843576040517f08c379a00000000000000000000000000000000000000000000000000000000081526004018080602001828103825260108152602001807f596f752061726520746f6f206c6174650000000000000000000000000000000081525060200191505060405180910390fd5b600254601060003373ffffffffffffffffffffffffffffffffffffffff1673ffffffffffffffffffffffffffffffffffffffff16815260200190815260200160002054146108f9576040517f08c379a00000000000000000000000000000000000000000000000000000000081526004018080602001828103825260168152602001807f596f75206172656e2774207468652077696e6e6572200000000000000000000081525060200191505060405180910390fd5b60001515601260003373ffffffffffffffffffffffffffffffffffffffff1673ffffffffffffffffffffffffffffffffffffffff16815260200190815260200160002060009054906101000a900460ff161515146109bf576040517f08c379a000000000000000000000000000000000000000000000000000000000815260040180806020018281038252601b8152602001807f596f7520686176652072656465656d20796f757220726577617264000000000081525060200191505060405180910390fd5b6001601260003373ffffffffffffffffffffffffffffffffffffffff1673ffffffffffffffffffffffffffffffffffffffff16815260200190815260200160002060006101000a81548160ff0219169083151502179055503373ffffffffffffffffffffffffffffffffffffffff166108fc67016345785d8a00009081150290604051600060405180830381858888f19350505050158015610a65573d6000803e3d6000fd5b507fc2f58463acbb5b94b885e368cd3ae56785e5c703d98f2f6ec083c70e508f9f4633604051808273ffffffffffffffffffffffffffffffffffffffff1673ffffffffffffffffffffffffffffffffffffffff16815260200191505060405180910390a1565b60038054600181600116156101000203166002900480601f016020809104026020016040519081016040528092919081815260200182805460018160011615610100020316600290048015610b615780601f10610b3657610100808354040283529160200191610b61565b820191906000526020600020905b815481529060010190602001808311610b4457829003601f168201915b505050505081565b600a544211610be0576040517f08c379a000000000000000000000000000000000000000000000000000000000815260040180806020018281038252601e8152602001807f5761697420666f722072657669657720706572696f6420746f20656e6420000081525060200191505060405180910390fd5b600b544210610c3a576040517f08c379a000000000000000000000000000000000000000000000000000000000815260040180806020018281038252602b81526020018061163e602b913960400191505060405180910390fd5b80600e60003373ffffffffffffffffffffffffffffffffffffffff1673ffffffffffffffffffffffffffffffffffffffff168152602001908152602001600020819055506000600f600083815260200190815260200160002060006101000a81548160ff02191690836001811115610cae57fe5b02179055507f651840caa1b0e1c52ec1324c2c0aca317ef17e709f0016630d8739f84c0f3f3681604051808060200183815260200182810382526027815260200180611669602791396040019250505060405180910390a150565b60015481565b60048054600181600116156101000203166002900480601f016020809104026020016040519081016040528092919081815260200182805460018160011615610100020316600290048015610da55780601f10610d7a57610100808354040283529160200191610da5565b820191906000526020600020905b815481529060010190602001808311610d8857829003601f168201915b505050505081565b6000809054906101000a900473ffffffffffffffffffffffffffffffffffffffff1681565b3373ffffffffffffffffffffffffffffffffffffffff166000809054906101000a900473ffffffffffffffffffffffffffffffffffffffff1673ffffffffffffffffffffffffffffffffffffffff1614610e94576040517f08c379a000000000000000000000000000000000000000000000000000000000815260040180806020018281038252601e8152602001807f4f6e7765722773207065726d697373696f6e206973207265717569726564000081525060200191505060405180910390fd5b600d544211610f0b576040517f08c379a000000000000000000000000000000000000000000000000000000000815260040180806020018281038252601f8152602001807f4c6574207468652072657761726420506572696f6420656e642066697273740081525060200191505060405180910390fd5b600180811115610f1757fe5b601360009054906101000a900460ff166001811115610f3257fe5b14610fa5576040517f08c379a00000000000000000000000000000000000000000000000000000000081526004018080602001828103825260158152602001807f456e64206f6620746865204576616c756174696f6e000000000000000000000081525060200191505060405180910390fd5b60003073ffffffffffffffffffffffffffffffffffffffff163190506000809054906101000a900473ffffffffffffffffffffffffffffffffffffffff1673ffffffffffffffffffffffffffffffffffffffff166108fc829081150290604051600060405180830381858888f19350505050158015611028573d6000803e3d6000fd5b507f4db06b3f8ea08c30ed5017c65f565dc2f06f14388f48d83a5d4398b4f3c7fe9e6000809054906101000a900473ffffffffffffffffffffffffffffffffffffffff1682604051808373ffffffffffffffffffffffffffffffffffffffff1673ffffffffffffffffffffffffffffffffffffffff1681526020018281526020019250505060405180910390a150565b600b5481565b67016345785d8a000081565b600a5481565b600d5481565b600b544211611130576040517f08c379a00000000000000000000000000000000000000000000000000000000081526004018080602001828103825260388152602001806115e06038913960400191505060405180910390fd5b600c54421061118a576040517f08c379a00000000000000000000000000000000000000000000000000000000081526004018080602001828103825260268152602001806116186026913960400191505060405180910390fd5b6000600e60003373ffffffffffffffffffffffffffffffffffffffff1673ffffffffffffffffffffffffffffffffffffffff1681526020019081526020016000205490506000600f600083815260200190815260200160002060009054906101000a900460ff1690506000600181111561120057fe5b81600181111561120c57fe5b1461127f576040517f08c379a000000000000000000000000000000000000000000000000000000000815260040180806020018281038252601a8152602001807f20566f7465205761736e277420636f6d6d69747465642079657400000000000081525060200191505060405180910390fd5b8787878787876040516020018087815260200186815260200185815260200184815260200183815260200182805190602001908083835b602083106112d957805182526020820191506020810190506020830392506112b6565b6001836020036101000a038019825116818451168082178552505050505050905001965050505050505060405160208183030381529060405280519060200120821415611371576040517f08c379a00000000000000000000000000000000000000000000000000000000081526004018080602001828103825260248152602001806116906024913960400191505060405180910390fd5b600860008981526020019081526020016000206000815460010191905081905550600960008881526020019081526020016000206000815460010191905081905550600660008781526020019081526020016000206000815460010191905081905550600760008681526020019081526020016000206000815460010191905081905550601160008581526020019081526020016000203390806001815401808255809150509060018203906000526020600020016000909192909190916101000a81548173ffffffffffffffffffffffffffffffffffffffff021916908373ffffffffffffffffffffffffffffffffffffffff1602179055505083601060003373ffffffffffffffffffffffffffffffffffffffff1673ffffffffffffffffffffffffffffffffffffffff168152602001908152602001600020819055506001600f600084815260200190815260200160002060006101000a81548160ff021916908360018111156114e057fe5b02179055505050505050505050565b601360009054906101000a900460ff1681565b600c5481565b6000611526611517600161152b565b611521600261152b565b61154b565b905090565b600060116000838152602001908152602001600020805490509050919050565b6000818314156115c3576040517f08c379a000000000000000000000000000000000000000000000000000000000815260040180806020018281038252600d8152602001807f546869732069732061207469650000000000000000000000000000000000000081525060200191505060405180910390fd5b8183116115d15760006115d4565b60015b60ff1690509291505056fe506c65617365204f6e6c792072657665616c20766f74657320616674657220636f6d6d697474696e6720706572696f64206973206f766572204f6e6c7920616c6c6f77656420447572696e67207468652072657665616c20706572696f644f6e6c7920616c6c6f7720636f6d6d69747320647572696e6720636f6d6d697474696e6720706572696f64566f746520636f6d6d697474656420776974682074686520666f6c6c6f77696e6720686173683a566f7465206861736820646f6573206e6f74206d6174636820766f746520636f6d6d6974a165627a7a72305820f49768cb92f85ac04d4029a824aefcfb57a7bf1b0677f1341e8d70957ba9a0740029",
  "source": "///@author Sanchay Mittal\n\npragma solidity ^0.5.0;\n\n// import \"node_modules/openzeppelin-solidity/contracts/math/Math.sol\";\n// import \"node_modules/openzeppelin-solidity/contracts/math/SafeMath.sol\";\nimport \"./SupportLib.sol\";\n\n///@title IncentiveEvaluation\n///@notice Unique\ncontract IncentivizeProposalEvaluation{\n  ///@notice Admin's address\n  address payable public owner;     //owner of the contract\n\n  uint256 public threshold;\n\n  uint constant public amount = 1 * 10**17;    /**> Threshold amount in wei as a deposit entry fee */\n\n  uint winner;\n\n\n\n// MetaData\n  string public Topic;                        /**> Topic of Discussion*/\n  string public Description;                  /**> Discription of technology*/\n  string Docs;                         /**> Docs and other additional materials uploaded*/\n\n// Vote distribution for the Comments.\n    mapping (uint256 => uint256) UpNonTechnical;\n    mapping (uint256 => uint256) DownNonTechnical;\n    mapping (uint256 => uint256) UpTechnical;\n    mapping (uint256 => uint256) DownTechnical;\n\n\n  // Information about the current status of the vote\n  uint256 public reviewPhaseEndTime;\n  uint256 public commitPhaseEndTime;\n  uint256 public revealPhaseEndTime;\n  uint256 public rewardPhaseEndTime;\n\n  enum Status{\n    Committed, Revealed\n  }\n  enum Period{\n    Evaluation, EndGame\n  }\n\n  // The actual votes and vote commits\n  mapping (address => bytes32) voteCommits;\n  mapping (bytes32 => Status) voteStatuses;\n  mapping (address => uint256) vote;\n  mapping (uint256 => address[]) Choice;\n  mapping (address => bool) Redeem;\n  Period public period = Period.Evaluation;\n\n\n    // Events used to log what's going on in the contract\n    event logString(string);\n    event newVoteCommit(string, bytes32);\n    event voteWinner(string, string);\n    event TheEnd(address, uint256);\n    event WinnerIsHere(address _winner);\n\n\n    modifier onlyOwner(){\n      require(owner == msg.sender,\"Onwer's permission is required\");\n      _;\n    }\n\n  ///@notice Fallback function\n  ///@dev Funds Collection here.\n  function() external payable{\n  }\n\n  // Constructor used to set parameters for the this specific vote\n\n  constructor (\n      string memory topic,\n      string memory desc,\n      string memory docs,\n      uint256 _ReviewPhaseLengthInSeconds,\n      uint256 _CommitPhaseLengthInSeconds,\n      uint256 _RevealPhaseLengthInSeconds,\n      uint256 _threshold) public {\n    owner = msg.sender;\n    Topic = topic;\n    Description = desc;\n    Docs = docs;\n    reviewPhaseEndTime = block.timestamp + _ReviewPhaseLengthInSeconds;\n    commitPhaseEndTime = block.timestamp + _CommitPhaseLengthInSeconds + _ReviewPhaseLengthInSeconds;\n    revealPhaseEndTime = block.timestamp + _RevealPhaseLengthInSeconds + _CommitPhaseLengthInSeconds + _ReviewPhaseLengthInSeconds;\n    threshold = _threshold;\n  }\n\n\n\n    function commitVote(bytes32 _voteCommit) public{\n      require(now > reviewPhaseEndTime, \"Wait for review period to end \");\n      require(now < commitPhaseEndTime, \"Only allow commits during committing period\");\n\n      // We are still in the committing period & the commit is new so add it\n\n      voteCommits[msg.sender] = _voteCommit;\n      voteStatuses[_voteCommit] = Status.Committed;\n\n      emit newVoteCommit(\"Vote committed with the following hash:\", _voteCommit);\n    }\n\n    function revealVote(\n      uint256 upTechnical,\n      uint256 downTechnical,\n      uint256 upNonTechnical,\n      uint256 downNonTechnical,\n      uint256 choice,\n      string memory salt)\n      public{\n        require(now > commitPhaseEndTime, \"Please Only reveal votes after committing period is over\");\n        require(now < revealPhaseEndTime, \" Only allowed During the reveal period\");\n\n        // FIRST: Verify the vote & commit is valid\n        bytes32 _voteCommit = voteCommits[msg.sender];\n        Status status = voteStatuses[_voteCommit];\n\n        require(status == Status.Committed, \" Vote Wasn't committed yet\");\n\n        require(_voteCommit !=\n        keccak256(abi.encodePacked(upTechnical, downTechnical, upNonTechnical, downNonTechnical, choice, salt)),'Vote hash does not match vote commit');\n\n\n        // NEXT: Count the vote!\n        ++UpTechnical[upTechnical];\n        ++DownTechnical[downTechnical];\n        ++UpNonTechnical[upNonTechnical];\n        ++DownNonTechnical[downNonTechnical];\n        Choice[choice].push(msg.sender);\n        vote[msg.sender] = choice;\n        voteStatuses[_voteCommit] = Status.Revealed;\n    }\n\n    function conclusion(uint256 _reviewEndTime) public onlyOwner{\n      require(now > revealPhaseEndTime, \"Let the reveal Period end first\");\n      require(period == Period.Evaluation, \"Evalaution is done\");\n      winner = majority();\n      rewardPhaseEndTime = block.timestamp + _reviewEndTime;\n      period = Period.EndGame;\n    }\n\n    function reward() public payable{\n      require(period == Period.EndGame,\"It's Done\");\n      require(now < rewardPhaseEndTime,\"You are too late\");\n      require(vote[msg.sender] == winner, \"You aren't the winner \");\n      require(Redeem[msg.sender] == false, \"You have redeem your reward\");\n      Redeem[msg.sender] = true;\n      msg.sender.transfer(amount);\n      emit WinnerIsHere(msg.sender);\n    }\n\n    function endProposal() public payable onlyOwner{\n      require(now > rewardPhaseEndTime, \"Let the reward Period end first\");\n      require(period == Period.EndGame,\"End of the Evaluation\");\n      uint remainder = address(this).balance;\n      owner.transfer(remainder);\n      emit TheEnd(owner, remainder);\n    }\n\n\n    //\n    //helper function\n    //\n\n    function getCount(uint choice) private view returns(uint count) {\n    return Choice[choice].length;\n    }\n\n    // function award(address payable _winner) public payable{\n    //   _winner.transfer(amount);\n    // }\n\n    function majority() private view returns(uint256){\n        return SupportLib.boolMax(getCount(1), getCount(2));\n    }\n\n//   function stakeAmount private()\n//     public payable returns(uint256){\n//       return msg.value;\n//     }\n}\n",
  "sourcePath": "/home/sanchaymittal/Prescience/contracts/IncentivizeProposalEvaluation.sol",
  "compiler": {
    "name": "solc",
    "version": "0.5.8+commit.23d335f2.Emscripten.clang"
  },
  "schemaVersion": "3.0.11",
  "updatedAt": "2019-07-31T12:40:07.427Z",
  "devdoc": {
    "methods": {},
    "title": "IncentiveEvaluation"
  },
  "userdoc": {
    "methods": {},
    "notice": "Unique"
  }
}