{
  "contractName": "IncentiveEvaluation",
  "abi": [
    {
      "constant": true,
      "inputs": [],
      "name": "threshold",
      "outputs": [
        {
          "name": "",
          "type": "uint256"
        }
      ],
      "payable": false,
      "stateMutability": "view",
      "type": "function"
    },
    {
      "constant": true,
      "inputs": [],
      "name": "owner",
      "outputs": [
        {
          "name": "",
          "type": "address"
        }
      ],
      "payable": false,
      "stateMutability": "view",
      "type": "function"
    },
    {
      "constant": true,
      "inputs": [],
      "name": "commitPhaseEndTime",
      "outputs": [
        {
          "name": "",
          "type": "uint256"
        }
      ],
      "payable": false,
      "stateMutability": "view",
      "type": "function"
    },
    {
      "constant": true,
      "inputs": [],
      "name": "amount",
      "outputs": [
        {
          "name": "",
          "type": "uint256"
        }
      ],
      "payable": false,
      "stateMutability": "view",
      "type": "function"
    },
    {
      "constant": true,
      "inputs": [],
      "name": "reviewPhaseEndTime",
      "outputs": [
        {
          "name": "",
          "type": "uint256"
        }
      ],
      "payable": false,
      "stateMutability": "view",
      "type": "function"
    },
    {
      "constant": true,
      "inputs": [],
      "name": "rewardPhaseEndTime",
      "outputs": [
        {
          "name": "",
          "type": "uint256"
        }
      ],
      "payable": false,
      "stateMutability": "view",
      "type": "function"
    },
    {
      "constant": true,
      "inputs": [],
      "name": "period",
      "outputs": [
        {
          "name": "",
          "type": "uint8"
        }
      ],
      "payable": false,
      "stateMutability": "view",
      "type": "function"
    },
    {
      "constant": true,
      "inputs": [],
      "name": "revealPhaseEndTime",
      "outputs": [
        {
          "name": "",
          "type": "uint256"
        }
      ],
      "payable": false,
      "stateMutability": "view",
      "type": "function"
    },
    {
      "inputs": [
        {
          "name": "topic",
          "type": "string"
        },
        {
          "name": "desc",
          "type": "string"
        },
        {
          "name": "docs",
          "type": "string"
        },
        {
          "name": "_ReviewPhaseLengthInSeconds",
          "type": "uint256"
        },
        {
          "name": "_CommitPhaseLengthInSeconds",
          "type": "uint256"
        },
        {
          "name": "_RevealPhaseLengthInSeconds",
          "type": "uint256"
        },
        {
          "name": "_threshold",
          "type": "uint256"
        }
      ],
      "payable": false,
      "stateMutability": "nonpayable",
      "type": "constructor"
    },
    {
      "payable": true,
      "stateMutability": "payable",
      "type": "fallback"
    },
    {
      "anonymous": false,
      "inputs": [
        {
          "indexed": false,
          "name": "",
          "type": "string"
        }
      ],
      "name": "logString",
      "type": "event"
    },
    {
      "anonymous": false,
      "inputs": [
        {
          "indexed": false,
          "name": "",
          "type": "string"
        },
        {
          "indexed": false,
          "name": "",
          "type": "bytes32"
        }
      ],
      "name": "newVoteCommit",
      "type": "event"
    },
    {
      "anonymous": false,
      "inputs": [
        {
          "indexed": false,
          "name": "",
          "type": "string"
        },
        {
          "indexed": false,
          "name": "",
          "type": "string"
        }
      ],
      "name": "voteWinner",
      "type": "event"
    },
    {
      "anonymous": false,
      "inputs": [
        {
          "indexed": false,
          "name": "",
          "type": "address"
        },
        {
          "indexed": false,
          "name": "",
          "type": "uint256"
        }
      ],
      "name": "TheEnd",
      "type": "event"
    },
    {
      "anonymous": false,
      "inputs": [
        {
          "indexed": false,
          "name": "_winner",
          "type": "address"
        }
      ],
      "name": "WinnerIsHere",
      "type": "event"
    },
    {
      "constant": false,
      "inputs": [
        {
          "name": "_voteCommit",
          "type": "bytes32"
        }
      ],
      "name": "commitVote",
      "outputs": [],
      "payable": false,
      "stateMutability": "nonpayable",
      "type": "function"
    },
    {
      "constant": false,
      "inputs": [
        {
          "name": "upTechnical",
          "type": "uint256"
        },
        {
          "name": "downTechnical",
          "type": "uint256"
        },
        {
          "name": "upNonTechnical",
          "type": "uint256"
        },
        {
          "name": "downNonTechnical",
          "type": "uint256"
        },
        {
          "name": "choice",
          "type": "uint256"
        },
        {
          "name": "salt",
          "type": "string"
        }
      ],
      "name": "revealVote",
      "outputs": [],
      "payable": false,
      "stateMutability": "nonpayable",
      "type": "function"
    },
    {
      "constant": false,
      "inputs": [
        {
          "name": "_reviewEndTime",
          "type": "uint256"
        }
      ],
      "name": "conclusion",
      "outputs": [],
      "payable": false,
      "stateMutability": "nonpayable",
      "type": "function"
    },
    {
      "constant": false,
      "inputs": [],
      "name": "reward",
      "outputs": [],
      "payable": true,
      "stateMutability": "payable",
      "type": "function"
    },
    {
      "constant": false,
      "inputs": [],
      "name": "endProposal",
      "outputs": [],
      "payable": true,
      "stateMutability": "payable",
      "type": "function"
    }
  ],
  "bytecode": "0x60806040526000601360006101000a81548160ff021916908360018111156200002457fe5b02179055503480156200003657600080fd5b506040516200175d3803806200175d833981018060405260e08110156200005c57600080fd5b8101908080516401000000008111156200007557600080fd5b828101905060208101848111156200008c57600080fd5b8151856001820283011164010000000082111715620000aa57600080fd5b50509291906020018051640100000000811115620000c757600080fd5b82810190506020810184811115620000de57600080fd5b8151856001820283011164010000000082111715620000fc57600080fd5b505092919060200180516401000000008111156200011957600080fd5b828101905060208101848111156200013057600080fd5b81518560018202830111640100000000821117156200014e57600080fd5b505092919060200180519060200190929190805190602001909291908051906020019092919080519060200190929190505050336000806101000a81548173ffffffffffffffffffffffffffffffffffffffff021916908373ffffffffffffffffffffffffffffffffffffffff1602179055508660039080519060200190620001d992919062000241565b508560049080519060200190620001f292919062000241565b5084600590805190602001906200020b92919062000241565b50834201600a819055508383420101600b8190555083838342010101600c819055508060018190555050505050505050620002f0565b828054600181600116156101000203166002900490600052602060002090601f016020900481019282601f106200028457805160ff1916838001178555620002b5565b82800160010185558215620002b5579182015b82811115620002b457825182559160200191906001019062000297565b5b509050620002c49190620002c8565b5090565b620002ed91905b80821115620002e9576000816000905550600101620002cf565b5090565b90565b61145d80620003006000396000f3fe6080604052600436106100c25760003560e01c8063a61935041161007f578063dd1df89f11610059578063dd1df89f14610251578063e01d71a11461027c578063ef78d4fd14610376578063fe95abf5146103af576100c2565b8063a6193504146101d0578063aa8c217c146101fb578063acf654f714610226576100c2565b80630ebfa35d146100c4578063228cb733146100ff5780633e8589231461010957806342cde4e8146101445780638da5cb5b1461016f57806398f6560b146101c6575b005b3480156100d057600080fd5b506100fd600480360360208110156100e757600080fd5b81019080803590602001909291905050506103da565b005b6101076105ec565b005b34801561011557600080fd5b506101426004803603602081101561012c57600080fd5b8101908080359060200190929190505050610985565b005b34801561015057600080fd5b50610159610b25565b6040518082815260200191505060405180910390f35b34801561017b57600080fd5b50610184610b2b565b604051808273ffffffffffffffffffffffffffffffffffffffff1673ffffffffffffffffffffffffffffffffffffffff16815260200191505060405180910390f35b6101ce610b50565b005b3480156101dc57600080fd5b506101e5610e36565b6040518082815260200191505060405180910390f35b34801561020757600080fd5b50610210610e3c565b6040518082815260200191505060405180910390f35b34801561023257600080fd5b5061023b610e48565b6040518082815260200191505060405180910390f35b34801561025d57600080fd5b50610266610e4e565b6040518082815260200191505060405180910390f35b34801561028857600080fd5b50610374600480360360c081101561029f57600080fd5b810190808035906020019092919080359060200190929190803590602001909291908035906020019092919080359060200190929190803590602001906401000000008111156102ee57600080fd5b82018360208201111561030057600080fd5b8035906020019184600183028401116401000000008311171561032257600080fd5b91908080601f016020809104026020016040519081016040528093929190818152602001838380828437600081840152601f19601f820116905080830192505050505050509192919290505050610e54565b005b34801561038257600080fd5b5061038b61126d565b6040518082600181111561039b57fe5b60ff16815260200191505060405180910390f35b3480156103bb57600080fd5b506103c4611280565b6040518082815260200191505060405180910390f35b3373ffffffffffffffffffffffffffffffffffffffff166000809054906101000a900473ffffffffffffffffffffffffffffffffffffffff1673ffffffffffffffffffffffffffffffffffffffff161461049c576040517f08c379a000000000000000000000000000000000000000000000000000000000815260040180806020018281038252601e8152602001807f4f6e7765722773207065726d697373696f6e206973207265717569726564000081525060200191505060405180910390fd5b600c544211610513576040517f08c379a000000000000000000000000000000000000000000000000000000000815260040180806020018281038252601f8152602001807f4c6574207468652072657665616c20506572696f6420656e642066697273740081525060200191505060405180910390fd5b6000600181111561052057fe5b601360009054906101000a900460ff16600181111561053b57fe5b146105ae576040517f08c379a00000000000000000000000000000000000000000000000000000000081526004018080602001828103825260128152602001807f4576616c617574696f6e20697320646f6e65000000000000000000000000000081525060200191505060405180910390fd5b6105b6611286565b600281905550804201600d819055506001601360006101000a81548160ff021916908360018111156105e457fe5b021790555050565b6001808111156105f857fe5b601360009054906101000a900460ff16600181111561061357fe5b14610686576040517f08c379a00000000000000000000000000000000000000000000000000000000081526004018080602001828103825260098152602001807f4974277320446f6e65000000000000000000000000000000000000000000000081525060200191505060405180910390fd5b600d5442106106fd576040517f08c379a00000000000000000000000000000000000000000000000000000000081526004018080602001828103825260108152602001807f596f752061726520746f6f206c6174650000000000000000000000000000000081525060200191505060405180910390fd5b600254601060003373ffffffffffffffffffffffffffffffffffffffff1673ffffffffffffffffffffffffffffffffffffffff16815260200190815260200160002054146107b3576040517f08c379a00000000000000000000000000000000000000000000000000000000081526004018080602001828103825260168152602001807f596f75206172656e2774207468652077696e6e6572200000000000000000000081525060200191505060405180910390fd5b60001515601260003373ffffffffffffffffffffffffffffffffffffffff1673ffffffffffffffffffffffffffffffffffffffff16815260200190815260200160002060009054906101000a900460ff16151514610879576040517f08c379a000000000000000000000000000000000000000000000000000000000815260040180806020018281038252601b8152602001807f596f7520686176652072656465656d20796f757220726577617264000000000081525060200191505060405180910390fd5b6001601260003373ffffffffffffffffffffffffffffffffffffffff1673ffffffffffffffffffffffffffffffffffffffff16815260200190815260200160002060006101000a81548160ff0219169083151502179055503373ffffffffffffffffffffffffffffffffffffffff166108fc67016345785d8a00009081150290604051600060405180830381858888f1935050505015801561091f573d6000803e3d6000fd5b507fc2f58463acbb5b94b885e368cd3ae56785e5c703d98f2f6ec083c70e508f9f4633604051808273ffffffffffffffffffffffffffffffffffffffff1673ffffffffffffffffffffffffffffffffffffffff16815260200191505060405180910390a1565b600a5442116109fc576040517f08c379a000000000000000000000000000000000000000000000000000000000815260040180806020018281038252601e8152602001807f5761697420666f722072657669657720706572696f6420746f20656e6420000081525060200191505060405180910390fd5b600b544210610a56576040517f08c379a000000000000000000000000000000000000000000000000000000000815260040180806020018281038252602b8152602001806113bc602b913960400191505060405180910390fd5b80600e60003373ffffffffffffffffffffffffffffffffffffffff1673ffffffffffffffffffffffffffffffffffffffff168152602001908152602001600020819055506000600f600083815260200190815260200160002060006101000a81548160ff02191690836001811115610aca57fe5b02179055507f651840caa1b0e1c52ec1324c2c0aca317ef17e709f0016630d8739f84c0f3f36816040518080602001838152602001828103825260278152602001806113e7602791396040019250505060405180910390a150565b60015481565b6000809054906101000a900473ffffffffffffffffffffffffffffffffffffffff1681565b3373ffffffffffffffffffffffffffffffffffffffff166000809054906101000a900473ffffffffffffffffffffffffffffffffffffffff1673ffffffffffffffffffffffffffffffffffffffff1614610c12576040517f08c379a000000000000000000000000000000000000000000000000000000000815260040180806020018281038252601e8152602001807f4f6e7765722773207065726d697373696f6e206973207265717569726564000081525060200191505060405180910390fd5b600d544211610c89576040517f08c379a000000000000000000000000000000000000000000000000000000000815260040180806020018281038252601f8152602001807f4c6574207468652072657761726420506572696f6420656e642066697273740081525060200191505060405180910390fd5b600180811115610c9557fe5b601360009054906101000a900460ff166001811115610cb057fe5b14610d23576040517f08c379a00000000000000000000000000000000000000000000000000000000081526004018080602001828103825260158152602001807f456e64206f6620746865204576616c756174696f6e000000000000000000000081525060200191505060405180910390fd5b60003073ffffffffffffffffffffffffffffffffffffffff163190506000809054906101000a900473ffffffffffffffffffffffffffffffffffffffff1673ffffffffffffffffffffffffffffffffffffffff166108fc829081150290604051600060405180830381858888f19350505050158015610da6573d6000803e3d6000fd5b507f4db06b3f8ea08c30ed5017c65f565dc2f06f14388f48d83a5d4398b4f3c7fe9e6000809054906101000a900473ffffffffffffffffffffffffffffffffffffffff1682604051808373ffffffffffffffffffffffffffffffffffffffff1673ffffffffffffffffffffffffffffffffffffffff1681526020018281526020019250505060405180910390a150565b600b5481565b67016345785d8a000081565b600a5481565b600d5481565b600b544211610eae576040517f08c379a000000000000000000000000000000000000000000000000000000000815260040180806020018281038252603881526020018061135e6038913960400191505060405180910390fd5b600c544210610f08576040517f08c379a00000000000000000000000000000000000000000000000000000000081526004018080602001828103825260268152602001806113966026913960400191505060405180910390fd5b6000600e60003373ffffffffffffffffffffffffffffffffffffffff1673ffffffffffffffffffffffffffffffffffffffff1681526020019081526020016000205490506000600f600083815260200190815260200160002060009054906101000a900460ff16905060006001811115610f7e57fe5b816001811115610f8a57fe5b14610ffd576040517f08c379a000000000000000000000000000000000000000000000000000000000815260040180806020018281038252601a8152602001807f20566f7465205761736e277420636f6d6d69747465642079657400000000000081525060200191505060405180910390fd5b8787878787876040516020018087815260200186815260200185815260200184815260200183815260200182805190602001908083835b602083106110575780518252602082019150602081019050602083039250611034565b6001836020036101000a0380198251168184511680821785525050505050509050019650505050505050604051602081830303815290604052805190602001208214156110ef576040517f08c379a000000000000000000000000000000000000000000000000000000000815260040180806020018281038252602481526020018061140e6024913960400191505060405180910390fd5b600860008981526020019081526020016000206000815460010191905081905550600960008881526020019081526020016000206000815460010191905081905550600660008781526020019081526020016000206000815460010191905081905550600760008681526020019081526020016000206000815460010191905081905550601160008581526020019081526020016000203390806001815401808255809150509060018203906000526020600020016000909192909190916101000a81548173ffffffffffffffffffffffffffffffffffffffff021916908373ffffffffffffffffffffffffffffffffffffffff1602179055505083601060003373ffffffffffffffffffffffffffffffffffffffff1673ffffffffffffffffffffffffffffffffffffffff168152602001908152602001600020819055506001600f600084815260200190815260200160002060006101000a81548160ff0219169083600181111561125e57fe5b02179055505050505050505050565b601360009054906101000a900460ff1681565b600c5481565b60006112a461129560016112a9565b61129f60026112a9565b6112c9565b905090565b600060116000838152602001908152602001600020805490509050919050565b600081831415611341576040517f08c379a000000000000000000000000000000000000000000000000000000000815260040180806020018281038252600d8152602001807f546869732069732061207469650000000000000000000000000000000000000081525060200191505060405180910390fd5b81831161134f576000611352565b60015b60ff1690509291505056fe506c65617365204f6e6c792072657665616c20766f74657320616674657220636f6d6d697474696e6720706572696f64206973206f766572204f6e6c7920616c6c6f77656420447572696e67207468652072657665616c20706572696f644f6e6c7920616c6c6f7720636f6d6d69747320647572696e6720636f6d6d697474696e6720706572696f64566f746520636f6d6d697474656420776974682074686520666f6c6c6f77696e6720686173683a566f7465206861736820646f6573206e6f74206d6174636820766f746520636f6d6d6974a165627a7a723058207b880559e631ff3deb3d9404a1b42f79b1169227d2dc6f1d6fa9e6c140862bc40029",
  "source": "///@author Sanchay Mittal\n\npragma solidity ^0.5.0;\n\n// import \"node_modules/openzeppelin-solidity/contracts/math/Math.sol\";\n// import \"node_modules/openzeppelin-solidity/contracts/math/SafeMath.sol\";\nimport \"./SupportLib.sol\";\n\n///@title IncentiveEvaluation\n///@notice Unique\ncontract IncentiveEvaluation{\n  ///@notice Admin's address\n  address payable public owner;     //owner of the contract\n\n  uint256 public threshold;\n\n  uint constant public amount = 1 * 10**17;    /**> Threshold amount in wei as a deposit entry fee */\n\n  uint winner;\n\n\n\n// MetaData\n  string Topic;                        /**> Topic of Discussion*/\n  string Description;                  /**> Discription of technology*/\n  string Docs;                         /**> Docs and other additional materials uploaded*/\n\n// Vote distribution for the Comments.\n    mapping (uint256 => uint256) UpNonTechnical;\n    mapping (uint256 => uint256) DownNonTechnical;\n    mapping (uint256 => uint256) UpTechnical;\n    mapping (uint256 => uint256) DownTechnical;\n\n\n  // Information about the current status of the vote\n  uint256 public reviewPhaseEndTime;\n  uint256 public commitPhaseEndTime;\n  uint256 public revealPhaseEndTime;\n  uint256 public rewardPhaseEndTime;\n\n  enum Status{\n    Committed, Revealed\n  }\n  enum Period{\n    Evaluation, EndGame\n  }\n\n  // The actual votes and vote commits\n  mapping (address => bytes32) voteCommits;\n  mapping (bytes32 => Status) voteStatuses;\n  mapping (address => uint256) vote;\n  mapping (uint256 => address[]) Choice;\n  mapping (address => bool) Redeem;\n  Period public period = Period.Evaluation;\n\n\n    // Events used to log what's going on in the contract\n    event logString(string);\n    event newVoteCommit(string, bytes32);\n    event voteWinner(string, string);\n    event TheEnd(address, uint256);\n    event WinnerIsHere(address _winner);\n\n\n    modifier onlyOwner(){\n      require(owner == msg.sender,\"Onwer's permission is required\");\n      _;\n    }\n\n  ///@notice Fallback function\n  ///@dev Funds Collection here.\n  function() external payable{\n  }\n\n  // Constructor used to set parameters for the this specific vote\n\n  constructor (\n      string memory topic,\n      string memory desc,\n      string memory docs,\n      uint256 _ReviewPhaseLengthInSeconds,\n      uint256 _CommitPhaseLengthInSeconds,\n      uint256 _RevealPhaseLengthInSeconds,\n      uint256 _threshold) public {\n    owner = msg.sender;\n    Topic = topic;\n    Description = desc;\n    Docs = docs;\n    reviewPhaseEndTime = block.timestamp + _ReviewPhaseLengthInSeconds;\n    commitPhaseEndTime = block.timestamp + _CommitPhaseLengthInSeconds + _ReviewPhaseLengthInSeconds;\n    revealPhaseEndTime = block.timestamp + _RevealPhaseLengthInSeconds + _CommitPhaseLengthInSeconds + _ReviewPhaseLengthInSeconds;\n    threshold = _threshold;\n  }\n\n\n\n    function commitVote(bytes32 _voteCommit) public{\n      require(now > reviewPhaseEndTime, \"Wait for review period to end \");\n      require(now < commitPhaseEndTime, \"Only allow commits during committing period\");\n\n      // We are still in the committing period & the commit is new so add it\n\n      voteCommits[msg.sender] = _voteCommit;\n      voteStatuses[_voteCommit] = Status.Committed;\n\n      emit newVoteCommit(\"Vote committed with the following hash:\", _voteCommit);\n    }\n\n    function revealVote(\n      uint256 upTechnical,\n      uint256 downTechnical,\n      uint256 upNonTechnical,\n      uint256 downNonTechnical,\n      uint256 choice,\n      string memory salt)\n      public{\n        require(now > commitPhaseEndTime, \"Please Only reveal votes after committing period is over\");\n        require(now < revealPhaseEndTime, \" Only allowed During the reveal period\");\n\n        // FIRST: Verify the vote & commit is valid\n        bytes32 _voteCommit = voteCommits[msg.sender];\n        Status status = voteStatuses[_voteCommit];\n\n        require(status == Status.Committed, \" Vote Wasn't committed yet\");\n\n        require(_voteCommit !=\n        keccak256(abi.encodePacked(upTechnical, downTechnical, upNonTechnical, downNonTechnical, choice, salt)),'Vote hash does not match vote commit');\n\n\n        // NEXT: Count the vote!\n        ++UpTechnical[upTechnical];\n        ++DownTechnical[downTechnical];\n        ++UpNonTechnical[upNonTechnical];\n        ++DownNonTechnical[downNonTechnical];\n        Choice[choice].push(msg.sender);\n        vote[msg.sender] = choice;\n        voteStatuses[_voteCommit] = Status.Revealed;\n    }\n\n    function conclusion(uint256 _reviewEndTime) public onlyOwner{\n      require(now > revealPhaseEndTime, \"Let the reveal Period end first\");\n      require(period == Period.Evaluation, \"Evalaution is done\");\n      winner = majority();\n      rewardPhaseEndTime = block.timestamp + _reviewEndTime;\n      period = Period.EndGame;\n    }\n\n    function reward() public payable{\n      require(period == Period.EndGame,\"It's Done\");\n      require(now < rewardPhaseEndTime,\"You are too late\");\n      require(vote[msg.sender] == winner, \"You aren't the winner \");\n      require(Redeem[msg.sender] == false, \"You have redeem your reward\");\n      Redeem[msg.sender] = true;\n      msg.sender.transfer(amount);\n      emit WinnerIsHere(msg.sender);\n    }\n\n    function endProposal() public payable onlyOwner{\n      require(now > rewardPhaseEndTime, \"Let the reward Period end first\");\n      require(period == Period.EndGame,\"End of the Evaluation\");\n      uint remainder = address(this).balance;\n      owner.transfer(remainder);\n      emit TheEnd(owner, remainder);\n    }\n\n\n    //\n    //helper function\n    //\n\n    function getCount(uint choice) private view returns(uint count) {\n    return Choice[choice].length;\n    }\n\n    // function award(address payable _winner) public payable{\n    //   _winner.transfer(amount);\n    // }\n\n    function majority() private view returns(uint256){\n        return SupportLib.boolMax(getCount(1), getCount(2));\n    }\n\n//   function stakeAmount private()\n//     public payable returns(uint256){\n//       return msg.value;\n//     }\n}\n",
  "sourcePath": "/home/sanchaymittal/Prescience/contracts/IncentiveEvaluation.sol",
  "compiler": {
    "name": "solc",
    "version": "0.5.8+commit.23d335f2.Emscripten.clang"
  },
  "schemaVersion": "3.0.11",
  "updatedAt": "2019-07-31T14:18:35.920Z",
  "devdoc": {
    "methods": {},
    "title": "IncentiveEvaluation"
  },
  "userdoc": {
    "methods": {},
    "notice": "Unique"
  }
}