{
  "contractName": "Main",
  "abi": [
    {
      "constant": true,
      "inputs": [],
      "name": "MIN_SECURITY_DEPOSIT_ENTRY_FEE",
      "outputs": [
        {
          "name": "",
          "type": "uint256"
        }
      ],
      "payable": false,
      "stateMutability": "view",
      "type": "function"
    },
    {
      "constant": true,
      "inputs": [
        {
          "name": "",
          "type": "uint256"
        }
      ],
      "name": "IncentivizeProposals",
      "outputs": [
        {
          "name": "",
          "type": "address"
        }
      ],
      "payable": false,
      "stateMutability": "view",
      "type": "function"
    },
    {
      "constant": true,
      "inputs": [],
      "name": "MIN_TIME_PERIOD",
      "outputs": [
        {
          "name": "",
          "type": "uint256"
        }
      ],
      "payable": false,
      "stateMutability": "view",
      "type": "function"
    },
    {
      "constant": true,
      "inputs": [],
      "name": "MAX_TIME_PERIOD",
      "outputs": [
        {
          "name": "",
          "type": "uint256"
        }
      ],
      "payable": false,
      "stateMutability": "view",
      "type": "function"
    },
    {
      "constant": true,
      "inputs": [],
      "name": "MAX_SECURITY_DEPOSIT_ENTRY_FEE",
      "outputs": [
        {
          "name": "",
          "type": "uint256"
        }
      ],
      "payable": false,
      "stateMutability": "view",
      "type": "function"
    },
    {
      "constant": true,
      "inputs": [],
      "name": "contractPaused",
      "outputs": [
        {
          "name": "",
          "type": "bool"
        }
      ],
      "payable": false,
      "stateMutability": "view",
      "type": "function"
    },
    {
      "constant": true,
      "inputs": [],
      "name": "owner",
      "outputs": [
        {
          "name": "",
          "type": "address"
        }
      ],
      "payable": false,
      "stateMutability": "view",
      "type": "function"
    },
    {
      "constant": true,
      "inputs": [
        {
          "name": "",
          "type": "uint256"
        }
      ],
      "name": "Proposals",
      "outputs": [
        {
          "name": "",
          "type": "address"
        }
      ],
      "payable": false,
      "stateMutability": "view",
      "type": "function"
    },
    {
      "inputs": [],
      "payable": false,
      "stateMutability": "nonpayable",
      "type": "constructor"
    },
    {
      "anonymous": false,
      "inputs": [
        {
          "indexed": false,
          "name": "Contract",
          "type": "address"
        }
      ],
      "name": "SuccessfullyProposalCreated",
      "type": "event"
    },
    {
      "anonymous": false,
      "inputs": [
        {
          "indexed": false,
          "name": "Contract",
          "type": "address"
        }
      ],
      "name": "SuccessfullyIncentivizedProposalCreated",
      "type": "event"
    },
    {
      "constant": false,
      "inputs": [
        {
          "name": "topic",
          "type": "string"
        },
        {
          "name": "desc",
          "type": "string"
        },
        {
          "name": "docs",
          "type": "string"
        },
        {
          "name": "_ReviewPhaseLengthInSeconds",
          "type": "uint256"
        },
        {
          "name": "_CommitPhaseLengthInSeconds",
          "type": "uint256"
        },
        {
          "name": "_RevealPhaseLengthInSeconds",
          "type": "uint256"
        }
      ],
      "name": "Proposal",
      "outputs": [],
      "payable": false,
      "stateMutability": "nonpayable",
      "type": "function"
    },
    {
      "constant": false,
      "inputs": [
        {
          "name": "topic",
          "type": "string"
        },
        {
          "name": "desc",
          "type": "string"
        },
        {
          "name": "docs",
          "type": "string"
        },
        {
          "name": "_ReviewPhaseLengthInSeconds",
          "type": "uint256"
        },
        {
          "name": "_CommitPhaseLengthInSeconds",
          "type": "uint256"
        },
        {
          "name": "_RevealPhaseLengthInSeconds",
          "type": "uint256"
        },
        {
          "name": "_securityDeposit",
          "type": "uint256"
        }
      ],
      "name": "incentivizeProposal",
      "outputs": [],
      "payable": false,
      "stateMutability": "nonpayable",
      "type": "function"
    },
    {
      "constant": true,
      "inputs": [
        {
          "name": "Id",
          "type": "uint256"
        }
      ],
      "name": "getProposalDetails",
      "outputs": [
        {
          "name": "",
          "type": "address"
        },
        {
          "name": "",
          "type": "string"
        },
        {
          "name": "",
          "type": "string"
        }
      ],
      "payable": false,
      "stateMutability": "view",
      "type": "function"
    },
    {
      "constant": true,
      "inputs": [
        {
          "name": "Contract",
          "type": "address"
        }
      ],
      "name": "getProposalDetailsByAddress",
      "outputs": [
        {
          "name": "",
          "type": "address"
        },
        {
          "name": "",
          "type": "string"
        },
        {
          "name": "",
          "type": "string"
        }
      ],
      "payable": false,
      "stateMutability": "view",
      "type": "function"
    },
    {
      "constant": true,
      "inputs": [
        {
          "name": "Id",
          "type": "uint256"
        }
      ],
      "name": "getIncentivizedProposalDetails",
      "outputs": [
        {
          "name": "",
          "type": "address"
        },
        {
          "name": "",
          "type": "string"
        },
        {
          "name": "",
          "type": "string"
        }
      ],
      "payable": false,
      "stateMutability": "view",
      "type": "function"
    },
    {
      "constant": true,
      "inputs": [
        {
          "name": "Contract",
          "type": "address"
        }
      ],
      "name": "getIncentivizedProposalDetailsByAddress",
      "outputs": [
        {
          "name": "",
          "type": "address"
        },
        {
          "name": "",
          "type": "string"
        },
        {
          "name": "",
          "type": "string"
        }
      ],
      "payable": false,
      "stateMutability": "view",
      "type": "function"
    },
    {
      "constant": true,
      "inputs": [],
      "name": "getProposals",
      "outputs": [
        {
          "name": "",
          "type": "address[]"
        }
      ],
      "payable": false,
      "stateMutability": "view",
      "type": "function"
    },
    {
      "constant": true,
      "inputs": [],
      "name": "getIncentivizedProposals",
      "outputs": [
        {
          "name": "",
          "type": "address[]"
        }
      ],
      "payable": false,
      "stateMutability": "view",
      "type": "function"
    },
    {
      "constant": false,
      "inputs": [],
      "name": "circuitBreaker",
      "outputs": [],
      "payable": false,
      "stateMutability": "nonpayable",
      "type": "function"
    },
    {
      "constant": false,
      "inputs": [],
      "name": "circuitMaker",
      "outputs": [],
      "payable": false,
      "stateMutability": "nonpayable",
      "type": "function"
    }
  ],
  "bytecode": "0x608060405260008060006101000a81548160ff02191690831515021790555034801561002a57600080fd5b5033600060016101000a81548173ffffffffffffffffffffffffffffffffffffffff021916908373ffffffffffffffffffffffffffffffffffffffff1602179055506154a58061007b6000396000f3fe60806040523480156200001157600080fd5b5060043610620001305760003560e01c806362564c4811620000b15780638b9c1912116200007b5780638b9c19121462000a3e5780638da5cb5b1462000c51578063a8a8d39f1462000c9d578063c5d2a7a51462000d00578063d1dbe7d81462000d0c5762000130565b806362564c48146200083257806367a20d9f14620008955780636e6a2dfc14620008b55780638a67456a1462000a1a5762000130565b80631abea6f511620000ff5780631abea6f514620003215780633b4d01a7146200034157806357a9820014620004905780635843b69c14620005f55780635e374f1514620008125762000130565b80630441603814620001355780631146a6f7146200028457806316efd94114620002a4578063174df4b514620002b0575b600080fd5b62000164600480360360208110156200014d57600080fd5b810190808035906020019092919050505062000d7d565b604051808473ffffffffffffffffffffffffffffffffffffffff1673ffffffffffffffffffffffffffffffffffffffff1681526020018060200180602001838103835285818151815260200191508051906020019080838360005b83811015620001dc578082015181840152602081019050620001bf565b50505050905090810190601f1680156200020a5780820380516001836020036101000a031916815260200191505b50838103825284818151815260200191508051906020019080838360005b838110156200024557808201518184015260208101905062000228565b50505050905090810190601f168015620002735780820380516001836020036101000a031916815260200191505b509550505050505060405180910390f35b6200028e62000fcc565b6040518082815260200191505060405180910390f35b620002ae62000fd7565b005b620002df60048036036020811015620002c857600080fd5b810190808035906020019092919050505062001140565b604051808273ffffffffffffffffffffffffffffffffffffffff1673ffffffffffffffffffffffffffffffffffffffff16815260200191505060405180910390f35b6200032b6200117d565b6040518082815260200191505060405180910390f35b62000370600480360360208110156200035957600080fd5b810190808035906020019092919050505062001182565b604051808473ffffffffffffffffffffffffffffffffffffffff1673ffffffffffffffffffffffffffffffffffffffff1681526020018060200180602001838103835285818151815260200191508051906020019080838360005b83811015620003e8578082015181840152602081019050620003cb565b50505050905090810190601f168015620004165780820380516001836020036101000a031916815260200191505b50838103825284818151815260200191508051906020019080838360005b838110156200045157808201518184015260208101905062000434565b50505050905090810190601f1680156200047f5780820380516001836020036101000a031916815260200191505b509550505050505060405180910390f35b620004d560048036036020811015620004a857600080fd5b81019080803573ffffffffffffffffffffffffffffffffffffffff169060200190929190505050620014ad565b604051808473ffffffffffffffffffffffffffffffffffffffff1673ffffffffffffffffffffffffffffffffffffffff1681526020018060200180602001838103835285818151815260200191508051906020019080838360005b838110156200054d57808201518184015260208101905062000530565b50505050905090810190601f1680156200057b5780820380516001836020036101000a031916815260200191505b50838103825284818151815260200191508051906020019080838360005b83811015620005b657808201518184015260208101905062000599565b50505050905090810190601f168015620005e45780820380516001836020036101000a031916815260200191505b509550505050505060405180910390f35b62000810600480360360e08110156200060d57600080fd5b81019080803590602001906401000000008111156200062b57600080fd5b8201836020820111156200063e57600080fd5b803590602001918460018302840111640100000000831117156200066157600080fd5b91908080601f016020809104026020016040519081016040528093929190818152602001838380828437600081840152601f19601f82011690508083019250505050505050919291929080359060200190640100000000811115620006c557600080fd5b820183602082011115620006d857600080fd5b80359060200191846001830284011164010000000083111715620006fb57600080fd5b91908080601f016020809104026020016040519081016040528093929190818152602001838380828437600081840152601f19601f820116905080830192505050505050509192919290803590602001906401000000008111156200075f57600080fd5b8201836020820111156200077257600080fd5b803590602001918460018302840111640100000000831117156200079557600080fd5b91908080601f016020809104026020016040519081016040528093929190818152602001838380828437600081840152601f19601f8201169050808301925050505050505091929192908035906020019092919080359060200190929190803590602001909291908035906020019092919050505062001730565b005b6200081c62001e6a565b6040518082815260200191505060405180910390f35b6200083c62001e71565b6040518080602001828103825283818151815260200191508051906020019060200280838360005b838110156200088157808201518184015260208101905062000864565b505050509050019250505060405180910390f35b6200089f62001f01565b6040518082815260200191505060405180910390f35b620008fa60048036036020811015620008cd57600080fd5b81019080803573ffffffffffffffffffffffffffffffffffffffff16906020019092919050505062001f0d565b604051808473ffffffffffffffffffffffffffffffffffffffff1673ffffffffffffffffffffffffffffffffffffffff1681526020018060200180602001838103835285818151815260200191508051906020019080838360005b838110156200097257808201518184015260208101905062000955565b50505050905090810190601f168015620009a05780820380516001836020036101000a031916815260200191505b50838103825284818151815260200191508051906020019080838360005b83811015620009db578082015181840152602081019050620009be565b50505050905090810190601f16801562000a095780820380516001836020036101000a031916815260200191505b509550505050505060405180910390f35b62000a24620020ec565b604051808215151515815260200191505060405180910390f35b62000c4f600480360360c081101562000a5657600080fd5b810190808035906020019064010000000081111562000a7457600080fd5b82018360208201111562000a8757600080fd5b8035906020019184600183028401116401000000008311171562000aaa57600080fd5b91908080601f016020809104026020016040519081016040528093929190818152602001838380828437600081840152601f19601f8201169050808301925050505050505091929192908035906020019064010000000081111562000b0e57600080fd5b82018360208201111562000b2157600080fd5b8035906020019184600183028401116401000000008311171562000b4457600080fd5b91908080601f016020809104026020016040519081016040528093929190818152602001838380828437600081840152601f19601f8201169050808301925050505050505091929192908035906020019064010000000081111562000ba857600080fd5b82018360208201111562000bbb57600080fd5b8035906020019184600183028401116401000000008311171562000bde57600080fd5b91908080601f016020809104026020016040519081016040528093929190818152602001838380828437600081840152601f19601f820116905080830192505050505050509192919290803590602001909291908035906020019092919080359060200190929190505050620020fe565b005b62000c5b6200272d565b604051808273ffffffffffffffffffffffffffffffffffffffff1673ffffffffffffffffffffffffffffffffffffffff16815260200191505060405180910390f35b62000ca762002753565b6040518080602001828103825283818151815260200191508051906020019060200280838360005b8381101562000cec57808201518184015260208101905062000ccf565b505050509050019250505060405180910390f35b62000d0a620027e3565b005b62000d3b6004803603602081101562000d2457600080fd5b8101908080359060200190929190505050620028c3565b604051808273ffffffffffffffffffffffffffffffffffffffff1673ffffffffffffffffffffffffffffffffffffffff16815260200191505060405180910390f35b600060608060006004858154811062000d9257fe5b9060005260206000200160009054906101000a900473ffffffffffffffffffffffffffffffffffffffff16905060608173ffffffffffffffffffffffffffffffffffffffff16633879ad436040518163ffffffff1660e01b815260040160006040518083038186803b15801562000e0857600080fd5b505afa15801562000e1d573d6000803e3d6000fd5b505050506040513d6000823e3d601f19601f82011682018060405250602081101562000e4857600080fd5b81019080805164010000000081111562000e6157600080fd5b8281019050602081018481111562000e7857600080fd5b815185600182028301116401000000008211171562000e9657600080fd5b5050929190505050905060608273ffffffffffffffffffffffffffffffffffffffff16638191745f6040518163ffffffff1660e01b815260040160006040518083038186803b15801562000ee957600080fd5b505afa15801562000efe573d6000803e3d6000fd5b505050506040513d6000823e3d601f19601f82011682018060405250602081101562000f2957600080fd5b81019080805164010000000081111562000f4257600080fd5b8281019050602081018481111562000f5957600080fd5b815185600182028301116401000000008211171562000f7757600080fd5b505092919050505090506004878154811062000f8f57fe5b9060005260206000200160009054906101000a900473ffffffffffffffffffffffffffffffffffffffff1682829550955095505050509193909250565b662386f26fc1000081565b3373ffffffffffffffffffffffffffffffffffffffff16600060019054906101000a900473ffffffffffffffffffffffffffffffffffffffff1673ffffffffffffffffffffffffffffffffffffffff16146200109b576040517f08c379a000000000000000000000000000000000000000000000000000000000815260040180806020018281038252601e8152602001807f4f776e65722773207065726d697373696f6e206973207265717569726564000081525060200191505060405180910390fd5b600015156000809054906101000a900460ff1615151462001124576040517f08c379a000000000000000000000000000000000000000000000000000000000815260040180806020018281038252601e8152602001807f20436f6e747261637420697320506175736564205269676874204e6f7720000081525060200191505060405180910390fd5b60016000806101000a81548160ff021916908315150217905550565b600481815481106200114e57fe5b906000526020600020016000915054906101000a900473ffffffffffffffffffffffffffffffffffffffff1681565b601481565b600060608060016000600386815481106200119957fe5b9060005260206000200160009054906101000a900473ffffffffffffffffffffffffffffffffffffffff1673ffffffffffffffffffffffffffffffffffffffff1673ffffffffffffffffffffffffffffffffffffffff16815260200190815260200160002060009054906101000a900460ff1662001263576040517f08c379a0000000000000000000000000000000000000000000000000000000008152600401808060200182810382526028815260200180620054526028913960400191505060405180910390fd5b6000600385815481106200127357fe5b9060005260206000200160009054906101000a900473ffffffffffffffffffffffffffffffffffffffff16905060608173ffffffffffffffffffffffffffffffffffffffff16633879ad436040518163ffffffff1660e01b815260040160006040518083038186803b158015620012e957600080fd5b505afa158015620012fe573d6000803e3d6000fd5b505050506040513d6000823e3d601f19601f8201168201806040525060208110156200132957600080fd5b8101908080516401000000008111156200134257600080fd5b828101905060208101848111156200135957600080fd5b81518560018202830111640100000000821117156200137757600080fd5b5050929190505050905060608273ffffffffffffffffffffffffffffffffffffffff16638191745f6040518163ffffffff1660e01b815260040160006040518083038186803b158015620013ca57600080fd5b505afa158015620013df573d6000803e3d6000fd5b505050506040513d6000823e3d601f19601f8201168201806040525060208110156200140a57600080fd5b8101908080516401000000008111156200142357600080fd5b828101905060208101848111156200143a57600080fd5b81518560018202830111640100000000821117156200145857600080fd5b50509291905050509050600387815481106200147057fe5b9060005260206000200160009054906101000a900473ffffffffffffffffffffffffffffffffffffffff1682829550955095505050509193909250565b6000606080600160008573ffffffffffffffffffffffffffffffffffffffff1673ffffffffffffffffffffffffffffffffffffffff16815260200190815260200160002060009054906101000a900460ff1662001556576040517f08c379a0000000000000000000000000000000000000000000000000000000008152600401808060200182810382526028815260200180620054526028913960400191505060405180910390fd5b600084905060608173ffffffffffffffffffffffffffffffffffffffff16633879ad436040518163ffffffff1660e01b815260040160006040518083038186803b158015620015a457600080fd5b505afa158015620015b9573d6000803e3d6000fd5b505050506040513d6000823e3d601f19601f820116820180604052506020811015620015e457600080fd5b810190808051640100000000811115620015fd57600080fd5b828101905060208101848111156200161457600080fd5b81518560018202830111640100000000821117156200163257600080fd5b5050929190505050905060608273ffffffffffffffffffffffffffffffffffffffff16638191745f6040518163ffffffff1660e01b815260040160006040518083038186803b1580156200168557600080fd5b505afa1580156200169a573d6000803e3d6000fd5b505050506040513d6000823e3d601f19601f820116820180604052506020811015620016c557600080fd5b810190808051640100000000811115620016de57600080fd5b82810190506020810184811115620016f557600080fd5b81518560018202830111640100000000821117156200171357600080fd5b505092919050505090508682829550955095505050509193909250565b836014811015620017a9576040517f08c379a00000000000000000000000000000000000000000000000000000000081526004018080602001828103825260168152602001807f496e637265617365207468652074696d65205370616e0000000000000000000081525060200191505060405180910390fd5b83601481101562001822576040517f08c379a00000000000000000000000000000000000000000000000000000000081526004018080602001828103825260168152602001807f496e637265617365207468652074696d65205370616e0000000000000000000081525060200191505060405180910390fd5b8360148110156200189b576040517f08c379a00000000000000000000000000000000000000000000000000000000081526004018080602001828103825260168152602001807f496e637265617365207468652074696d65205370616e0000000000000000000081525060200191505060405180910390fd5b86620d2f0081111562001916576040517f08c379a00000000000000000000000000000000000000000000000000000000081526004018080602001828103825260148152602001807f54696d65205370616e20697320746f6f2062696700000000000000000000000081525060200191505060405180910390fd5b86620d2f0081111562001991576040517f08c379a00000000000000000000000000000000000000000000000000000000081526004018080602001828103825260148152602001807f54696d65205370616e20697320746f6f2062696700000000000000000000000081525060200191505060405180910390fd5b87620d2f0081111562001a0c576040517f08c379a00000000000000000000000000000000000000000000000000000000081526004018080602001828103825260148152602001807f54696d65205370616e20697320746f6f2062696700000000000000000000000081525060200191505060405180910390fd5b86662386f26fc1000081101562001a8b576040517f08c379a00000000000000000000000000000000000000000000000000000000081526004018080602001828103825260148152602001807f456e7472792046656520697320746f6f206c6f7700000000000000000000000081525060200191505060405180910390fd5b87670de0b6b3a764000081111562001b0b576040517f08c379a00000000000000000000000000000000000000000000000000000000081526004018080602001828103825260158152602001807f456e7472792046656520697320746f6f2068696768000000000000000000000081525060200191505060405180910390fd5b600015156000809054906101000a900460ff1615151462001b94576040517f08c379a000000000000000000000000000000000000000000000000000000000815260040180806020018281038252601e8152602001807f20436f6e747261637420697320506175736564205269676874204e6f7720000081525060200191505060405180910390fd5b60008f8f8f8f8f8f8f60405162001bab9062002900565b8080602001806020018060200188815260200187815260200186815260200185815260200184810384528b818151815260200191508051906020019080838360005b8381101562001c0a57808201518184015260208101905062001bed565b50505050905090810190601f16801562001c385780820380516001836020036101000a031916815260200191505b5084810383528a818151815260200191508051906020019080838360005b8381101562001c7357808201518184015260208101905062001c56565b50505050905090810190601f16801562001ca15780820380516001836020036101000a031916815260200191505b50848103825289818151815260200191508051906020019080838360005b8381101562001cdc57808201518184015260208101905062001cbf565b50505050905090810190601f16801562001d0a5780820380516001836020036101000a031916815260200191505b509a5050505050505050505050604051809103906000f08015801562001d34573d6000803e3d6000fd5b50905060048190806001815401808255809150509060018203906000526020600020016000909192909190916101000a81548173ffffffffffffffffffffffffffffffffffffffff021916908373ffffffffffffffffffffffffffffffffffffffff160217905550506001600260008373ffffffffffffffffffffffffffffffffffffffff1673ffffffffffffffffffffffffffffffffffffffff16815260200190815260200160002060006101000a81548160ff0219169083151502179055507f791b3657fdaaaf5771d734bb0a18273def97a211fd7b50be07b559133d91ab0881604051808273ffffffffffffffffffffffffffffffffffffffff1673ffffffffffffffffffffffffffffffffffffffff16815260200191505060405180910390a150505050505050505050505050505050565b620d2f0081565b6060600380548060200260200160405190810160405280929190818152602001828054801562001ef757602002820191906000526020600020905b8160009054906101000a900473ffffffffffffffffffffffffffffffffffffffff1673ffffffffffffffffffffffffffffffffffffffff168152602001906001019080831162001eac575b5050505050905090565b670de0b6b3a764000081565b6000606080600084905060608173ffffffffffffffffffffffffffffffffffffffff16633879ad436040518163ffffffff1660e01b815260040160006040518083038186803b15801562001f6057600080fd5b505afa15801562001f75573d6000803e3d6000fd5b505050506040513d6000823e3d601f19601f82011682018060405250602081101562001fa057600080fd5b81019080805164010000000081111562001fb957600080fd5b8281019050602081018481111562001fd057600080fd5b815185600182028301116401000000008211171562001fee57600080fd5b5050929190505050905060608273ffffffffffffffffffffffffffffffffffffffff16638191745f6040518163ffffffff1660e01b815260040160006040518083038186803b1580156200204157600080fd5b505afa15801562002056573d6000803e3d6000fd5b505050506040513d6000823e3d601f19601f8201168201806040525060208110156200208157600080fd5b8101908080516401000000008111156200209a57600080fd5b82810190506020810184811115620020b157600080fd5b8151856001820283011164010000000082111715620020cf57600080fd5b505092919050505090508682829550955095505050509193909250565b6000809054906101000a900460ff1681565b82601481101562002177576040517f08c379a00000000000000000000000000000000000000000000000000000000081526004018080602001828103825260168152602001807f496e637265617365207468652074696d65205370616e0000000000000000000081525060200191505060405180910390fd5b826014811015620021f0576040517f08c379a00000000000000000000000000000000000000000000000000000000081526004018080602001828103825260168152602001807f496e637265617365207468652074696d65205370616e0000000000000000000081525060200191505060405180910390fd5b82601481101562002269576040517f08c379a00000000000000000000000000000000000000000000000000000000081526004018080602001828103825260168152602001807f496e637265617365207468652074696d65205370616e0000000000000000000081525060200191505060405180910390fd5b85620d2f00811115620022e4576040517f08c379a00000000000000000000000000000000000000000000000000000000081526004018080602001828103825260148152602001807f54696d65205370616e20697320746f6f2062696700000000000000000000000081525060200191505060405180910390fd5b85620d2f008111156200235f576040517f08c379a00000000000000000000000000000000000000000000000000000000081526004018080602001828103825260148152602001807f54696d65205370616e20697320746f6f2062696700000000000000000000000081525060200191505060405180910390fd5b86620d2f00811115620023da576040517f08c379a00000000000000000000000000000000000000000000000000000000081526004018080602001828103825260148152602001807f54696d65205370616e20697320746f6f2062696700000000000000000000000081525060200191505060405180910390fd5b600015156000809054906101000a900460ff1615151462002463576040517f08c379a000000000000000000000000000000000000000000000000000000000815260040180806020018281038252601e8152602001807f20436f6e747261637420697320506175736564205269676874204e6f7720000081525060200191505060405180910390fd5b60008c8c8c8c8c8c60405162002479906200290e565b8080602001806020018060200187815260200186815260200185815260200184810384528a818151815260200191508051906020019080838360005b83811015620024d2578082015181840152602081019050620024b5565b50505050905090810190601f168015620025005780820380516001836020036101000a031916815260200191505b50848103835289818151815260200191508051906020019080838360005b838110156200253b5780820151818401526020810190506200251e565b50505050905090810190601f168015620025695780820380516001836020036101000a031916815260200191505b50848103825288818151815260200191508051906020019080838360005b83811015620025a457808201518184015260208101905062002587565b50505050905090810190601f168015620025d25780820380516001836020036101000a031916815260200191505b509950505050505050505050604051809103906000f080158015620025fb573d6000803e3d6000fd5b50905060038190806001815401808255809150509060018203906000526020600020016000909192909190916101000a81548173ffffffffffffffffffffffffffffffffffffffff021916908373ffffffffffffffffffffffffffffffffffffffff1602179055505060018060008373ffffffffffffffffffffffffffffffffffffffff1673ffffffffffffffffffffffffffffffffffffffff16815260200190815260200160002060006101000a81548160ff0219169083151502179055507fbdc5dd6ff73ee656d5e5e0eb4f67ecc3817663161cc6f62a15594763d13fb2c281604051808273ffffffffffffffffffffffffffffffffffffffff1673ffffffffffffffffffffffffffffffffffffffff16815260200191505060405180910390a150505050505050505050505050565b600060019054906101000a900473ffffffffffffffffffffffffffffffffffffffff1681565b60606004805480602002602001604051908101604052809291908181526020018280548015620027d957602002820191906000526020600020905b8160009054906101000a900473ffffffffffffffffffffffffffffffffffffffff1673ffffffffffffffffffffffffffffffffffffffff16815260200190600101908083116200278e575b5050505050905090565b3373ffffffffffffffffffffffffffffffffffffffff16600060019054906101000a900473ffffffffffffffffffffffffffffffffffffffff1673ffffffffffffffffffffffffffffffffffffffff1614620028a7576040517f08c379a000000000000000000000000000000000000000000000000000000000815260040180806020018281038252601e8152602001807f4f776e65722773207065726d697373696f6e206973207265717569726564000081525060200191505060405180910390fd5b60008060006101000a81548160ff021916908315150217905550565b60038181548110620028d157fe5b906000526020600020016000915054906101000a900473ffffffffffffffffffffffffffffffffffffffff1681565b6119df806200291d83390190565b61115680620042fc8339019056fe60806040526000601360006101000a81548160ff021916908360018111156200002457fe5b02179055503480156200003657600080fd5b50604051620019df380380620019df833981018060405260e08110156200005c57600080fd5b8101908080516401000000008111156200007557600080fd5b828101905060208101848111156200008c57600080fd5b8151856001820283011164010000000082111715620000aa57600080fd5b50509291906020018051640100000000811115620000c757600080fd5b82810190506020810184811115620000de57600080fd5b8151856001820283011164010000000082111715620000fc57600080fd5b505092919060200180516401000000008111156200011957600080fd5b828101905060208101848111156200013057600080fd5b81518560018202830111640100000000821117156200014e57600080fd5b505092919060200180519060200190929190805190602001909291908051906020019092919080519060200190929190505050336000806101000a81548173ffffffffffffffffffffffffffffffffffffffff021916908373ffffffffffffffffffffffffffffffffffffffff1602179055508660039080519060200190620001d992919062000241565b508560049080519060200190620001f292919062000241565b5084600590805190602001906200020b92919062000241565b50834201600a819055508383420101600b8190555083838342010101600c819055508060018190555050505050505050620002f0565b828054600181600116156101000203166002900490600052602060002090601f016020900481019282601f106200028457805160ff1916838001178555620002b5565b82800160010185558215620002b5579182015b82811115620002b457825182559160200191906001019062000297565b5b509050620002c49190620002c8565b5090565b620002ed91905b80821115620002e9576000816000905550600101620002cf565b5090565b90565b6116df80620003006000396000f3fe6080604052600436106100e85760003560e01c806398f6560b1161008a578063dd1df89f11610059578063dd1df89f14610397578063e01d71a1146103c2578063ef78d4fd146104bc578063fe95abf5146104f5576100e8565b806398f6560b1461030c578063a619350414610316578063aa8c217c14610341578063acf654f71461036c576100e8565b80633e858923116100c65780633e858923146101bf57806342cde4e8146101fa5780638191745f146102255780638da5cb5b146102b5576100e8565b80630ebfa35d146100ea578063228cb733146101255780633879ad431461012f575b005b3480156100f657600080fd5b506101236004803603602081101561010d57600080fd5b8101908080359060200190929190505050610520565b005b61012d610732565b005b34801561013b57600080fd5b50610144610acb565b6040518080602001828103825283818151815260200191508051906020019080838360005b83811015610184578082015181840152602081019050610169565b50505050905090810190601f1680156101b15780820380516001836020036101000a031916815260200191505b509250505060405180910390f35b3480156101cb57600080fd5b506101f8600480360360208110156101e257600080fd5b8101908080359060200190929190505050610b69565b005b34801561020657600080fd5b5061020f610d09565b6040518082815260200191505060405180910390f35b34801561023157600080fd5b5061023a610d0f565b6040518080602001828103825283818151815260200191508051906020019080838360005b8381101561027a57808201518184015260208101905061025f565b50505050905090810190601f1680156102a75780820380516001836020036101000a031916815260200191505b509250505060405180910390f35b3480156102c157600080fd5b506102ca610dad565b604051808273ffffffffffffffffffffffffffffffffffffffff1673ffffffffffffffffffffffffffffffffffffffff16815260200191505060405180910390f35b610314610dd2565b005b34801561032257600080fd5b5061032b6110b8565b6040518082815260200191505060405180910390f35b34801561034d57600080fd5b506103566110be565b6040518082815260200191505060405180910390f35b34801561037857600080fd5b506103816110ca565b6040518082815260200191505060405180910390f35b3480156103a357600080fd5b506103ac6110d0565b6040518082815260200191505060405180910390f35b3480156103ce57600080fd5b506104ba600480360360c08110156103e557600080fd5b8101908080359060200190929190803590602001909291908035906020019092919080359060200190929190803590602001909291908035906020019064010000000081111561043457600080fd5b82018360208201111561044657600080fd5b8035906020019184600183028401116401000000008311171561046857600080fd5b91908080601f016020809104026020016040519081016040528093929190818152602001838380828437600081840152601f19601f8201169050808301925050505050505091929192905050506110d6565b005b3480156104c857600080fd5b506104d16114ef565b604051808260018111156104e157fe5b60ff16815260200191505060405180910390f35b34801561050157600080fd5b5061050a611502565b6040518082815260200191505060405180910390f35b3373ffffffffffffffffffffffffffffffffffffffff166000809054906101000a900473ffffffffffffffffffffffffffffffffffffffff1673ffffffffffffffffffffffffffffffffffffffff16146105e2576040517f08c379a000000000000000000000000000000000000000000000000000000000815260040180806020018281038252601e8152602001807f4f6e7765722773207065726d697373696f6e206973207265717569726564000081525060200191505060405180910390fd5b600c544211610659576040517f08c379a000000000000000000000000000000000000000000000000000000000815260040180806020018281038252601f8152602001807f4c6574207468652072657665616c20506572696f6420656e642066697273740081525060200191505060405180910390fd5b6000600181111561066657fe5b601360009054906101000a900460ff16600181111561068157fe5b146106f4576040517f08c379a00000000000000000000000000000000000000000000000000000000081526004018080602001828103825260128152602001807f4576616c617574696f6e20697320646f6e65000000000000000000000000000081525060200191505060405180910390fd5b6106fc611508565b600281905550804201600d819055506001601360006101000a81548160ff0219169083600181111561072a57fe5b021790555050565b60018081111561073e57fe5b601360009054906101000a900460ff16600181111561075957fe5b146107cc576040517f08c379a00000000000000000000000000000000000000000000000000000000081526004018080602001828103825260098152602001807f4974277320446f6e65000000000000000000000000000000000000000000000081525060200191505060405180910390fd5b600d544210610843576040517f08c379a00000000000000000000000000000000000000000000000000000000081526004018080602001828103825260108152602001807f596f752061726520746f6f206c6174650000000000000000000000000000000081525060200191505060405180910390fd5b600254601060003373ffffffffffffffffffffffffffffffffffffffff1673ffffffffffffffffffffffffffffffffffffffff16815260200190815260200160002054146108f9576040517f08c379a00000000000000000000000000000000000000000000000000000000081526004018080602001828103825260168152602001807f596f75206172656e2774207468652077696e6e6572200000000000000000000081525060200191505060405180910390fd5b60001515601260003373ffffffffffffffffffffffffffffffffffffffff1673ffffffffffffffffffffffffffffffffffffffff16815260200190815260200160002060009054906101000a900460ff161515146109bf576040517f08c379a000000000000000000000000000000000000000000000000000000000815260040180806020018281038252601b8152602001807f596f7520686176652072656465656d20796f757220726577617264000000000081525060200191505060405180910390fd5b6001601260003373ffffffffffffffffffffffffffffffffffffffff1673ffffffffffffffffffffffffffffffffffffffff16815260200190815260200160002060006101000a81548160ff0219169083151502179055503373ffffffffffffffffffffffffffffffffffffffff166108fc67016345785d8a00009081150290604051600060405180830381858888f19350505050158015610a65573d6000803e3d6000fd5b507fc2f58463acbb5b94b885e368cd3ae56785e5c703d98f2f6ec083c70e508f9f4633604051808273ffffffffffffffffffffffffffffffffffffffff1673ffffffffffffffffffffffffffffffffffffffff16815260200191505060405180910390a1565b60038054600181600116156101000203166002900480601f016020809104026020016040519081016040528092919081815260200182805460018160011615610100020316600290048015610b615780601f10610b3657610100808354040283529160200191610b61565b820191906000526020600020905b815481529060010190602001808311610b4457829003601f168201915b505050505081565b600a544211610be0576040517f08c379a000000000000000000000000000000000000000000000000000000000815260040180806020018281038252601e8152602001807f5761697420666f722072657669657720706572696f6420746f20656e6420000081525060200191505060405180910390fd5b600b544210610c3a576040517f08c379a000000000000000000000000000000000000000000000000000000000815260040180806020018281038252602b81526020018061163e602b913960400191505060405180910390fd5b80600e60003373ffffffffffffffffffffffffffffffffffffffff1673ffffffffffffffffffffffffffffffffffffffff168152602001908152602001600020819055506000600f600083815260200190815260200160002060006101000a81548160ff02191690836001811115610cae57fe5b02179055507f651840caa1b0e1c52ec1324c2c0aca317ef17e709f0016630d8739f84c0f3f3681604051808060200183815260200182810382526027815260200180611669602791396040019250505060405180910390a150565b60015481565b60048054600181600116156101000203166002900480601f016020809104026020016040519081016040528092919081815260200182805460018160011615610100020316600290048015610da55780601f10610d7a57610100808354040283529160200191610da5565b820191906000526020600020905b815481529060010190602001808311610d8857829003601f168201915b505050505081565b6000809054906101000a900473ffffffffffffffffffffffffffffffffffffffff1681565b3373ffffffffffffffffffffffffffffffffffffffff166000809054906101000a900473ffffffffffffffffffffffffffffffffffffffff1673ffffffffffffffffffffffffffffffffffffffff1614610e94576040517f08c379a000000000000000000000000000000000000000000000000000000000815260040180806020018281038252601e8152602001807f4f6e7765722773207065726d697373696f6e206973207265717569726564000081525060200191505060405180910390fd5b600d544211610f0b576040517f08c379a000000000000000000000000000000000000000000000000000000000815260040180806020018281038252601f8152602001807f4c6574207468652072657761726420506572696f6420656e642066697273740081525060200191505060405180910390fd5b600180811115610f1757fe5b601360009054906101000a900460ff166001811115610f3257fe5b14610fa5576040517f08c379a00000000000000000000000000000000000000000000000000000000081526004018080602001828103825260158152602001807f456e64206f6620746865204576616c756174696f6e000000000000000000000081525060200191505060405180910390fd5b60003073ffffffffffffffffffffffffffffffffffffffff163190506000809054906101000a900473ffffffffffffffffffffffffffffffffffffffff1673ffffffffffffffffffffffffffffffffffffffff166108fc829081150290604051600060405180830381858888f19350505050158015611028573d6000803e3d6000fd5b507f4db06b3f8ea08c30ed5017c65f565dc2f06f14388f48d83a5d4398b4f3c7fe9e6000809054906101000a900473ffffffffffffffffffffffffffffffffffffffff1682604051808373ffffffffffffffffffffffffffffffffffffffff1673ffffffffffffffffffffffffffffffffffffffff1681526020018281526020019250505060405180910390a150565b600b5481565b67016345785d8a000081565b600a5481565b600d5481565b600b544211611130576040517f08c379a00000000000000000000000000000000000000000000000000000000081526004018080602001828103825260388152602001806115e06038913960400191505060405180910390fd5b600c54421061118a576040517f08c379a00000000000000000000000000000000000000000000000000000000081526004018080602001828103825260268152602001806116186026913960400191505060405180910390fd5b6000600e60003373ffffffffffffffffffffffffffffffffffffffff1673ffffffffffffffffffffffffffffffffffffffff1681526020019081526020016000205490506000600f600083815260200190815260200160002060009054906101000a900460ff1690506000600181111561120057fe5b81600181111561120c57fe5b1461127f576040517f08c379a000000000000000000000000000000000000000000000000000000000815260040180806020018281038252601a8152602001807f20566f7465205761736e277420636f6d6d69747465642079657400000000000081525060200191505060405180910390fd5b8787878787876040516020018087815260200186815260200185815260200184815260200183815260200182805190602001908083835b602083106112d957805182526020820191506020810190506020830392506112b6565b6001836020036101000a038019825116818451168082178552505050505050905001965050505050505060405160208183030381529060405280519060200120821415611371576040517f08c379a00000000000000000000000000000000000000000000000000000000081526004018080602001828103825260248152602001806116906024913960400191505060405180910390fd5b600860008981526020019081526020016000206000815460010191905081905550600960008881526020019081526020016000206000815460010191905081905550600660008781526020019081526020016000206000815460010191905081905550600760008681526020019081526020016000206000815460010191905081905550601160008581526020019081526020016000203390806001815401808255809150509060018203906000526020600020016000909192909190916101000a81548173ffffffffffffffffffffffffffffffffffffffff021916908373ffffffffffffffffffffffffffffffffffffffff1602179055505083601060003373ffffffffffffffffffffffffffffffffffffffff1673ffffffffffffffffffffffffffffffffffffffff168152602001908152602001600020819055506001600f600084815260200190815260200160002060006101000a81548160ff021916908360018111156114e057fe5b02179055505050505050505050565b601360009054906101000a900460ff1681565b600c5481565b6000611526611517600161152b565b611521600261152b565b61154b565b905090565b600060116000838152602001908152602001600020805490509050919050565b6000818314156115c3576040517f08c379a000000000000000000000000000000000000000000000000000000000815260040180806020018281038252600d8152602001807f546869732069732061207469650000000000000000000000000000000000000081525060200191505060405180910390fd5b8183116115d15760006115d4565b60015b60ff1690509291505056fe506c65617365204f6e6c792072657665616c20766f74657320616674657220636f6d6d697474696e6720706572696f64206973206f766572204f6e6c7920616c6c6f77656420447572696e67207468652072657665616c20706572696f644f6e6c7920616c6c6f7720636f6d6d69747320647572696e6720636f6d6d697474696e6720706572696f64566f746520636f6d6d697474656420776974682074686520666f6c6c6f77696e6720686173683a566f7465206861736820646f6573206e6f74206d6174636820766f746520636f6d6d6974a165627a7a72305820f49768cb92f85ac04d4029a824aefcfb57a7bf1b0677f1341e8d70957ba9a074002960806040523480156200001157600080fd5b506040516200115638038062001156833981018060405260c08110156200003757600080fd5b8101908080516401000000008111156200005057600080fd5b828101905060208101848111156200006757600080fd5b81518560018202830111640100000000821117156200008557600080fd5b50509291906020018051640100000000811115620000a257600080fd5b82810190506020810184811115620000b957600080fd5b8151856001820283011164010000000082111715620000d757600080fd5b50509291906020018051640100000000811115620000f457600080fd5b828101905060208101848111156200010b57600080fd5b81518560018202830111640100000000821117156200012957600080fd5b5050929190602001805190602001909291908051906020019092919080519060200190929190505050336000806101000a81548173ffffffffffffffffffffffffffffffffffffffff021916908373ffffffffffffffffffffffffffffffffffffffff1602179055508560019080519060200190620001aa9291906200020a565b508460029080519060200190620001c39291906200020a565b508360039080519060200190620001dc9291906200020a565b50824201600881905550828242010160098190555082828242010101600a81905550505050505050620002b9565b828054600181600116156101000203166002900490600052602060002090601f016020900481019282601f106200024d57805160ff19168380011785556200027e565b828001600101855582156200027e579182015b828111156200027d57825182559160200191906001019062000260565b5b5090506200028d919062000291565b5090565b620002b691905b80821115620002b257600081600090555060010162000298565b5090565b90565b610e8d80620002c96000396000f3fe6080604052600436106100915760003560e01c8063a619350411610059578063a619350414610252578063acf654f71461027d578063e01d71a1146102a8578063f0a3e792146103a2578063fe95abf51461043257610091565b80632628c8cb146100965780633879ad43146100a05780633e858923146101305780638191745f1461016b5780638da5cb5b146101fb575b600080fd5b61009e61045d565b005b3480156100ac57600080fd5b506100b5610530565b6040518080602001828103825283818151815260200191508051906020019080838360005b838110156100f55780820151818401526020810190506100da565b50505050905090810190601f1680156101225780820380516001836020036101000a031916815260200191505b509250505060405180910390f35b34801561013c57600080fd5b506101696004803603602081101561015357600080fd5b81019080803590602001909291905050506105ce565b005b34801561017757600080fd5b5061018061076e565b6040518080602001828103825283818151815260200191508051906020019080838360005b838110156101c05780820151818401526020810190506101a5565b50505050905090810190601f1680156101ed5780820380516001836020036101000a031916815260200191505b509250505060405180910390f35b34801561020757600080fd5b5061021061080c565b604051808273ffffffffffffffffffffffffffffffffffffffff1673ffffffffffffffffffffffffffffffffffffffff16815260200191505060405180910390f35b34801561025e57600080fd5b50610267610831565b6040518082815260200191505060405180910390f35b34801561028957600080fd5b50610292610837565b6040518082815260200191505060405180910390f35b3480156102b457600080fd5b506103a0600480360360c08110156102cb57600080fd5b8101908080359060200190929190803590602001909291908035906020019092919080359060200190929190803590602001909291908035906020019064010000000081111561031a57600080fd5b82018360208201111561032c57600080fd5b8035906020019184600183028401116401000000008311171561034e57600080fd5b91908080601f016020809104026020016040519081016040528093929190818152602001838380828437600081840152601f19601f82011690508083019250505050505050919291929050505061083d565b005b3480156103ae57600080fd5b506103b7610c12565b6040518080602001828103825283818151815260200191508051906020019080838360005b838110156103f75780820151818401526020810190506103dc565b50505050905090810190601f1680156104245780820380516001836020036101000a031916815260200191505b509250505060405180910390f35b34801561043e57600080fd5b50610447610cb0565b6040518082815260200191505060405180910390f35b600a5442116104d4576040517f08c379a000000000000000000000000000000000000000000000000000000000815260040180806020018281038252601f8152602001807f4c6574207468652072657665616c20506572696f6420656e642066697273740081525060200191505060405180910390fd5b60006104de610cb6565b905060006104eb82610cd9565b90507f149884a7fe48259d8eff5214a021a988c74170498d0c9b25aa5ccecc95f0ad4e8282604051808381526020018281526020019250505060405180910390a15050565b60018054600181600116156101000203166002900480601f0160208091040260200160405190810160405280929190818152602001828054600181600116156101000203166002900480156105c65780601f1061059b576101008083540402835291602001916105c6565b820191906000526020600020905b8154815290600101906020018083116105a957829003601f168201915b505050505081565b6008544211610645576040517f08c379a000000000000000000000000000000000000000000000000000000000815260040180806020018281038252601e8152602001807f5761697420666f722072657669657720706572696f6420746f20656e6420000081525060200191505060405180910390fd5b600954421061069f576040517f08c379a000000000000000000000000000000000000000000000000000000000815260040180806020018281038252602b815260200180610dec602b913960400191505060405180910390fd5b80600b60003373ffffffffffffffffffffffffffffffffffffffff1673ffffffffffffffffffffffffffffffffffffffff168152602001908152602001600020819055506000600c600083815260200190815260200160002060006101000a81548160ff0219169083600181111561071357fe5b02179055507f651840caa1b0e1c52ec1324c2c0aca317ef17e709f0016630d8739f84c0f3f3681604051808060200183815260200182810382526027815260200180610e17602791396040019250505060405180910390a150565b60028054600181600116156101000203166002900480601f0160208091040260200160405190810160405280929190818152602001828054600181600116156101000203166002900480156108045780601f106107d957610100808354040283529160200191610804565b820191906000526020600020905b8154815290600101906020018083116107e757829003601f168201915b505050505081565b6000809054906101000a900473ffffffffffffffffffffffffffffffffffffffff1681565b60095481565b60085481565b6009544211610897576040517f08c379a0000000000000000000000000000000000000000000000000000000008152600401808060200182810382526038815260200180610d8e6038913960400191505060405180910390fd5b600a5442106108f1576040517f08c379a0000000000000000000000000000000000000000000000000000000008152600401808060200182810382526026815260200180610dc66026913960400191505060405180910390fd5b6000600b60003373ffffffffffffffffffffffffffffffffffffffff1673ffffffffffffffffffffffffffffffffffffffff1681526020019081526020016000205490506000600c600083815260200190815260200160002060009054906101000a900460ff1690506000600181111561096757fe5b81600181111561097357fe5b146109e6576040517f08c379a000000000000000000000000000000000000000000000000000000000815260040180806020018281038252601a8152602001807f20566f7465205761736e277420636f6d6d69747465642079657400000000000081525060200191505060405180910390fd5b8787878787876040516020018087815260200186815260200185815260200184815260200183815260200182805190602001908083835b60208310610a405780518252602082019150602081019050602083039250610a1d565b6001836020036101000a038019825116818451168082178552505050505050905001965050505050505060405160208183030381529060405280519060200120821415610ad8576040517f08c379a0000000000000000000000000000000000000000000000000000000008152600401808060200182810382526024815260200180610e3e6024913960400191505060405180910390fd5b600660008981526020019081526020016000206000815460010191905081905550600760008881526020019081526020016000206000815460010191905081905550600460008781526020019081526020016000206000815460010191905081905550600560008681526020019081526020016000206000815460010191905081905550600e60008581526020019081526020016000203390806001815401808255809150509060018203906000526020600020016000909192909190916101000a81548173ffffffffffffffffffffffffffffffffffffffff021916908373ffffffffffffffffffffffffffffffffffffffff160217905550506001600c600084815260200190815260200160002060006101000a81548160ff02191690836001811115610c0357fe5b02179055505050505050505050565b60038054600181600116156101000203166002900480601f016020809104026020016040519081016040528092919081815260200182805460018160011615610100020316600290048015610ca85780601f10610c7d57610100808354040283529160200191610ca8565b820191906000526020600020905b815481529060010190602001808311610c8b57829003601f168201915b505050505081565b600a5481565b6000610cd4610cc56001610cd9565b610ccf6000610cd9565b610cf9565b905090565b6000600e6000838152602001908152602001600020805490509050919050565b600081831415610d71576040517f08c379a000000000000000000000000000000000000000000000000000000000815260040180806020018281038252600d8152602001807f546869732069732061207469650000000000000000000000000000000000000081525060200191505060405180910390fd5b818311610d7f576000610d82565b60015b60ff1690509291505056fe506c65617365204f6e6c792072657665616c20766f74657320616674657220636f6d6d697474696e6720706572696f64206973206f766572204f6e6c7920616c6c6f77656420447572696e67207468652072657665616c20706572696f644f6e6c7920616c6c6f7720636f6d6d69747320647572696e6720636f6d6d697474696e6720706572696f64566f746520636f6d6d697474656420776974682074686520666f6c6c6f77696e6720686173683a566f7465206861736820646f6573206e6f74206d6174636820766f746520636f6d6d6974a165627a7a723058202afb761ec985c4c5cd5bdedf7875ba401304a4da518f9bc9217919738366868a002920436f6e7472616374206973206e6f742070726573656e7420627920746869732061646472657373a165627a7a72305820a1e4650c09719d77c193448c37450a9a2be0c9c4be6a8be53fa1e28fb397fff90029",
  "source": "///@title Prescience\n///@author Sanchay Mittal\n///@notice Prescience ...\n///@dev All function calls are currently implemented without side effects\n\npragma solidity ^0.5.0;\n\n///@notice Contract below interconnect with contract main for Proposal Creation.\n///@dev ProposalEvaluation Contract operates without funding from Proposal Creater and IcenticizeProposal requires funding by proposal creater.\nimport \"./ProposalEvaluation.sol\";\nimport \"./IncentivizeProposalEvaluation.sol\";\n\n\ncontract Main {\n\n  /**\n   *State Variables\n   */\n\n  ///@notice Max Length of review, voting and reveal Period.\n  uint256 constant public MAX_TIME_PERIOD = 10 * 24 * 60 * 60;                  /**> Limit of 10 Days */\n\n  ///@notice Min Length of review, voting and reveal Period.\n  uint256 constant public MIN_TIME_PERIOD  = 1 * 1 * 1 * 20;                    /**> Limit of 20 Seconds*/\n\n  ///@notice Max Limit for Security Deposit Fee.\n  uint256 constant public MAX_SECURITY_DEPOSIT_ENTRY_FEE = 1 * 10 ** 18;        /**> 1 ETHER */\n\n  uint256 constant public MIN_SECURITY_DEPOSIT_ENTRY_FEE = 1 * 10 ** 16;        /**> 0.01 ETHER */\n\n  ///@notice Switch for Contract.\n  ///@dev Only Contract Owner can change the value.\n  bool public contractPaused = false;\n\n  ///@notice Owner's address\n  address public owner;                                                         /**> owner of the contract*/\n\n  ///@notice To check the Contract's address Existence.\n  mapping(address => bool) ProposalContracts;\n  mapping(address => bool) IncentivizeProposalContracts;\n\n  ///@notice Array of Addresses of created Proposals.\n  address[] public Proposals;\n\n  ///@notice Array of Addresses of created Incentivized Proposals.\n  address payable[] public IncentivizeProposals;\n\n  /**\n   * Modifiers\n   */\n\n  ///@notice Minimum Time period requirement.\n  ///@dev Check for Integer Underflow for Time period.\n  modifier minTime(uint256 time){\n    require(time >= MIN_TIME_PERIOD,\"Increase the time Span\");\n    _;\n  }\n\n  ///@notice Maximum Time period limit.\n  ///@dev Check for Integer Overflow for Time period.\n  modifier maxTime(uint256 time){\n    require(time <= MAX_TIME_PERIOD,\"Time Span is too big\");\n    _;\n  }\n\n  ///@notice Maximum limit for Security Deposit Entry Fee.\n  ///@dev Check for Integer Overflow for Security Deposit.\n  modifier checkMaxSecurityDeposit(uint256 _securityDeposit){\n    require(_securityDeposit <= MAX_SECURITY_DEPOSIT_ENTRY_FEE, \"Entry Fee is too high\");\n    _;\n  }\n\n  ///@notice Minimum requirement for Security Deposit Entry Fee.\n  ///@dev Check for Integer Underflow for Security Deposit.\n  modifier checkMinSecurityDeposit(uint256 _securityDeposit){\n    require(_securityDeposit >= MIN_SECURITY_DEPOSIT_ENTRY_FEE, \"Entry Fee is too low\");\n    _;\n  }\n\n  ///@notice Checks the owner of the contract\n  modifier onlyOwner(){\n    require(owner == msg.sender,\"Owner's permission is required\");\n    _;\n  }\n\n  ///@notice Checks the Contract's Status\n  ///@dev Checks the circuit lock.\n  modifier checkIfPaused() {\n    require(contractPaused == false,\" Contract is Paused Right Now \");\n    _;\n  }\n\n  /**\n   * Events\n   */\n\n  event SuccessfullyProposalCreated(address Contract);\n  event SuccessfullyIncentivizedProposalCreated(address Contract);\n\n  /**\n   * Constructor\n   */\n\n  ///@notice Address of the Contract Owner is assigned\n  constructor() public {\n    owner = msg.sender;\n  }\n\n  /**\n   * Functions\n   */\n\n\n  /**@notice Create a Proposal for Judgement.\n   * @param topic Topic of the Proposal.\n   * @param desc Description of the Proposal.\n   * @param docs Docs related to Proposal.\n   * @param _ReviewPhaseLengthInSeconds Length of review period in seconds\n   * @param _CommitPhaseLengthInSeconds Length of Commmit period in seconds\n   * @param _RevealPhaseLengthInSeconds Length of reveal period in seconds\n   */\n  function Proposal(\n    string memory topic,\n    string memory desc,\n    string memory docs,\n    uint256 _ReviewPhaseLengthInSeconds,\n    uint256 _CommitPhaseLengthInSeconds,\n    uint256 _RevealPhaseLengthInSeconds)\n    public\n    minTime(_ReviewPhaseLengthInSeconds)\n    minTime(_CommitPhaseLengthInSeconds)\n    minTime(_RevealPhaseLengthInSeconds)\n    maxTime(_ReviewPhaseLengthInSeconds)\n    maxTime(_CommitPhaseLengthInSeconds)\n    maxTime(_CommitPhaseLengthInSeconds)\n    checkIfPaused()\n    {\n    ProposalEvaluation newContract = new ProposalEvaluation(\n      topic, desc, docs, _ReviewPhaseLengthInSeconds, _CommitPhaseLengthInSeconds, _RevealPhaseLengthInSeconds);\n    Proposals.push(address(newContract));\n    ProposalContracts[address(newContract)] = true;\n    emit SuccessfullyProposalCreated(address(newContract));\n    }\n\n   /**@notice Create a Incentivized Proposal for Judgement.\n    * @param topic Topic of the Proposal.\n    * @param desc Description of the Proposal.\n    * @param docs Docs related to Proposal.\n    * @param _ReviewPhaseLengthInSeconds Length of review period in seconds\n    * @param _CommitPhaseLengthInSeconds Length of Commmit period in seconds\n    * @param _RevealPhaseLengthInSeconds Length of reveal period in seconds\n    * @param _securityDeposit Entry fee for the Proposal.\n    */\n    function incentivizeProposal(\n    string memory topic,\n    string memory desc,\n    string memory docs,\n    uint256 _ReviewPhaseLengthInSeconds,\n    uint256 _CommitPhaseLengthInSeconds,\n    uint256 _RevealPhaseLengthInSeconds,\n    uint256 _securityDeposit)\n    public\n    minTime(_ReviewPhaseLengthInSeconds)\n    minTime(_CommitPhaseLengthInSeconds)\n    minTime(_RevealPhaseLengthInSeconds)\n    maxTime(_ReviewPhaseLengthInSeconds)\n    maxTime(_CommitPhaseLengthInSeconds)\n    maxTime(_CommitPhaseLengthInSeconds)\n    checkMinSecurityDeposit(_securityDeposit)\n    checkMaxSecurityDeposit(_securityDeposit)\n    checkIfPaused()\n    {\n    IncentivizeProposalEvaluation newContract = new IncentivizeProposalEvaluation(\n    topic, desc, docs, _ReviewPhaseLengthInSeconds, _CommitPhaseLengthInSeconds, _RevealPhaseLengthInSeconds, _securityDeposit);\n    IncentivizeProposals.push(address(newContract));\n    IncentivizeProposalContracts[address(newContract)] = true;\n    emit SuccessfullyIncentivizedProposalCreated(address(newContract));\n    }\n\n    /**@notice Details of the selected Proposal\n     * @param Id Key of the stored address.\n     * @return address of the selected Proposal\n     * @return string Topic of the Proposal\n     * @return string Description of the Proposal\n     */\n    function getProposalDetails(uint256 Id) public view returns(address ,string memory, string memory){\n      require(ProposalContracts[Proposals[Id]],\" Contract is not present by this address\");\n      ProposalEvaluation newContract = ProposalEvaluation(address(Proposals[Id]));\n      string memory topic = newContract.Topic();\n      string memory desc = newContract.Description();\n      return (Proposals[Id],topic,desc);\n    }\n\n    /**@notice Details of the selected Proposal\n     * @param Contract Address of the Proposal.\n     * @return address of the selected Proposal\n     * @return string Topic of the Proposal\n     * @return string Description of the Proposal\n     */\n    function getProposalDetailsByAddress(address Contract) public view returns(address ,string memory, string memory){\n      require(ProposalContracts[Contract],\" Contract is not present by this address\");\n      ProposalEvaluation newContract = ProposalEvaluation(Contract);\n      string memory topic = newContract.Topic();\n      string memory desc = newContract.Description();\n      return (Contract,topic,desc);\n    }\n\n    /**@notice Details of the selected Incentivized Proposal\n     * @param Id Key of the stored address.\n     * @return address of the selected Proposal\n     * @return string Topic of the Proposal\n     * @return string Description of the Proposal\n     */\n    function getIncentivizedProposalDetails(uint256 Id) public view returns(address payable, string memory, string memory){\n      IncentivizeProposalEvaluation newContract = IncentivizeProposalEvaluation(address(IncentivizeProposals[Id]));\n      string memory topic = newContract.Topic();\n      string memory desc = newContract.Description();\n      return (IncentivizeProposals[Id],topic,desc);\n    }\n\n    /**@notice Details of the selected Incentivized Proposal\n     * @param Contract Address of the Proposal.\n     * @return address of the selected Proposal\n     * @return string Topic of the Proposal\n     * @return string Description of the Proposal\n     */\n    function getIncentivizedProposalDetailsByAddress(address payable Contract) public view returns(address payable, string memory, string memory){\n      IncentivizeProposalEvaluation newContract = IncentivizeProposalEvaluation(Contract);\n      string memory topic = newContract.Topic();\n      string memory desc = newContract.Description();\n      return (Contract,topic,desc);\n    }\n\n    /**@notice getProposals list all the address of the Proposals.\n     * @return address[] Array of Proposals address.\n     */\n    function getProposals() public view returns(address[] memory){\n      return Proposals;\n    }\n\n    /**@notice getIncentivizedProposals List all the address of the Incentivized Proposals.\n     * @return address[] Array of Incentivized Proposals address.\n     */\n    function getIncentivizedProposals() public view returns(address payable[] memory){\n      return IncentivizeProposals;\n    }\n\n\n  /**@notice Circuit Breaker for emergency\n   * @dev Only contract owner can pause all functionality\n   * Checks if the functionality is already Paused.\n   */\n  function circuitBreaker() public\n    onlyOwner\n    checkIfPaused{\n    contractPaused = true;\n  }\n\n  /**@notice Circuit Maker to countinue the functionality of contract.\n   * @dev Only contract owner can pause all functionality\n   */\n  function circuitMaker() public\n    onlyOwner{\n    contractPaused = false;\n  }\n\n\n    // function incentive(address payable _address) public payable{\n    //     require(Contracts[_address] == true, \"Invalid address\");\n    //     Evaluation contractAddress = Evaluation(_address);\n    //     contractAdress;\n    // }\n\n  }",
  "sourcePath": "/home/sanchaymittal/Prescience/contracts/Main.sol",
  "compiler": {
    "name": "solc",
    "version": "0.5.8+commit.23d335f2.Emscripten.clang"
  },
  "schemaVersion": "3.0.11",
  "updatedAt": "2019-07-31T14:18:35.953Z",
  "devdoc": {
    "methods": {
      "Proposal(string,string,string,uint256,uint256,uint256)": {
        "params": {
          "_CommitPhaseLengthInSeconds": "Length of Commmit period in seconds",
          "_RevealPhaseLengthInSeconds": "Length of reveal period in seconds",
          "_ReviewPhaseLengthInSeconds": "Length of review period in seconds",
          "desc": "Description of the Proposal.",
          "docs": "Docs related to Proposal.",
          "topic": "Topic of the Proposal."
        }
      },
      "circuitBreaker()": {
        "details": "Only contract owner can pause all functionality Checks if the functionality is already Paused."
      },
      "circuitMaker()": {
        "details": "Only contract owner can pause all functionality"
      },
      "getIncentivizedProposalDetails(uint256)": {
        "params": {
          "Id": "Key of the stored address."
        },
        "return": "address of the selected Proposalstring Topic of the Proposalstring Description of the Proposal"
      },
      "getIncentivizedProposalDetailsByAddress(address)": {
        "params": {
          "Contract": "Address of the Proposal."
        },
        "return": "address of the selected Proposalstring Topic of the Proposalstring Description of the Proposal"
      },
      "getIncentivizedProposals()": {
        "return": "address[] Array of Incentivized Proposals address."
      },
      "getProposalDetails(uint256)": {
        "params": {
          "Id": "Key of the stored address."
        },
        "return": "address of the selected Proposalstring Topic of the Proposalstring Description of the Proposal"
      },
      "getProposalDetailsByAddress(address)": {
        "params": {
          "Contract": "Address of the Proposal."
        },
        "return": "address of the selected Proposalstring Topic of the Proposalstring Description of the Proposal"
      },
      "getProposals()": {
        "return": "address[] Array of Proposals address."
      },
      "incentivizeProposal(string,string,string,uint256,uint256,uint256,uint256)": {
        "params": {
          "_CommitPhaseLengthInSeconds": "Length of Commmit period in seconds",
          "_RevealPhaseLengthInSeconds": "Length of reveal period in seconds",
          "_ReviewPhaseLengthInSeconds": "Length of review period in seconds",
          "_securityDeposit": "Entry fee for the Proposal.",
          "desc": "Description of the Proposal.",
          "docs": "Docs related to Proposal.",
          "topic": "Topic of the Proposal."
        }
      }
    }
  },
  "userdoc": {
    "methods": {
      "Proposal(string,string,string,uint256,uint256,uint256)": {
        "notice": "Create a Proposal for Judgement."
      },
      "circuitBreaker()": {
        "notice": "Circuit Breaker for emergency"
      },
      "circuitMaker()": {
        "notice": "Circuit Maker to countinue the functionality of contract."
      },
      "constructor": "Address of the Contract Owner is assigned",
      "getIncentivizedProposalDetails(uint256)": {
        "notice": "Details of the selected Incentivized Proposal"
      },
      "getIncentivizedProposalDetailsByAddress(address)": {
        "notice": "Details of the selected Incentivized Proposal"
      },
      "getIncentivizedProposals()": {
        "notice": "getIncentivizedProposals List all the address of the Incentivized Proposals."
      },
      "getProposalDetails(uint256)": {
        "notice": "Details of the selected Proposal"
      },
      "getProposalDetailsByAddress(address)": {
        "notice": "Details of the selected Proposal"
      },
      "getProposals()": {
        "notice": "getProposals list all the address of the Proposals."
      },
      "incentivizeProposal(string,string,string,uint256,uint256,uint256,uint256)": {
        "notice": "Create a Incentivized Proposal for Judgement."
      }
    }
  }
}