{
  "contractName": "Main",
  "abi": [
    {
      "constant": true,
      "inputs": [],
      "name": "MIN_TIME_PERIOD",
      "outputs": [
        {
          "name": "",
          "type": "uint256"
        }
      ],
      "payable": false,
      "stateMutability": "view",
      "type": "function"
    },
    {
      "constant": true,
      "inputs": [],
      "name": "MAX_TIME_PERIOD",
      "outputs": [
        {
          "name": "",
          "type": "uint256"
        }
      ],
      "payable": false,
      "stateMutability": "view",
      "type": "function"
    },
    {
      "constant": true,
      "inputs": [],
      "name": "MAX_SECURITY_DEPOSIT_ENTRY_FEE",
      "outputs": [
        {
          "name": "",
          "type": "uint256"
        }
      ],
      "payable": false,
      "stateMutability": "view",
      "type": "function"
    },
    {
      "constant": true,
      "inputs": [],
      "name": "contractPaused",
      "outputs": [
        {
          "name": "",
          "type": "bool"
        }
      ],
      "payable": false,
      "stateMutability": "view",
      "type": "function"
    },
    {
      "constant": true,
      "inputs": [],
      "name": "owner",
      "outputs": [
        {
          "name": "",
          "type": "address"
        }
      ],
      "payable": false,
      "stateMutability": "view",
      "type": "function"
    },
    {
      "constant": true,
      "inputs": [
        {
          "name": "",
          "type": "uint256"
        }
      ],
      "name": "Proposals",
      "outputs": [
        {
          "name": "",
          "type": "address"
        }
      ],
      "payable": false,
      "stateMutability": "view",
      "type": "function"
    },
    {
      "inputs": [],
      "payable": false,
      "stateMutability": "nonpayable",
      "type": "constructor"
    },
    {
      "constant": false,
      "inputs": [
        {
          "name": "topic",
          "type": "string"
        },
        {
          "name": "desc",
          "type": "string"
        },
        {
          "name": "docs",
          "type": "string"
        },
        {
          "name": "_ReviewPhaseLengthInSeconds",
          "type": "uint256"
        },
        {
          "name": "_CommitPhaseLengthInSeconds",
          "type": "uint256"
        },
        {
          "name": "_RevealPhaseLengthInSeconds",
          "type": "uint256"
        }
      ],
      "name": "free",
      "outputs": [],
      "payable": false,
      "stateMutability": "nonpayable",
      "type": "function"
    },
    {
      "constant": false,
      "inputs": [
        {
          "name": "topic",
          "type": "string"
        },
        {
          "name": "desc",
          "type": "string"
        },
        {
          "name": "docs",
          "type": "string"
        },
        {
          "name": "_ReviewPhaseLengthInSeconds",
          "type": "uint256"
        },
        {
          "name": "_CommitPhaseLengthInSeconds",
          "type": "uint256"
        },
        {
          "name": "_RevealPhaseLengthInSeconds",
          "type": "uint256"
        },
        {
          "name": "_securityDeposit",
          "type": "uint256"
        }
      ],
      "name": "incentive",
      "outputs": [],
      "payable": false,
      "stateMutability": "nonpayable",
      "type": "function"
    },
    {
      "constant": true,
      "inputs": [],
      "name": "getProposals",
      "outputs": [
        {
          "name": "",
          "type": "address[]"
        }
      ],
      "payable": false,
      "stateMutability": "view",
      "type": "function"
    },
    {
      "constant": false,
      "inputs": [],
      "name": "circuitBreaker",
      "outputs": [],
      "payable": false,
      "stateMutability": "nonpayable",
      "type": "function"
    },
    {
      "constant": false,
      "inputs": [],
      "name": "circuitMaker",
      "outputs": [],
      "payable": false,
      "stateMutability": "nonpayable",
      "type": "function"
    }
  ],
  "bytecode": "0x608060405260008060006101000a81548160ff02191690831515021790555034801561002a57600080fd5b5033600060016101000a81548173ffffffffffffffffffffffffffffffffffffffff021916908373ffffffffffffffffffffffffffffffffffffffff160217905550613b7e8061007b6000396000f3fe60806040523480156200001157600080fd5b5060043610620000b85760003560e01c80638a67456a116200007b5780638a67456a146200018c5780638da5cb5b14620001b0578063c5d2a7a514620001fc578063d1dbe7d81462000208578063e53892101462000279578063ea963e85146200049657620000b8565b806316efd94114620000bd5780631abea6f514620000c95780635e374f1514620000e957806362564c48146200010957806367a20d9f146200016c575b600080fd5b620000c7620006a9565b005b620000d362000812565b6040518082815260200191505060405180910390f35b620000f362000817565b6040518082815260200191505060405180910390f35b620001136200081e565b6040518080602001828103825283818151815260200191508051906020019060200280838360005b83811015620001585780820151818401526020810190506200013b565b505050509050019250505060405180910390f35b62000176620008ae565b6040518082815260200191505060405180910390f35b62000196620008ba565b604051808215151515815260200191505060405180910390f35b620001ba620008cc565b604051808273ffffffffffffffffffffffffffffffffffffffff1673ffffffffffffffffffffffffffffffffffffffff16815260200191505060405180910390f35b62000206620008f2565b005b62000237600480360360208110156200022057600080fd5b8101908080359060200190929190505050620009d2565b604051808273ffffffffffffffffffffffffffffffffffffffff1673ffffffffffffffffffffffffffffffffffffffff16815260200191505060405180910390f35b62000494600480360360e08110156200029157600080fd5b8101908080359060200190640100000000811115620002af57600080fd5b820183602082011115620002c257600080fd5b80359060200191846001830284011164010000000083111715620002e557600080fd5b91908080601f016020809104026020016040519081016040528093929190818152602001838380828437600081840152601f19601f820116905080830192505050505050509192919290803590602001906401000000008111156200034957600080fd5b8201836020820111156200035c57600080fd5b803590602001918460018302840111640100000000831117156200037f57600080fd5b91908080601f016020809104026020016040519081016040528093929190818152602001838380828437600081840152601f19601f82011690508083019250505050505050919291929080359060200190640100000000811115620003e357600080fd5b820183602082011115620003f657600080fd5b803590602001918460018302840111640100000000831117156200041957600080fd5b91908080601f016020809104026020016040519081016040528093929190818152602001838380828437600081840152601f19601f8201169050808301925050505050505091929192908035906020019092919080359060200190929190803590602001909291908035906020019092919050505062000a0f565b005b620006a7600480360360c0811015620004ae57600080fd5b8101908080359060200190640100000000811115620004cc57600080fd5b820183602082011115620004df57600080fd5b803590602001918460018302840111640100000000831117156200050257600080fd5b91908080601f016020809104026020016040519081016040528093929190818152602001838380828437600081840152601f19601f820116905080830192505050505050509192919290803590602001906401000000008111156200056657600080fd5b8201836020820111156200057957600080fd5b803590602001918460018302840111640100000000831117156200059c57600080fd5b91908080601f016020809104026020016040519081016040528093929190818152602001838380828437600081840152601f19601f820116905080830192505050505050509192919290803590602001906401000000008111156200060057600080fd5b8201836020820111156200061357600080fd5b803590602001918460018302840111640100000000831117156200063657600080fd5b91908080601f016020809104026020016040519081016040528093929190818152602001838380828437600081840152601f19601f82011690508083019250505050505050919291929080359060200190929190803590602001909291908035906020019092919050505062001065565b005b3373ffffffffffffffffffffffffffffffffffffffff16600060019054906101000a900473ffffffffffffffffffffffffffffffffffffffff1673ffffffffffffffffffffffffffffffffffffffff16146200076d576040517f08c379a000000000000000000000000000000000000000000000000000000000815260040180806020018281038252601e8152602001807f4f776e65722773207065726d697373696f6e206973207265717569726564000081525060200191505060405180910390fd5b600015156000809054906101000a900460ff16151514620007f6576040517f08c379a000000000000000000000000000000000000000000000000000000000815260040180806020018281038252601e8152602001807f20436f6e747261637420697320706175736564207269676874206e6f7720000081525060200191505060405180910390fd5b60016000806101000a81548160ff021916908315150217905550565b601481565b620d2f0081565b60606002805480602002602001604051908101604052809291908181526020018280548015620008a457602002820191906000526020600020905b8160009054906101000a900473ffffffffffffffffffffffffffffffffffffffff1673ffffffffffffffffffffffffffffffffffffffff168152602001906001019080831162000859575b5050505050905090565b670de0b6b3a764000081565b6000809054906101000a900460ff1681565b600060019054906101000a900473ffffffffffffffffffffffffffffffffffffffff1681565b3373ffffffffffffffffffffffffffffffffffffffff16600060019054906101000a900473ffffffffffffffffffffffffffffffffffffffff1673ffffffffffffffffffffffffffffffffffffffff1614620009b6576040517f08c379a000000000000000000000000000000000000000000000000000000000815260040180806020018281038252601e8152602001807f4f776e65722773207065726d697373696f6e206973207265717569726564000081525060200191505060405180910390fd5b60008060006101000a81548160ff021916908315150217905550565b60028181548110620009e057fe5b906000526020600020016000915054906101000a900473ffffffffffffffffffffffffffffffffffffffff1681565b83601481101562000a88576040517f08c379a00000000000000000000000000000000000000000000000000000000081526004018080602001828103825260168152602001807f496e637265617365207468652074696d65205370616e0000000000000000000081525060200191505060405180910390fd5b83601481101562000b01576040517f08c379a00000000000000000000000000000000000000000000000000000000081526004018080602001828103825260168152602001807f496e637265617365207468652074696d65205370616e0000000000000000000081525060200191505060405180910390fd5b83601481101562000b7a576040517f08c379a00000000000000000000000000000000000000000000000000000000081526004018080602001828103825260168152602001807f496e637265617365207468652074696d65205370616e0000000000000000000081525060200191505060405180910390fd5b86620d2f0081111562000bf5576040517f08c379a000000000000000000000000000000000000000000000000000000000815260040180806020018281038252601e8152602001807f436865636b207468652074696d6520706572696f64206475726174696f6e000081525060200191505060405180910390fd5b86620d2f0081111562000c70576040517f08c379a000000000000000000000000000000000000000000000000000000000815260040180806020018281038252601e8152602001807f436865636b207468652074696d6520706572696f64206475726174696f6e000081525060200191505060405180910390fd5b87620d2f0081111562000ceb576040517f08c379a000000000000000000000000000000000000000000000000000000000815260040180806020018281038252601e8152602001807f436865636b207468652074696d6520706572696f64206475726174696f6e000081525060200191505060405180910390fd5b86670de0b6b3a764000081111562000d6b576040517f08c379a00000000000000000000000000000000000000000000000000000000081526004018080602001828103825260158152602001807f456e7472792046656520697320746f6f2068696768000000000000000000000081525060200191505060405180910390fd5b600015156000809054906101000a900460ff1615151462000df4576040517f08c379a000000000000000000000000000000000000000000000000000000000815260040180806020018281038252601e8152602001807f20436f6e747261637420697320706175736564207269676874206e6f7720000081525060200191505060405180910390fd5b60008e8e8e8e8e8e8e60405162000e0b9062001631565b8080602001806020018060200188815260200187815260200186815260200185815260200184810384528b818151815260200191508051906020019080838360005b8381101562000e6a57808201518184015260208101905062000e4d565b50505050905090810190601f16801562000e985780820380516001836020036101000a031916815260200191505b5084810383528a818151815260200191508051906020019080838360005b8381101562000ed357808201518184015260208101905062000eb6565b50505050905090810190601f16801562000f015780820380516001836020036101000a031916815260200191505b50848103825289818151815260200191508051906020019080838360005b8381101562000f3c57808201518184015260208101905062000f1f565b50505050905090810190601f16801562000f6a5780820380516001836020036101000a031916815260200191505b509a5050505050505050505050604051809103906000f08015801562000f94573d6000803e3d6000fd5b50905060028190806001815401808255809150509060018203906000526020600020016000909192909190916101000a81548173ffffffffffffffffffffffffffffffffffffffff021916908373ffffffffffffffffffffffffffffffffffffffff1602179055505060018060008373ffffffffffffffffffffffffffffffffffffffff1673ffffffffffffffffffffffffffffffffffffffff16815260200190815260200160002060006101000a81548160ff021916908315150217905550505050505050505050505050505050565b826014811015620010de576040517f08c379a00000000000000000000000000000000000000000000000000000000081526004018080602001828103825260168152602001807f496e637265617365207468652074696d65205370616e0000000000000000000081525060200191505060405180910390fd5b82601481101562001157576040517f08c379a00000000000000000000000000000000000000000000000000000000081526004018080602001828103825260168152602001807f496e637265617365207468652074696d65205370616e0000000000000000000081525060200191505060405180910390fd5b826014811015620011d0576040517f08c379a00000000000000000000000000000000000000000000000000000000081526004018080602001828103825260168152602001807f496e637265617365207468652074696d65205370616e0000000000000000000081525060200191505060405180910390fd5b85620d2f008111156200124b576040517f08c379a000000000000000000000000000000000000000000000000000000000815260040180806020018281038252601e8152602001807f436865636b207468652074696d6520706572696f64206475726174696f6e000081525060200191505060405180910390fd5b85620d2f00811115620012c6576040517f08c379a000000000000000000000000000000000000000000000000000000000815260040180806020018281038252601e8152602001807f436865636b207468652074696d6520706572696f64206475726174696f6e000081525060200191505060405180910390fd5b86620d2f0081111562001341576040517f08c379a000000000000000000000000000000000000000000000000000000000815260040180806020018281038252601e8152602001807f436865636b207468652074696d6520706572696f64206475726174696f6e000081525060200191505060405180910390fd5b600015156000809054906101000a900460ff16151514620013ca576040517f08c379a000000000000000000000000000000000000000000000000000000000815260040180806020018281038252601e8152602001807f20436f6e747261637420697320706175736564207269676874206e6f7720000081525060200191505060405180910390fd5b60008c8c8c8c8c8c604051620013e0906200163f565b8080602001806020018060200187815260200186815260200185815260200184810384528a818151815260200191508051906020019080838360005b83811015620014395780820151818401526020810190506200141c565b50505050905090810190601f168015620014675780820380516001836020036101000a031916815260200191505b50848103835289818151815260200191508051906020019080838360005b83811015620014a257808201518184015260208101905062001485565b50505050905090810190601f168015620014d05780820380516001836020036101000a031916815260200191505b50848103825288818151815260200191508051906020019080838360005b838110156200150b578082015181840152602081019050620014ee565b50505050905090810190601f168015620015395780820380516001836020036101000a031916815260200191505b509950505050505050505050604051809103906000f08015801562001562573d6000803e3d6000fd5b50905060028190806001815401808255809150509060018203906000526020600020016000909192909190916101000a81548173ffffffffffffffffffffffffffffffffffffffff021916908373ffffffffffffffffffffffffffffffffffffffff1602179055505060018060008373ffffffffffffffffffffffffffffffffffffffff1673ffffffffffffffffffffffffffffffffffffffff16815260200190815260200160002060006101000a81548160ff02191690831515021790555050505050505050505050505050565b61175d806200164e83390190565b610da88062002dab8339019056fe60806040526000601360006101000a81548160ff021916908360018111156200002457fe5b02179055503480156200003657600080fd5b506040516200175d3803806200175d833981018060405260e08110156200005c57600080fd5b8101908080516401000000008111156200007557600080fd5b828101905060208101848111156200008c57600080fd5b8151856001820283011164010000000082111715620000aa57600080fd5b50509291906020018051640100000000811115620000c757600080fd5b82810190506020810184811115620000de57600080fd5b8151856001820283011164010000000082111715620000fc57600080fd5b505092919060200180516401000000008111156200011957600080fd5b828101905060208101848111156200013057600080fd5b81518560018202830111640100000000821117156200014e57600080fd5b505092919060200180519060200190929190805190602001909291908051906020019092919080519060200190929190505050336000806101000a81548173ffffffffffffffffffffffffffffffffffffffff021916908373ffffffffffffffffffffffffffffffffffffffff1602179055508660039080519060200190620001d992919062000241565b508560049080519060200190620001f292919062000241565b5084600590805190602001906200020b92919062000241565b50834201600a819055508383420101600b8190555083838342010101600c819055508060018190555050505050505050620002f0565b828054600181600116156101000203166002900490600052602060002090601f016020900481019282601f106200028457805160ff1916838001178555620002b5565b82800160010185558215620002b5579182015b82811115620002b457825182559160200191906001019062000297565b5b509050620002c49190620002c8565b5090565b620002ed91905b80821115620002e9576000816000905550600101620002cf565b5090565b90565b61145d80620003006000396000f3fe6080604052600436106100c25760003560e01c8063a61935041161007f578063dd1df89f11610059578063dd1df89f14610251578063e01d71a11461027c578063ef78d4fd14610376578063fe95abf5146103af576100c2565b8063a6193504146101d0578063aa8c217c146101fb578063acf654f714610226576100c2565b80630ebfa35d146100c4578063228cb733146100ff5780633e8589231461010957806342cde4e8146101445780638da5cb5b1461016f57806398f6560b146101c6575b005b3480156100d057600080fd5b506100fd600480360360208110156100e757600080fd5b81019080803590602001909291905050506103da565b005b6101076105ec565b005b34801561011557600080fd5b506101426004803603602081101561012c57600080fd5b8101908080359060200190929190505050610985565b005b34801561015057600080fd5b50610159610b25565b6040518082815260200191505060405180910390f35b34801561017b57600080fd5b50610184610b2b565b604051808273ffffffffffffffffffffffffffffffffffffffff1673ffffffffffffffffffffffffffffffffffffffff16815260200191505060405180910390f35b6101ce610b50565b005b3480156101dc57600080fd5b506101e5610e36565b6040518082815260200191505060405180910390f35b34801561020757600080fd5b50610210610e3c565b6040518082815260200191505060405180910390f35b34801561023257600080fd5b5061023b610e48565b6040518082815260200191505060405180910390f35b34801561025d57600080fd5b50610266610e4e565b6040518082815260200191505060405180910390f35b34801561028857600080fd5b50610374600480360360c081101561029f57600080fd5b810190808035906020019092919080359060200190929190803590602001909291908035906020019092919080359060200190929190803590602001906401000000008111156102ee57600080fd5b82018360208201111561030057600080fd5b8035906020019184600183028401116401000000008311171561032257600080fd5b91908080601f016020809104026020016040519081016040528093929190818152602001838380828437600081840152601f19601f820116905080830192505050505050509192919290505050610e54565b005b34801561038257600080fd5b5061038b61126d565b6040518082600181111561039b57fe5b60ff16815260200191505060405180910390f35b3480156103bb57600080fd5b506103c4611280565b6040518082815260200191505060405180910390f35b3373ffffffffffffffffffffffffffffffffffffffff166000809054906101000a900473ffffffffffffffffffffffffffffffffffffffff1673ffffffffffffffffffffffffffffffffffffffff161461049c576040517f08c379a000000000000000000000000000000000000000000000000000000000815260040180806020018281038252601e8152602001807f4f6e7765722773207065726d697373696f6e206973207265717569726564000081525060200191505060405180910390fd5b600c544211610513576040517f08c379a000000000000000000000000000000000000000000000000000000000815260040180806020018281038252601f8152602001807f4c6574207468652072657665616c20506572696f6420656e642066697273740081525060200191505060405180910390fd5b6000600181111561052057fe5b601360009054906101000a900460ff16600181111561053b57fe5b146105ae576040517f08c379a00000000000000000000000000000000000000000000000000000000081526004018080602001828103825260128152602001807f4576616c617574696f6e20697320646f6e65000000000000000000000000000081525060200191505060405180910390fd5b6105b6611286565b600281905550804201600d819055506001601360006101000a81548160ff021916908360018111156105e457fe5b021790555050565b6001808111156105f857fe5b601360009054906101000a900460ff16600181111561061357fe5b14610686576040517f08c379a00000000000000000000000000000000000000000000000000000000081526004018080602001828103825260098152602001807f4974277320446f6e65000000000000000000000000000000000000000000000081525060200191505060405180910390fd5b600d5442106106fd576040517f08c379a00000000000000000000000000000000000000000000000000000000081526004018080602001828103825260108152602001807f596f752061726520746f6f206c6174650000000000000000000000000000000081525060200191505060405180910390fd5b600254601060003373ffffffffffffffffffffffffffffffffffffffff1673ffffffffffffffffffffffffffffffffffffffff16815260200190815260200160002054146107b3576040517f08c379a00000000000000000000000000000000000000000000000000000000081526004018080602001828103825260168152602001807f596f75206172656e2774207468652077696e6e6572200000000000000000000081525060200191505060405180910390fd5b60001515601260003373ffffffffffffffffffffffffffffffffffffffff1673ffffffffffffffffffffffffffffffffffffffff16815260200190815260200160002060009054906101000a900460ff16151514610879576040517f08c379a000000000000000000000000000000000000000000000000000000000815260040180806020018281038252601b8152602001807f596f7520686176652072656465656d20796f757220726577617264000000000081525060200191505060405180910390fd5b6001601260003373ffffffffffffffffffffffffffffffffffffffff1673ffffffffffffffffffffffffffffffffffffffff16815260200190815260200160002060006101000a81548160ff0219169083151502179055503373ffffffffffffffffffffffffffffffffffffffff166108fc67016345785d8a00009081150290604051600060405180830381858888f1935050505015801561091f573d6000803e3d6000fd5b507fc2f58463acbb5b94b885e368cd3ae56785e5c703d98f2f6ec083c70e508f9f4633604051808273ffffffffffffffffffffffffffffffffffffffff1673ffffffffffffffffffffffffffffffffffffffff16815260200191505060405180910390a1565b600a5442116109fc576040517f08c379a000000000000000000000000000000000000000000000000000000000815260040180806020018281038252601e8152602001807f5761697420666f722072657669657720706572696f6420746f20656e6420000081525060200191505060405180910390fd5b600b544210610a56576040517f08c379a000000000000000000000000000000000000000000000000000000000815260040180806020018281038252602b8152602001806113bc602b913960400191505060405180910390fd5b80600e60003373ffffffffffffffffffffffffffffffffffffffff1673ffffffffffffffffffffffffffffffffffffffff168152602001908152602001600020819055506000600f600083815260200190815260200160002060006101000a81548160ff02191690836001811115610aca57fe5b02179055507f651840caa1b0e1c52ec1324c2c0aca317ef17e709f0016630d8739f84c0f3f36816040518080602001838152602001828103825260278152602001806113e7602791396040019250505060405180910390a150565b60015481565b6000809054906101000a900473ffffffffffffffffffffffffffffffffffffffff1681565b3373ffffffffffffffffffffffffffffffffffffffff166000809054906101000a900473ffffffffffffffffffffffffffffffffffffffff1673ffffffffffffffffffffffffffffffffffffffff1614610c12576040517f08c379a000000000000000000000000000000000000000000000000000000000815260040180806020018281038252601e8152602001807f4f6e7765722773207065726d697373696f6e206973207265717569726564000081525060200191505060405180910390fd5b600d544211610c89576040517f08c379a000000000000000000000000000000000000000000000000000000000815260040180806020018281038252601f8152602001807f4c6574207468652072657761726420506572696f6420656e642066697273740081525060200191505060405180910390fd5b600180811115610c9557fe5b601360009054906101000a900460ff166001811115610cb057fe5b14610d23576040517f08c379a00000000000000000000000000000000000000000000000000000000081526004018080602001828103825260158152602001807f456e64206f6620746865204576616c756174696f6e000000000000000000000081525060200191505060405180910390fd5b60003073ffffffffffffffffffffffffffffffffffffffff163190506000809054906101000a900473ffffffffffffffffffffffffffffffffffffffff1673ffffffffffffffffffffffffffffffffffffffff166108fc829081150290604051600060405180830381858888f19350505050158015610da6573d6000803e3d6000fd5b507f4db06b3f8ea08c30ed5017c65f565dc2f06f14388f48d83a5d4398b4f3c7fe9e6000809054906101000a900473ffffffffffffffffffffffffffffffffffffffff1682604051808373ffffffffffffffffffffffffffffffffffffffff1673ffffffffffffffffffffffffffffffffffffffff1681526020018281526020019250505060405180910390a150565b600b5481565b67016345785d8a000081565b600a5481565b600d5481565b600b544211610eae576040517f08c379a000000000000000000000000000000000000000000000000000000000815260040180806020018281038252603881526020018061135e6038913960400191505060405180910390fd5b600c544210610f08576040517f08c379a00000000000000000000000000000000000000000000000000000000081526004018080602001828103825260268152602001806113966026913960400191505060405180910390fd5b6000600e60003373ffffffffffffffffffffffffffffffffffffffff1673ffffffffffffffffffffffffffffffffffffffff1681526020019081526020016000205490506000600f600083815260200190815260200160002060009054906101000a900460ff16905060006001811115610f7e57fe5b816001811115610f8a57fe5b14610ffd576040517f08c379a000000000000000000000000000000000000000000000000000000000815260040180806020018281038252601a8152602001807f20566f7465205761736e277420636f6d6d69747465642079657400000000000081525060200191505060405180910390fd5b8787878787876040516020018087815260200186815260200185815260200184815260200183815260200182805190602001908083835b602083106110575780518252602082019150602081019050602083039250611034565b6001836020036101000a0380198251168184511680821785525050505050509050019650505050505050604051602081830303815290604052805190602001208214156110ef576040517f08c379a000000000000000000000000000000000000000000000000000000000815260040180806020018281038252602481526020018061140e6024913960400191505060405180910390fd5b600860008981526020019081526020016000206000815460010191905081905550600960008881526020019081526020016000206000815460010191905081905550600660008781526020019081526020016000206000815460010191905081905550600760008681526020019081526020016000206000815460010191905081905550601160008581526020019081526020016000203390806001815401808255809150509060018203906000526020600020016000909192909190916101000a81548173ffffffffffffffffffffffffffffffffffffffff021916908373ffffffffffffffffffffffffffffffffffffffff1602179055505083601060003373ffffffffffffffffffffffffffffffffffffffff1673ffffffffffffffffffffffffffffffffffffffff168152602001908152602001600020819055506001600f600084815260200190815260200160002060006101000a81548160ff0219169083600181111561125e57fe5b02179055505050505050505050565b601360009054906101000a900460ff1681565b600c5481565b60006112a461129560016112a9565b61129f60026112a9565b6112c9565b905090565b600060116000838152602001908152602001600020805490509050919050565b600081831415611341576040517f08c379a000000000000000000000000000000000000000000000000000000000815260040180806020018281038252600d8152602001807f546869732069732061207469650000000000000000000000000000000000000081525060200191505060405180910390fd5b81831161134f576000611352565b60015b60ff1690509291505056fe506c65617365204f6e6c792072657665616c20766f74657320616674657220636f6d6d697474696e6720706572696f64206973206f766572204f6e6c7920616c6c6f77656420447572696e67207468652072657665616c20706572696f644f6e6c7920616c6c6f7720636f6d6d69747320647572696e6720636f6d6d697474696e6720706572696f64566f746520636f6d6d697474656420776974682074686520666f6c6c6f77696e6720686173683a566f7465206861736820646f6573206e6f74206d6174636820766f746520636f6d6d6974a165627a7a723058207b880559e631ff3deb3d9404a1b42f79b1169227d2dc6f1d6fa9e6c140862bc4002960806040523480156200001157600080fd5b5060405162000da838038062000da8833981018060405260c08110156200003757600080fd5b8101908080516401000000008111156200005057600080fd5b828101905060208101848111156200006757600080fd5b81518560018202830111640100000000821117156200008557600080fd5b50509291906020018051640100000000811115620000a257600080fd5b82810190506020810184811115620000b957600080fd5b8151856001820283011164010000000082111715620000d757600080fd5b50509291906020018051640100000000811115620000f457600080fd5b828101905060208101848111156200010b57600080fd5b81518560018202830111640100000000821117156200012957600080fd5b5050929190602001805190602001909291908051906020019092919080519060200190929190505050336000806101000a81548173ffffffffffffffffffffffffffffffffffffffff021916908373ffffffffffffffffffffffffffffffffffffffff1602179055508560019080519060200190620001aa9291906200020a565b508460029080519060200190620001c39291906200020a565b508360039080519060200190620001dc9291906200020a565b50824201600881905550828242010160098190555082828242010101600a81905550505050505050620002b9565b828054600181600116156101000203166002900490600052602060002090601f016020900481019282601f106200024d57805160ff19168380011785556200027e565b828001600101855582156200027e579182015b828111156200027d57825182559160200191906001019062000260565b5b5090506200028d919062000291565b5090565b620002b691905b80821115620002b257600081600090555060010162000298565b5090565b90565b610adf80620002c96000396000f3fe6080604052600436106100705760003560e01c8063a61935041161004e578063a61935041461010e578063acf654f714610139578063e01d71a114610164578063fe95abf51461025e57610070565b80632628c8cb146100725780633e8589231461007c5780638da5cb5b146100b7575b005b61007a610289565b005b34801561008857600080fd5b506100b56004803603602081101561009f57600080fd5b810190808035906020019092919050505061035c565b005b3480156100c357600080fd5b506100cc6104fc565b604051808273ffffffffffffffffffffffffffffffffffffffff1673ffffffffffffffffffffffffffffffffffffffff16815260200191505060405180910390f35b34801561011a57600080fd5b50610123610521565b6040518082815260200191505060405180910390f35b34801561014557600080fd5b5061014e610527565b6040518082815260200191505060405180910390f35b34801561017057600080fd5b5061025c600480360360c081101561018757600080fd5b810190808035906020019092919080359060200190929190803590602001909291908035906020019092919080359060200190929190803590602001906401000000008111156101d657600080fd5b8201836020820111156101e857600080fd5b8035906020019184600183028401116401000000008311171561020a57600080fd5b91908080601f016020809104026020016040519081016040528093929190818152602001838380828437600081840152601f19601f82011690508083019250505050505050919291929050505061052d565b005b34801561026a57600080fd5b50610273610902565b6040518082815260200191505060405180910390f35b600a544211610300576040517f08c379a000000000000000000000000000000000000000000000000000000000815260040180806020018281038252601f8152602001807f4c6574207468652072657665616c20506572696f6420656e642066697273740081525060200191505060405180910390fd5b600061030a610908565b905060006103178261092b565b90507f149884a7fe48259d8eff5214a021a988c74170498d0c9b25aa5ccecc95f0ad4e8282604051808381526020018281526020019250505060405180910390a15050565b60085442116103d3576040517f08c379a000000000000000000000000000000000000000000000000000000000815260040180806020018281038252601e8152602001807f5761697420666f722072657669657720706572696f6420746f20656e6420000081525060200191505060405180910390fd5b600954421061042d576040517f08c379a000000000000000000000000000000000000000000000000000000000815260040180806020018281038252602b815260200180610a3e602b913960400191505060405180910390fd5b80600b60003373ffffffffffffffffffffffffffffffffffffffff1673ffffffffffffffffffffffffffffffffffffffff168152602001908152602001600020819055506000600c600083815260200190815260200160002060006101000a81548160ff021916908360018111156104a157fe5b02179055507f651840caa1b0e1c52ec1324c2c0aca317ef17e709f0016630d8739f84c0f3f3681604051808060200183815260200182810382526027815260200180610a69602791396040019250505060405180910390a150565b6000809054906101000a900473ffffffffffffffffffffffffffffffffffffffff1681565b60095481565b60085481565b6009544211610587576040517f08c379a00000000000000000000000000000000000000000000000000000000081526004018080602001828103825260388152602001806109e06038913960400191505060405180910390fd5b600a5442106105e1576040517f08c379a0000000000000000000000000000000000000000000000000000000008152600401808060200182810382526026815260200180610a186026913960400191505060405180910390fd5b6000600b60003373ffffffffffffffffffffffffffffffffffffffff1673ffffffffffffffffffffffffffffffffffffffff1681526020019081526020016000205490506000600c600083815260200190815260200160002060009054906101000a900460ff1690506000600181111561065757fe5b81600181111561066357fe5b146106d6576040517f08c379a000000000000000000000000000000000000000000000000000000000815260040180806020018281038252601a8152602001807f20566f7465205761736e277420636f6d6d69747465642079657400000000000081525060200191505060405180910390fd5b8787878787876040516020018087815260200186815260200185815260200184815260200183815260200182805190602001908083835b60208310610730578051825260208201915060208101905060208303925061070d565b6001836020036101000a0380198251168184511680821785525050505050509050019650505050505050604051602081830303815290604052805190602001208214156107c8576040517f08c379a0000000000000000000000000000000000000000000000000000000008152600401808060200182810382526024815260200180610a906024913960400191505060405180910390fd5b600660008981526020019081526020016000206000815460010191905081905550600760008881526020019081526020016000206000815460010191905081905550600460008781526020019081526020016000206000815460010191905081905550600560008681526020019081526020016000206000815460010191905081905550600e60008581526020019081526020016000203390806001815401808255809150509060018203906000526020600020016000909192909190916101000a81548173ffffffffffffffffffffffffffffffffffffffff021916908373ffffffffffffffffffffffffffffffffffffffff160217905550506001600c600084815260200190815260200160002060006101000a81548160ff021916908360018111156108f357fe5b02179055505050505050505050565b600a5481565b6000610926610917600161092b565b610921600061092b565b61094b565b905090565b6000600e6000838152602001908152602001600020805490509050919050565b6000818314156109c3576040517f08c379a000000000000000000000000000000000000000000000000000000000815260040180806020018281038252600d8152602001807f546869732069732061207469650000000000000000000000000000000000000081525060200191505060405180910390fd5b8183116109d15760006109d4565b60015b60ff1690509291505056fe506c65617365204f6e6c792072657665616c20766f74657320616674657220636f6d6d697474696e6720706572696f64206973206f766572204f6e6c7920616c6c6f77656420447572696e67207468652072657665616c20706572696f644f6e6c7920616c6c6f7720636f6d6d69747320647572696e6720636f6d6d697474696e6720706572696f64566f746520636f6d6d697474656420776974682074686520666f6c6c6f77696e6720686173683a566f7465206861736820646f6573206e6f74206d6174636820766f746520636f6d6d6974a165627a7a723058203c5b5ae123af8291e30a4eb12554e1ae8e90f4b2aecfc865fc0a11dcc45b40990029a165627a7a723058200ccaf32b6c387023d3aa1142ae1fdae3a24e1e3af5ed4fd786c71ae6e6e2a78c0029",
  "source": "///@author Sanchay Mittal\n\npragma solidity ^0.5.0;\n\nimport \"./FreeEvaluation.sol\";\nimport \"./IncentiveEvaluation.sol\";\n\n\ncontract Main {\n\n  /**\n   *State Variables\n   */\n  // Max Length of review, voting and reveal period.\n  uint256 constant public MAX_TIME_PERIOD = 10 * 24 * 60 * 60;    // Limit of 10 Days\n\n  uint256 constant public MIN_TIME_PERIOD  = 1 * 1 * 1 * 20;       // Limit of 20 Seconds\n\n  // Max Limit for Security Deposit.\n  uint256 constant public MAX_SECURITY_DEPOSIT_ENTRY_FEE = 1 * 10 ** 18;         // 1 ether\n\n  // Pause\n  bool public contractPaused = false;\n\n  ///@notice Owner's address\n  address public owner;     //owner of the contract\n  mapping(address => bool) Contracts;\n  address[] public Proposals;\n\n\n  modifier minTime(uint256 time){\n    require(time >= MIN_TIME_PERIOD,\"Increase the time Span\");\n    _;\n  }\n\n  modifier checkTimeLimit(uint256 time){\n    require(time <= MAX_TIME_PERIOD,\"Check the time period duration\");\n    _;\n  }\n\n  modifier checkSecurityDeposit(uint256 _securityDeposit){\n    require(_securityDeposit <= MAX_SECURITY_DEPOSIT_ENTRY_FEE, \"Entry Fee is too high\");\n    _;\n  }\n\n  modifier onlyOwner(){\n    require(owner == msg.sender,\"Owner's permission is required\");\n    _;\n  }\n\n    modifier checkIfPaused() {\n    require(contractPaused == false,\" Contract is paused right now \");\n    _;\n  }\n\n  //\n  //Constructor\n  //\n\n  constructor() public {\n    owner = msg.sender;\n  }\n\n\n\n  /** @notice Question creation function\n   * @param topic Heading of the query\n   * @param desc description of it.\n   * @param docs docs related to it.\n   * @param _ReviewPhaseLengthInSeconds Length of review period in seconds\n   * @param _CommitPhaseLengthInSeconds Length of Commmit period in seconds\n   * @param _RevealPhaseLengthInSeconds Length of reveal period in seconds\n   */\n  function free(\n    string memory topic,\n    string memory desc,\n    string memory docs,\n    uint256 _ReviewPhaseLengthInSeconds,\n    uint256 _CommitPhaseLengthInSeconds,\n    uint256 _RevealPhaseLengthInSeconds)\n    public\n    minTime(_ReviewPhaseLengthInSeconds)\n    minTime(_CommitPhaseLengthInSeconds)\n    minTime(_RevealPhaseLengthInSeconds)\n    checkTimeLimit(_ReviewPhaseLengthInSeconds)\n    checkTimeLimit(_CommitPhaseLengthInSeconds)\n    checkTimeLimit(_CommitPhaseLengthInSeconds)\n    checkIfPaused()\n    {\n    FreeEvaluation newContract = new FreeEvaluation(topic,\n     desc, docs, _ReviewPhaseLengthInSeconds, _CommitPhaseLengthInSeconds, _RevealPhaseLengthInSeconds);\n    Proposals.push(address(newContract));\n    Contracts[address(newContract)] = true;\n    // D newD = (new D).value(amount)(arg);\n    }\n\n    function incentive(\n    string memory topic,\n    string memory desc,\n    string memory docs,\n    uint256 _ReviewPhaseLengthInSeconds,\n    uint256 _CommitPhaseLengthInSeconds,\n    uint256 _RevealPhaseLengthInSeconds,\n    uint256 _securityDeposit)\n    public\n    minTime(_ReviewPhaseLengthInSeconds)\n    minTime(_CommitPhaseLengthInSeconds)\n    minTime(_RevealPhaseLengthInSeconds)\n    checkTimeLimit(_ReviewPhaseLengthInSeconds)\n    checkTimeLimit(_CommitPhaseLengthInSeconds)\n    checkTimeLimit(_CommitPhaseLengthInSeconds)\n    checkSecurityDeposit(_securityDeposit)\n    checkIfPaused()\n    {\n    IncentiveEvaluation newContract = new IncentiveEvaluation( topic,\n    desc, docs, _ReviewPhaseLengthInSeconds, _CommitPhaseLengthInSeconds, _RevealPhaseLengthInSeconds, _securityDeposit);\n    Proposals.push(address(newContract));\n    Contracts[address(newContract)] = true;\n    }\n\n\n    function getProposals() public view returns(address[] memory){\n      return Proposals;\n    }\n\n\n  // The contract owner can pause all functionality\n    function circuitBreaker() public\n    onlyOwner\n    checkIfPaused{\n    contractPaused = true;\n  }\n  function circuitMaker() public\n  onlyOwner{\n    contractPaused = false;\n  }\n\n\n    // function incentive(address payable _address) public payable{\n    //     require(Contracts[_address] == true, \"Invalid address\");\n    //     Evaluation contractAddress = Evaluation(_address);\n    //     contractAdress;\n    // }\n\n  }",
  "sourcePath": "/home/sanchaymittal/Prescience/contracts/Main.sol",
  "compiler": {
    "name": "solc",
    "version": "0.5.8+commit.23d335f2.Emscripten.clang"
  },
  "schemaVersion": "3.0.11",
  "updatedAt": "2019-07-30T21:19:36.033Z",
  "devdoc": {
    "methods": {
      "free(string,string,string,uint256,uint256,uint256)": {
        "params": {
          "_CommitPhaseLengthInSeconds": "Length of Commmit period in seconds",
          "_RevealPhaseLengthInSeconds": "Length of reveal period in seconds",
          "_ReviewPhaseLengthInSeconds": "Length of review period in seconds",
          "desc": "description of it.",
          "docs": "docs related to it.",
          "topic": "Heading of the query"
        }
      }
    }
  },
  "userdoc": {
    "methods": {
      "free(string,string,string,uint256,uint256,uint256)": {
        "notice": "Question creation function"
      }
    }
  }
}