{
  "contractName": "MainContract",
  "abi": [
    {
      "constant": true,
      "inputs": [],
      "name": "owner",
      "outputs": [
        {
          "name": "",
          "type": "address"
        }
      ],
      "payable": false,
      "stateMutability": "view",
      "type": "function"
    },
    {
      "inputs": [],
      "payable": false,
      "stateMutability": "nonpayable",
      "type": "constructor"
    },
    {
      "constant": false,
      "inputs": [
        {
          "name": "topic",
          "type": "string"
        },
        {
          "name": "desc",
          "type": "string"
        },
        {
          "name": "docs",
          "type": "string"
        },
        {
          "name": "_ReviewPhaseLengthInSeconds",
          "type": "uint256"
        },
        {
          "name": "_CommitPhaseLengthInSeconds",
          "type": "uint256"
        },
        {
          "name": "_RevealPhaseLengthInSeconds",
          "type": "uint256"
        }
      ],
      "name": "createQuery",
      "outputs": [],
      "payable": false,
      "stateMutability": "nonpayable",
      "type": "function"
    }
  ],
  "bytecode": "0x608060405234801561001057600080fd5b50336000806101000a81548173ffffffffffffffffffffffffffffffffffffffff021916908373ffffffffffffffffffffffffffffffffffffffff16021790555061152f806100606000396000f3fe608060405234801561001057600080fd5b50600436106100365760003560e01c80636c5a844f1461003b5780638da5cb5b14610242575b600080fd5b610240600480360360c081101561005157600080fd5b810190808035906020019064010000000081111561006e57600080fd5b82018360208201111561008057600080fd5b803590602001918460018302840111640100000000831117156100a257600080fd5b91908080601f016020809104026020016040519081016040528093929190818152602001838380828437600081840152601f19601f8201169050808301925050505050505091929192908035906020019064010000000081111561010557600080fd5b82018360208201111561011757600080fd5b8035906020019184600183028401116401000000008311171561013957600080fd5b91908080601f016020809104026020016040519081016040528093929190818152602001838380828437600081840152601f19601f8201169050808301925050505050505091929192908035906020019064010000000081111561019c57600080fd5b8201836020820111156101ae57600080fd5b803590602001918460018302840111640100000000831117156101d057600080fd5b91908080601f016020809104026020016040519081016040528093929190818152602001838380828437600081840152601f19601f82011690508083019250505050505050919291929080359060200190929190803590602001909291908035906020019092919050505061028c565b005b61024a6105e3565b604051808273ffffffffffffffffffffffffffffffffffffffff1673ffffffffffffffffffffffffffffffffffffffff16815260200191505060405180910390f35b8260148111610303576040517f08c379a00000000000000000000000000000000000000000000000000000000081526004018080602001828103825260168152602001807f496e637265617365207468652074696d65205370616e0000000000000000000081525060200191505060405180910390fd5b826014811161037a576040517f08c379a00000000000000000000000000000000000000000000000000000000081526004018080602001828103825260168152602001807f496e637265617365207468652074696d65205370616e0000000000000000000081525060200191505060405180910390fd5b82601481116103f1576040517f08c379a00000000000000000000000000000000000000000000000000000000081526004018080602001828103825260168152602001807f496e637265617365207468652074696d65205370616e0000000000000000000081525060200191505060405180910390fd5b600089898989898960405161040590610608565b8080602001806020018060200187815260200186815260200185815260200184810384528a818151815260200191508051906020019080838360005b8381101561045c578082015181840152602081019050610441565b50505050905090810190601f1680156104895780820380516001836020036101000a031916815260200191505b50848103835289818151815260200191508051906020019080838360005b838110156104c25780820151818401526020810190506104a7565b50505050905090810190601f1680156104ef5780820380516001836020036101000a031916815260200191505b50848103825288818151815260200191508051906020019080838360005b8381101561052857808201518184015260208101905061050d565b50505050905090810190601f1680156105555780820380516001836020036101000a031916815260200191505b509950505050505050505050604051809103906000f08015801561057d573d6000803e3d6000fd5b50905060018060008373ffffffffffffffffffffffffffffffffffffffff1673ffffffffffffffffffffffffffffffffffffffff16815260200190815260200160002060006101000a81548160ff02191690831515021790555050505050505050505050565b6000809054906101000a900473ffffffffffffffffffffffffffffffffffffffff1681565b610eee806106168339019056fe60806040523480156200001157600080fd5b5060405162000eee38038062000eee833981018060405260c08110156200003757600080fd5b8101908080516401000000008111156200005057600080fd5b828101905060208101848111156200006757600080fd5b81518560018202830111640100000000821117156200008557600080fd5b50509291906020018051640100000000811115620000a257600080fd5b82810190506020810184811115620000b957600080fd5b8151856001820283011164010000000082111715620000d757600080fd5b50509291906020018051640100000000811115620000f457600080fd5b828101905060208101848111156200010b57600080fd5b81518560018202830111640100000000821117156200012957600080fd5b5050929190602001805190602001909291908051906020019092919080519060200190929190505050336000806101000a81548173ffffffffffffffffffffffffffffffffffffffff021916908373ffffffffffffffffffffffffffffffffffffffff160217905550620001a3866200020460201b60201c565b600181905550620001ba856200020460201b60201c565b600281905550620001d1846200020460201b60201c565b600381905550824201600881905550828242010160098190555082828242010101600a819055505050505050506200031b565b60006002826040516020018082805190602001908083835b602083106200024157805182526020820191506020810190506020830392506200021c565b6001836020036101000a0380198251168184511680821785525050505050509050019150506040516020818303038152906040526040518082805190602001908083835b60208310620002aa578051825260208201915060208101905060208303925062000285565b6001836020036101000a038019825116818451168082178552505050505050905001915050602060405180830381855afa158015620002ed573d6000803e3d6000fd5b5050506040513d60208110156200030357600080fd5b81019080805190602001909291905050509050919050565b610bc3806200032b6000396000f3fe6080604052600436106100705760003560e01c8063a61935041161004e578063a61935041461010e578063acf654f714610139578063e01d71a114610164578063fe95abf51461025e57610070565b80632628c8cb146100725780633e8589231461007c5780638da5cb5b146100b7575b005b61007a610289565b005b34801561008857600080fd5b506100b56004803603602081101561009f57600080fd5b8101908080359060200190929190505050610438565b005b3480156100c357600080fd5b506100cc6105d8565b604051808273ffffffffffffffffffffffffffffffffffffffff1673ffffffffffffffffffffffffffffffffffffffff16815260200191505060405180910390f35b34801561011a57600080fd5b506101236105fd565b6040518082815260200191505060405180910390f35b34801561014557600080fd5b5061014e610603565b6040518082815260200191505060405180910390f35b34801561017057600080fd5b5061025c600480360360c081101561018757600080fd5b810190808035906020019092919080359060200190929190803590602001909291908035906020019092919080359060200190929190803590602001906401000000008111156101d657600080fd5b8201836020820111156101e857600080fd5b8035906020019184600183028401116401000000008311171561020a57600080fd5b91908080601f016020809104026020016040519081016040528093929190818152602001838380828437600081840152601f19601f820116905080830192505050505050509192919290505050610609565b005b34801561026a57600080fd5b506102736109de565b6040518082815260200191505060405180910390f35b600a544211610300576040517f08c379a000000000000000000000000000000000000000000000000000000000815260040180806020018281038252601f8152602001807f4c6574207468652072657665616c20506572696f6420656e642066697273740081525060200191505060405180910390fd5b600061030a6109e4565b9050600061031782610a10565b90506060600e60008481526020019081526020016000208054806020026020016040519081016040528092919081815260200182805480156103ae57602002820191906000526020600020905b8160009054906101000a900473ffffffffffffffffffffffffffffffffffffffff1673ffffffffffffffffffffffffffffffffffffffff1681526020019060010190808311610364575b5050505050905060008090505b82811015610432578181815181106103cf57fe5b602002602001015173ffffffffffffffffffffffffffffffffffffffff166108fc67016345785d8a00009081150290604051600060405180830381858888f19350505050158015610424573d6000803e3d6000fd5b5080806001019150506103bb565b50505050565b60085442116104af576040517f08c379a000000000000000000000000000000000000000000000000000000000815260040180806020018281038252601e8152602001807f5761697420666f722072657669657720706572696f6420746f20656e6420000081525060200191505060405180910390fd5b6009544210610509576040517f08c379a000000000000000000000000000000000000000000000000000000000815260040180806020018281038252602b815260200180610b22602b913960400191505060405180910390fd5b80600b60003373ffffffffffffffffffffffffffffffffffffffff1673ffffffffffffffffffffffffffffffffffffffff168152602001908152602001600020819055506000600c600083815260200190815260200160002060006101000a81548160ff0219169083600181111561057d57fe5b02179055507f651840caa1b0e1c52ec1324c2c0aca317ef17e709f0016630d8739f84c0f3f3681604051808060200183815260200182810382526027815260200180610b4d602791396040019250505060405180910390a150565b6000809054906101000a900473ffffffffffffffffffffffffffffffffffffffff1681565b60095481565b60085481565b6009544211610663576040517f08c379a0000000000000000000000000000000000000000000000000000000008152600401808060200182810382526038815260200180610ac46038913960400191505060405180910390fd5b600a5442106106bd576040517f08c379a0000000000000000000000000000000000000000000000000000000008152600401808060200182810382526026815260200180610afc6026913960400191505060405180910390fd5b6000600b60003373ffffffffffffffffffffffffffffffffffffffff1673ffffffffffffffffffffffffffffffffffffffff1681526020019081526020016000205490506000600c600083815260200190815260200160002060009054906101000a900460ff1690506000600181111561073357fe5b81600181111561073f57fe5b146107b2576040517f08c379a000000000000000000000000000000000000000000000000000000000815260040180806020018281038252601a8152602001807f20566f7465205761736e277420636f6d6d69747465642079657400000000000081525060200191505060405180910390fd5b8787878787876040516020018087815260200186815260200185815260200184815260200183815260200182805190602001908083835b6020831061080c57805182526020820191506020810190506020830392506107e9565b6001836020036101000a0380198251168184511680821785525050505050509050019650505050505050604051602081830303815290604052805190602001208214156108a4576040517f08c379a0000000000000000000000000000000000000000000000000000000008152600401808060200182810382526024815260200180610b746024913960400191505060405180910390fd5b600660008981526020019081526020016000206000815460010191905081905550600760008881526020019081526020016000206000815460010191905081905550600460008781526020019081526020016000206000815460010191905081905550600560008681526020019081526020016000206000815460010191905081905550600e60008581526020019081526020016000203390806001815401808255809150509060018203906000526020600020016000909192909190916101000a81548173ffffffffffffffffffffffffffffffffffffffff021916908373ffffffffffffffffffffffffffffffffffffffff160217905550506001600c600084815260200190815260200160002060006101000a81548160ff021916908360018111156109cf57fe5b02179055505050505050505050565b600a5481565b6000610a0b6109f36000610a10565b6109fd6001610a10565b610a3090919063ffffffff16565b905090565b6000600e6000838152602001908152602001600020805490509050919050565b6000818314610aa7576040517f08c379a000000000000000000000000000000000000000000000000000000000815260040180806020018281038252600d8152602001807f546869732069732061207469650000000000000000000000000000000000000081525060200191505060405180910390fd5b818311610ab5576000610ab8565b60015b60ff1690509291505056fe506c65617365204f6e6c792072657665616c20766f74657320616674657220636f6d6d697474696e6720706572696f64206973206f766572204f6e6c7920616c6c6f77656420447572696e67207468652072657665616c20706572696f644f6e6c7920616c6c6f7720636f6d6d69747320647572696e6720636f6d6d697474696e6720706572696f64566f746520636f6d6d697474656420776974682074686520666f6c6c6f77696e6720686173683a566f7465206861736820646f6573206e6f74206d6174636820766f746520636f6d6d6974a165627a7a723058209be4bbef9a5e115c46a99ba10797571ed2eba0a87e5b066c429d2555b05956590029a165627a7a723058207da5371c61e43c20cd3d68c6ba99893332c68643beb2f31f269008fad174a5b20029",
  "source": "///@author Sanchay Mittal\n\npragma solidity ^0.5.0;\n\n// import \"node_modules/openzeppelin-solidity/contracts/math/Math.sol\";\n// import \"node_modules/openzeppelin-solidity/contracts/math/SafeMath.sol\";\nimport \"./SupportLib.sol\";\n\n///@title Escrow\n///@notice Unique\ncontract Escrow{\n\n  using SupportLib for uint256;\n  uint constant amount = 1 * 10**17;    /**> Threshold amount in wei as a deposit entry fee */\n\n  ///@notice Admin's address\n  address public owner;     //owner of the contract\n\n// MetaData\n  bytes32 Topic;                        /**> Topic of Discussion*/\n  bytes32 Description;                  /**> Discription of technology*/\n  bytes32 Docs;                         /**> Docs and other additional materials uploaded*/\n\n// Vote distribution for the Comments.\n    mapping (uint256 => uint256) UpNonTechnical;\n    mapping (uint256 => uint256) DownNonTechnical;\n    mapping (uint256 => uint256) UpTechnical;\n    mapping (uint256 => uint256) DownTechnical;\n\n\n  // Information about the current status of the vote\n  uint256 public reviewPhaseEndTime;\n  uint256 public commitPhaseEndTime;\n  uint256 public revealPhaseEndTime;\n\n  ///@notice Fallback function\n  ///@dev Funds Collection here.\n  function() external payable{\n  }\n\n  // Constructor used to set parameters for the this specific vote\n\n  constructor (\n      string memory topic,\n      string memory desc,\n      string memory docs,\n      uint256 _ReviewPhaseLengthInSeconds,\n      uint256 _CommitPhaseLengthInSeconds,\n      uint256 _RevealPhaseLengthInSeconds) public {\n    owner = msg.sender;\n    Topic = encryption(topic);\n    Description = encryption(desc);\n    Docs = encryption(docs);\n    reviewPhaseEndTime = block.timestamp + _ReviewPhaseLengthInSeconds;\n    commitPhaseEndTime = block.timestamp + _CommitPhaseLengthInSeconds + _ReviewPhaseLengthInSeconds;\n    revealPhaseEndTime = block.timestamp + _RevealPhaseLengthInSeconds + _CommitPhaseLengthInSeconds + _ReviewPhaseLengthInSeconds;\n  }\n\n\n  enum Status{\n    Committed, Revealed\n  }\n\n  // The actual votes and vote commits\n  mapping (address => bytes32) voteCommits;\n  mapping (bytes32 => Status) voteStatuses;\n  mapping (address => uint256) vote;\n  mapping (uint256 => address payable[]) Choice;\n\n\n    // Events used to log what's going on in the contract\n    event logString(string);\n    event newVoteCommit(string, bytes32);\n    event voteWinner(string, string);\n\n    function commitVote(bytes32 _voteCommit) public{\n      require(block.timestamp > reviewPhaseEndTime, \"Wait for review period to end \");\n      require(block.timestamp < commitPhaseEndTime, \"Only allow commits during committing period\");\n\n      // We are still in the committing period & the commit is new so add it\n      voteCommits[msg.sender] = _voteCommit;\n      voteStatuses[_voteCommit] = Status.Committed;\n      emit newVoteCommit(\"Vote committed with the following hash:\", _voteCommit);\n    }\n\n    function revealVote(\n      uint256 upTechnical,\n      uint256 downTechnical,\n      uint256 upNonTechnical,\n      uint256 downNonTechnical,\n      uint256 choice,\n      string memory salt)\n      public{\n        require(block.timestamp > commitPhaseEndTime, \"Please Only reveal votes after committing period is over\");\n        require(block.timestamp < revealPhaseEndTime, \" Only allowed During the reveal period\");\n\n        // FIRST: Verify the vote & commit is valid\n        bytes32 _voteCommit = voteCommits[msg.sender];\n        Status status = voteStatuses[_voteCommit];\n\n        require(status == Status.Committed, \" Vote Wasn't committed yet\");\n\n        require(_voteCommit !=\n        keccak256(abi.encodePacked(upTechnical, downTechnical, upNonTechnical, downNonTechnical, choice, salt)),'Vote hash does not match vote commit');\n\n\n        // NEXT: Count the vote!\n        ++UpTechnical[upTechnical];\n        ++DownTechnical[downTechnical];\n        ++UpNonTechnical[upNonTechnical];\n        ++DownNonTechnical[downNonTechnical];\n        Choice[choice].push(msg.sender);\n        voteStatuses[_voteCommit] = Status.Revealed;\n    }\n\n    function conclusion() public payable {\n      require(block.timestamp > revealPhaseEndTime, \"Let the reveal Period end first\");\n      uint winner = majority();\n      uint limit = getCount(winner);\n      address payable[] memory array = Choice[winner];\n      for (uint i = 0; i < limit; i++ ){\n        array[i].transfer(amount);\n      }\n    }\n\n\n    //\n    //helper function\n    //\n\n\n    function encryption(string memory _key) internal pure returns(bytes32) {\n\t return sha256(abi.encodePacked(_key));\n\t}\n\n    function getCount(uint choice) private view returns(uint count) {\n    return Choice[choice].length;\n    }\n\n    // function award(address payable _winner) public payable{\n    //   _winner.transfer(amount);\n    // }\n\n    function majority() private view returns(uint256){\n        return getCount(1).boolMax(getCount(0));\n    }\n\n//   function stakeAmount private()\n//     public payable returns(uint256){\n//       return msg.value;\n//     }\n}\n\ncontract MainContract {\n\n  /**\n   *State Variables\n   */\n\n  ///@notice Owner's address\n  address public owner;     //owner of the contract\n  mapping(address => bool) newContracts;\n\n\n  modifier minTime(uint256 time){\n    require(time > 20,\"Increase the time Span\");\n    _;\n  }\n\n  //\n  //Constructor\n  //\n\n  constructor() public {\n    owner = msg.sender;\n  }\n\n\n\n  /** @notice Question creation function\n   * @param topic Heading of the query\n   * @param desc description of it.\n   * @param docs docs related to it.\n   * @param _ReviewPhaseLengthInSeconds Length of review period in seconds\n   * @param _CommitPhaseLengthInSeconds Length of Commmit period in seconds\n   * @param _RevealPhaseLengthInSeconds Length of reveal period in seconds\n   */\n  function createQuery(\n    string memory topic,\n    string memory desc,\n    string memory docs,\n    uint256 _ReviewPhaseLengthInSeconds,\n    uint256 _CommitPhaseLengthInSeconds,\n    uint256 _RevealPhaseLengthInSeconds)\n    public\n    minTime(_ReviewPhaseLengthInSeconds)\n    minTime(_CommitPhaseLengthInSeconds)\n    minTime(_RevealPhaseLengthInSeconds){\n    Escrow newContract = new Escrow(topic, desc, docs, _ReviewPhaseLengthInSeconds, _CommitPhaseLengthInSeconds, _RevealPhaseLengthInSeconds);\n    newContracts[address(newContract)] = true;\n    // D newD = (new D).value(amount)(arg);\n    }\n\n    // function incentive(address payable _address) public payable{\n    //     require(newContracts[_address] == true, \"Invalid address\");\n    //     Escrow contractAddress = Escrow(_address);\n    //     contractAdress;\n    // }\n\n  }",
  "sourcePath": "/home/sanchaymittal/Justice-League/contracts/MainContract.sol",
  "compiler": {
    "name": "solc",
    "version": "0.5.8+commit.23d335f2.Emscripten.clang"
  },
  "schemaVersion": "3.0.11",
  "updatedAt": "2019-07-25T06:25:11.365Z",
  "devdoc": {
    "methods": {
      "createQuery(string,string,string,uint256,uint256,uint256)": {
        "params": {
          "_CommitPhaseLengthInSeconds": "Length of Commmit period in seconds",
          "_RevealPhaseLengthInSeconds": "Length of reveal period in seconds",
          "_ReviewPhaseLengthInSeconds": "Length of review period in seconds",
          "desc": "description of it.",
          "docs": "docs related to it.",
          "topic": "Heading of the query"
        }
      }
    }
  },
  "userdoc": {
    "methods": {
      "createQuery(string,string,string,uint256,uint256,uint256)": {
        "notice": "Question creation function"
      }
    }
  }
}