{
  "contractName": "Main",
  "abi": [
    {
      "constant": true,
      "inputs": [
        {
          "name": "",
          "type": "uint256"
        }
      ],
      "name": "IncentivizeProposalOwner",
      "outputs": [
        {
          "name": "",
          "type": "address"
        }
      ],
      "payable": false,
      "stateMutability": "view",
      "type": "function"
    },
    {
      "constant": true,
      "inputs": [],
      "name": "MIN_SECURITY_DEPOSIT_ENTRY_FEE",
      "outputs": [
        {
          "name": "",
          "type": "uint256"
        }
      ],
      "payable": false,
      "stateMutability": "view",
      "type": "function"
    },
    {
      "constant": true,
      "inputs": [
        {
          "name": "",
          "type": "uint256"
        }
      ],
      "name": "IncentivizeProposals",
      "outputs": [
        {
          "name": "",
          "type": "address"
        }
      ],
      "payable": false,
      "stateMutability": "view",
      "type": "function"
    },
    {
      "constant": true,
      "inputs": [],
      "name": "MIN_TIME_PERIOD",
      "outputs": [
        {
          "name": "",
          "type": "uint256"
        }
      ],
      "payable": false,
      "stateMutability": "view",
      "type": "function"
    },
    {
      "constant": true,
      "inputs": [
        {
          "name": "",
          "type": "uint256"
        }
      ],
      "name": "ProposalOwner",
      "outputs": [
        {
          "name": "",
          "type": "address"
        }
      ],
      "payable": false,
      "stateMutability": "view",
      "type": "function"
    },
    {
      "constant": true,
      "inputs": [],
      "name": "MAX_TIME_PERIOD",
      "outputs": [
        {
          "name": "",
          "type": "uint256"
        }
      ],
      "payable": false,
      "stateMutability": "view",
      "type": "function"
    },
    {
      "constant": true,
      "inputs": [],
      "name": "MAX_SECURITY_DEPOSIT_ENTRY_FEE",
      "outputs": [
        {
          "name": "",
          "type": "uint256"
        }
      ],
      "payable": false,
      "stateMutability": "view",
      "type": "function"
    },
    {
      "constant": true,
      "inputs": [],
      "name": "contractPaused",
      "outputs": [
        {
          "name": "",
          "type": "bool"
        }
      ],
      "payable": false,
      "stateMutability": "view",
      "type": "function"
    },
    {
      "constant": true,
      "inputs": [],
      "name": "owner",
      "outputs": [
        {
          "name": "",
          "type": "address"
        }
      ],
      "payable": false,
      "stateMutability": "view",
      "type": "function"
    },
    {
      "constant": true,
      "inputs": [],
      "name": "MAX_REWARD_LIMIT",
      "outputs": [
        {
          "name": "",
          "type": "uint256"
        }
      ],
      "payable": false,
      "stateMutability": "view",
      "type": "function"
    },
    {
      "constant": true,
      "inputs": [
        {
          "name": "",
          "type": "uint256"
        }
      ],
      "name": "Proposals",
      "outputs": [
        {
          "name": "",
          "type": "address"
        }
      ],
      "payable": false,
      "stateMutability": "view",
      "type": "function"
    },
    {
      "inputs": [],
      "payable": false,
      "stateMutability": "nonpayable",
      "type": "constructor"
    },
    {
      "anonymous": false,
      "inputs": [
        {
          "indexed": false,
          "name": "Id",
          "type": "uint256"
        },
        {
          "indexed": false,
          "name": "ContractOwner",
          "type": "address"
        },
        {
          "indexed": false,
          "name": "Contract",
          "type": "address"
        }
      ],
      "name": "SuccessfullyProposalCreated",
      "type": "event"
    },
    {
      "anonymous": false,
      "inputs": [
        {
          "indexed": false,
          "name": "Id",
          "type": "uint256"
        },
        {
          "indexed": false,
          "name": "ContractOwner",
          "type": "address"
        },
        {
          "indexed": false,
          "name": "Contract",
          "type": "address"
        }
      ],
      "name": "SuccessfullyIncentivizedProposalCreated",
      "type": "event"
    },
    {
      "constant": false,
      "inputs": [
        {
          "name": "topic",
          "type": "string"
        },
        {
          "name": "desc",
          "type": "string"
        },
        {
          "name": "docs",
          "type": "string"
        },
        {
          "name": "_ReviewPhaseLengthInSeconds",
          "type": "uint256"
        },
        {
          "name": "_CommitPhaseLengthInSeconds",
          "type": "uint256"
        },
        {
          "name": "_RevealPhaseLengthInSeconds",
          "type": "uint256"
        }
      ],
      "name": "Proposal",
      "outputs": [],
      "payable": false,
      "stateMutability": "nonpayable",
      "type": "function"
    },
    {
      "constant": false,
      "inputs": [
        {
          "name": "topic",
          "type": "string"
        },
        {
          "name": "desc",
          "type": "string"
        },
        {
          "name": "docs",
          "type": "string"
        },
        {
          "name": "_ReviewPhaseLengthInSeconds",
          "type": "uint256"
        },
        {
          "name": "_CommitPhaseLengthInSeconds",
          "type": "uint256"
        },
        {
          "name": "_RevealPhaseLengthInSeconds",
          "type": "uint256"
        },
        {
          "name": "_securityDeposit",
          "type": "uint256"
        },
        {
          "name": "_Reward",
          "type": "uint256"
        }
      ],
      "name": "incentivizeProposal",
      "outputs": [],
      "payable": false,
      "stateMutability": "nonpayable",
      "type": "function"
    },
    {
      "constant": true,
      "inputs": [
        {
          "name": "Id",
          "type": "uint256"
        }
      ],
      "name": "getProposalDetails",
      "outputs": [
        {
          "name": "",
          "type": "address"
        },
        {
          "name": "",
          "type": "address"
        },
        {
          "name": "",
          "type": "string"
        },
        {
          "name": "",
          "type": "string"
        }
      ],
      "payable": false,
      "stateMutability": "view",
      "type": "function"
    },
    {
      "constant": true,
      "inputs": [
        {
          "name": "Contract",
          "type": "address"
        }
      ],
      "name": "getProposalDetailsByAddress",
      "outputs": [
        {
          "name": "",
          "type": "address"
        },
        {
          "name": "",
          "type": "string"
        },
        {
          "name": "",
          "type": "string"
        },
        {
          "name": "",
          "type": "string"
        }
      ],
      "payable": false,
      "stateMutability": "view",
      "type": "function"
    },
    {
      "constant": true,
      "inputs": [
        {
          "name": "Id",
          "type": "uint256"
        }
      ],
      "name": "getIncentivizedProposal",
      "outputs": [
        {
          "name": "",
          "type": "address"
        },
        {
          "name": "",
          "type": "address"
        },
        {
          "name": "",
          "type": "string"
        },
        {
          "name": "",
          "type": "string"
        }
      ],
      "payable": false,
      "stateMutability": "view",
      "type": "function"
    },
    {
      "constant": true,
      "inputs": [
        {
          "name": "Contract",
          "type": "address"
        }
      ],
      "name": "getIncentivizedProposalByAddress",
      "outputs": [
        {
          "name": "",
          "type": "address"
        },
        {
          "name": "",
          "type": "string"
        },
        {
          "name": "",
          "type": "string"
        }
      ],
      "payable": false,
      "stateMutability": "view",
      "type": "function"
    },
    {
      "constant": true,
      "inputs": [
        {
          "name": "Id",
          "type": "uint256"
        }
      ],
      "name": "getProposalAddress",
      "outputs": [
        {
          "name": "",
          "type": "address"
        }
      ],
      "payable": false,
      "stateMutability": "view",
      "type": "function"
    },
    {
      "constant": true,
      "inputs": [
        {
          "name": "Id",
          "type": "uint256"
        }
      ],
      "name": "getIncentivizedProposalAddress",
      "outputs": [
        {
          "name": "",
          "type": "address"
        }
      ],
      "payable": false,
      "stateMutability": "view",
      "type": "function"
    },
    {
      "constant": false,
      "inputs": [],
      "name": "circuitBreaker",
      "outputs": [],
      "payable": false,
      "stateMutability": "nonpayable",
      "type": "function"
    },
    {
      "constant": false,
      "inputs": [],
      "name": "circuitMaker",
      "outputs": [],
      "payable": false,
      "stateMutability": "nonpayable",
      "type": "function"
    }
  ],
  "bytecode": "0x608060405260008060006101000a81548160ff02191690831515021790555034801561002a57600080fd5b5033600360006101000a81548173ffffffffffffffffffffffffffffffffffffffff021916908373ffffffffffffffffffffffffffffffffffffffff16021790555061582e8061007b6000396000f3fe60806040523480156200001157600080fd5b5060043610620001545760003560e01c806367a20d9f11620000c9578063a4774ad51162000087578063a4774ad514620009f3578063b649d1c01462000b58578063bbda431c1462000b78578063c5d2a7a51462000cfa578063ca4cab441462000d06578063d1dbe7d81462000f2e5762000154565b806367a20d9f14620006df578063821ba6fb14620006ff5780638a67456a14620007705780638b9c191214620007945780638da5cb5b14620009a75762000154565b80631abea6f511620001175780631abea6f514620002d85780633b4d01a714620002f857806357a98200146200047a5780635cb7dc9f146200064e5780635e374f1514620006bf5762000154565b80630cbbacd314620001595780631128bbfd14620001ca5780631146a6f7146200023b57806316efd941146200025b578063174df4b51462000267575b600080fd5b62000188600480360360208110156200017157600080fd5b810190808035906020019092919050505062000f9f565b604051808273ffffffffffffffffffffffffffffffffffffffff1673ffffffffffffffffffffffffffffffffffffffff16815260200191505060405180910390f35b620001f960048036036020811015620001e257600080fd5b810190808035906020019092919050505062000fd2565b604051808273ffffffffffffffffffffffffffffffffffffffff1673ffffffffffffffffffffffffffffffffffffffff16815260200191505060405180910390f35b620002456200100f565b6040518082815260200191505060405180910390f35b6200026562001016565b005b62000296600480360360208110156200027f57600080fd5b81019080803590602001909291905050506200117f565b604051808273ffffffffffffffffffffffffffffffffffffffff1673ffffffffffffffffffffffffffffffffffffffff16815260200191505060405180910390f35b620002e2620011b2565b6040518082815260200191505060405180910390f35b62000327600480360360208110156200031057600080fd5b8101908080359060200190929190505050620011b7565b604051808573ffffffffffffffffffffffffffffffffffffffff1673ffffffffffffffffffffffffffffffffffffffff1681526020018473ffffffffffffffffffffffffffffffffffffffff1673ffffffffffffffffffffffffffffffffffffffff1681526020018060200180602001838103835285818151815260200191508051906020019080838360005b83811015620003d1578082015181840152602081019050620003b4565b50505050905090810190601f168015620003ff5780820380516001836020036101000a031916815260200191505b50838103825284818151815260200191508051906020019080838360005b838110156200043a5780820151818401526020810190506200041d565b50505050905090810190601f168015620004685780820380516001836020036101000a031916815260200191505b50965050505050505060405180910390f35b620004bf600480360360208110156200049257600080fd5b81019080803573ffffffffffffffffffffffffffffffffffffffff16906020019092919050505062001510565b604051808573ffffffffffffffffffffffffffffffffffffffff1673ffffffffffffffffffffffffffffffffffffffff168152602001806020018060200180602001848103845287818151815260200191508051906020019080838360005b838110156200053b5780820151818401526020810190506200051e565b50505050905090810190601f168015620005695780820380516001836020036101000a031916815260200191505b50848103835286818151815260200191508051906020019080838360005b83811015620005a457808201518184015260208101905062000587565b50505050905090810190601f168015620005d25780820380516001836020036101000a031916815260200191505b50848103825285818151815260200191508051906020019080838360005b838110156200060d578082015181840152602081019050620005f0565b50505050905090810190601f1680156200063b5780820380516001836020036101000a031916815260200191505b5097505050505050505060405180910390f35b6200067d600480360360208110156200066657600080fd5b81019080803590602001909291905050506200187a565b604051808273ffffffffffffffffffffffffffffffffffffffff1673ffffffffffffffffffffffffffffffffffffffff16815260200191505060405180910390f35b620006c9620018ad565b6040518082815260200191505060405180910390f35b620006e9620018b4565b6040518082815260200191505060405180910390f35b6200072e600480360360208110156200071757600080fd5b8101908080359060200190929190505050620018bc565b604051808273ffffffffffffffffffffffffffffffffffffffff1673ffffffffffffffffffffffffffffffffffffffff16815260200191505060405180910390f35b6200077a620018f9565b604051808215151515815260200191505060405180910390f35b620009a5600480360360c0811015620007ac57600080fd5b8101908080359060200190640100000000811115620007ca57600080fd5b820183602082011115620007dd57600080fd5b803590602001918460018302840111640100000000831117156200080057600080fd5b91908080601f016020809104026020016040519081016040528093929190818152602001838380828437600081840152601f19601f820116905080830192505050505050509192919290803590602001906401000000008111156200086457600080fd5b8201836020820111156200087757600080fd5b803590602001918460018302840111640100000000831117156200089a57600080fd5b91908080601f016020809104026020016040519081016040528093929190818152602001838380828437600081840152601f19601f82011690508083019250505050505050919291929080359060200190640100000000811115620008fe57600080fd5b8201836020820111156200091157600080fd5b803590602001918460018302840111640100000000831117156200093457600080fd5b91908080601f016020809104026020016040519081016040528093929190818152602001838380828437600081840152601f19601f8201169050808301925050505050505091929192908035906020019092919080359060200190929190803590602001909291905050506200190b565b005b620009b162001d6f565b604051808273ffffffffffffffffffffffffffffffffffffffff1673ffffffffffffffffffffffffffffffffffffffff16815260200191505060405180910390f35b62000a386004803603602081101562000a0b57600080fd5b81019080803573ffffffffffffffffffffffffffffffffffffffff16906020019092919050505062001d95565b604051808473ffffffffffffffffffffffffffffffffffffffff1673ffffffffffffffffffffffffffffffffffffffff1681526020018060200180602001838103835285818151815260200191508051906020019080838360005b8381101562000ab057808201518184015260208101905062000a93565b50505050905090810190601f16801562000ade5780820380516001836020036101000a031916815260200191505b50838103825284818151815260200191508051906020019080838360005b8381101562000b1957808201518184015260208101905062000afc565b50505050905090810190601f16801562000b475780820380516001836020036101000a031916815260200191505b509550505050505060405180910390f35b62000b6262001f74565b6040518082815260200191505060405180910390f35b62000ba76004803603602081101562000b9057600080fd5b810190808035906020019092919050505062001f7c565b604051808573ffffffffffffffffffffffffffffffffffffffff1673ffffffffffffffffffffffffffffffffffffffff1681526020018473ffffffffffffffffffffffffffffffffffffffff1673ffffffffffffffffffffffffffffffffffffffff1681526020018060200180602001838103835285818151815260200191508051906020019080838360005b8381101562000c5157808201518184015260208101905062000c34565b50505050905090810190601f16801562000c7f5780820380516001836020036101000a031916815260200191505b50838103825284818151815260200191508051906020019080838360005b8381101562000cba57808201518184015260208101905062000c9d565b50505050905090810190601f16801562000ce85780820380516001836020036101000a031916815260200191505b50965050505050505060405180910390f35b62000d04620021fe565b005b62000f2c600480360361010081101562000d1f57600080fd5b810190808035906020019064010000000081111562000d3d57600080fd5b82018360208201111562000d5057600080fd5b8035906020019184600183028401116401000000008311171562000d7357600080fd5b91908080601f016020809104026020016040519081016040528093929190818152602001838380828437600081840152601f19601f8201169050808301925050505050505091929192908035906020019064010000000081111562000dd757600080fd5b82018360208201111562000dea57600080fd5b8035906020019184600183028401116401000000008311171562000e0d57600080fd5b91908080601f016020809104026020016040519081016040528093929190818152602001838380828437600081840152601f19601f8201169050808301925050505050505091929192908035906020019064010000000081111562000e7157600080fd5b82018360208201111562000e8457600080fd5b8035906020019184600183028401116401000000008311171562000ea757600080fd5b91908080601f016020809104026020016040519081016040528093929190818152602001838380828437600081840152601f19601f8201169050808301925050505050505091929192908035906020019092919080359060200190929190803590602001909291908035906020019092919080359060200190929190505050620022de565b005b62000f5d6004803603602081101562000f4657600080fd5b810190808035906020019092919050505062002936565b604051808273ffffffffffffffffffffffffffffffffffffffff1673ffffffffffffffffffffffffffffffffffffffff16815260200191505060405180910390f35b60096020528060005260406000206000915054906101000a900473ffffffffffffffffffffffffffffffffffffffff1681565b60006006600083815260200190815260200160002060009054906101000a900473ffffffffffffffffffffffffffffffffffffffff169050919050565b620186a081565b3373ffffffffffffffffffffffffffffffffffffffff16600360009054906101000a900473ffffffffffffffffffffffffffffffffffffffff1673ffffffffffffffffffffffffffffffffffffffff1614620010da576040517f08c379a000000000000000000000000000000000000000000000000000000000815260040180806020018281038252601e8152602001807f4f776e65722773207065726d697373696f6e206973207265717569726564000081525060200191505060405180910390fd5b600015156000809054906101000a900460ff1615151462001163576040517f08c379a000000000000000000000000000000000000000000000000000000000815260040180806020018281038252601e8152602001807f20436f6e747261637420697320506175736564205269676874204e6f7720000081525060200191505060405180910390fd5b60016000806101000a81548160ff021916908315150217905550565b60086020528060005260406000206000915054906101000a900473ffffffffffffffffffffffffffffffffffffffff1681565b601481565b600080606080600460006006600088815260200190815260200160002060009054906101000a900473ffffffffffffffffffffffffffffffffffffffff1673ffffffffffffffffffffffffffffffffffffffff1673ffffffffffffffffffffffffffffffffffffffff16815260200190815260200160002060009054906101000a900460ff1662001294576040517f08c379a0000000000000000000000000000000000000000000000000000000008152600401808060200182810382526028815260200180620057db6028913960400191505060405180910390fd5b60006006600087815260200190815260200160002060009054906101000a900473ffffffffffffffffffffffffffffffffffffffff16905060006007600088815260200190815260200160002060009054906101000a900473ffffffffffffffffffffffffffffffffffffffff16905060608273ffffffffffffffffffffffffffffffffffffffff16633879ad436040518163ffffffff1660e01b815260040160006040518083038186803b1580156200134d57600080fd5b505afa15801562001362573d6000803e3d6000fd5b505050506040513d6000823e3d601f19601f8201168201806040525060208110156200138d57600080fd5b810190808051640100000000811115620013a657600080fd5b82810190506020810184811115620013bd57600080fd5b8151856001820283011164010000000082111715620013db57600080fd5b5050929190505050905060608373ffffffffffffffffffffffffffffffffffffffff16638191745f6040518163ffffffff1660e01b815260040160006040518083038186803b1580156200142e57600080fd5b505afa15801562001443573d6000803e3d6000fd5b505050506040513d6000823e3d601f19601f8201168201806040525060208110156200146e57600080fd5b8101908080516401000000008111156200148757600080fd5b828101905060208101848111156200149e57600080fd5b8151856001820283011164010000000082111715620014bc57600080fd5b5050929190505050905082600660008b815260200190815260200160002060009054906101000a900473ffffffffffffffffffffffffffffffffffffffff1683839750975097509750505050509193509193565b60006060806060600460008673ffffffffffffffffffffffffffffffffffffffff1673ffffffffffffffffffffffffffffffffffffffff16815260200190815260200160002060009054906101000a900460ff16620015bb576040517f08c379a0000000000000000000000000000000000000000000000000000000008152600401808060200182810382526028815260200180620057db6028913960400191505060405180910390fd5b600085905060608173ffffffffffffffffffffffffffffffffffffffff16633879ad436040518163ffffffff1660e01b815260040160006040518083038186803b1580156200160957600080fd5b505afa1580156200161e573d6000803e3d6000fd5b505050506040513d6000823e3d601f19601f8201168201806040525060208110156200164957600080fd5b8101908080516401000000008111156200166257600080fd5b828101905060208101848111156200167957600080fd5b81518560018202830111640100000000821117156200169757600080fd5b5050929190505050905060608273ffffffffffffffffffffffffffffffffffffffff16638191745f6040518163ffffffff1660e01b815260040160006040518083038186803b158015620016ea57600080fd5b505afa158015620016ff573d6000803e3d6000fd5b505050506040513d6000823e3d601f19601f8201168201806040525060208110156200172a57600080fd5b8101908080516401000000008111156200174357600080fd5b828101905060208101848111156200175a57600080fd5b81518560018202830111640100000000821117156200177857600080fd5b5050929190505050905060608373ffffffffffffffffffffffffffffffffffffffff1663f0a3e7926040518163ffffffff1660e01b815260040160006040518083038186803b158015620017cb57600080fd5b505afa158015620017e0573d6000803e3d6000fd5b505050506040513d6000823e3d601f19601f8201168201806040525060208110156200180b57600080fd5b8101908080516401000000008111156200182457600080fd5b828101905060208101848111156200183b57600080fd5b81518560018202830111640100000000821117156200185957600080fd5b50509291905050509050888383839750975097509750505050509193509193565b60076020528060005260406000206000915054906101000a900473ffffffffffffffffffffffffffffffffffffffff1681565b620d2f0081565b633b9aca0081565b60006008600083815260200190815260200160002060009054906101000a900473ffffffffffffffffffffffffffffffffffffffff169050919050565b6000809054906101000a900460ff1681565b600015156000809054906101000a900460ff1615151462001994576040517f08c379a000000000000000000000000000000000000000000000000000000000815260040180806020018281038252601e8152602001807f20436f6e747261637420697320506175736564205269676874204e6f7720000081525060200191505060405180910390fd5b620019a183838362002969565b62001a14576040517f08c379a00000000000000000000000000000000000000000000000000000000081526004018080602001828103825260158152602001807f2054696d65206973206f7574206f66206c696d6974000000000000000000000081525060200191505060405180910390fd5b600086868686868660405162001a2a9062002c58565b8080602001806020018060200187815260200186815260200185815260200184810384528a818151815260200191508051906020019080838360005b8381101562001a8357808201518184015260208101905062001a66565b50505050905090810190601f16801562001ab15780820380516001836020036101000a031916815260200191505b50848103835289818151815260200191508051906020019080838360005b8381101562001aec57808201518184015260208101905062001acf565b50505050905090810190601f16801562001b1a5780820380516001836020036101000a031916815260200191505b50848103825288818151815260200191508051906020019080838360005b8381101562001b5557808201518184015260208101905062001b38565b50505050905090810190601f16801562001b835780820380516001836020036101000a031916815260200191505b509950505050505050505050604051809103906000f08015801562001bac573d6000803e3d6000fd5b509050600160008154809291906001019190505550600060018054039050816006600083815260200190815260200160002060006101000a81548173ffffffffffffffffffffffffffffffffffffffff021916908373ffffffffffffffffffffffffffffffffffffffff160217905550336007600083815260200190815260200160002060006101000a81548173ffffffffffffffffffffffffffffffffffffffff021916908373ffffffffffffffffffffffffffffffffffffffff1602179055506001600460008473ffffffffffffffffffffffffffffffffffffffff1673ffffffffffffffffffffffffffffffffffffffff16815260200190815260200160002060006101000a81548160ff0219169083151502179055507f4535521f54ce367b1198e31838def39a0b015be583f19572b44e44605f13813f813384604051808481526020018373ffffffffffffffffffffffffffffffffffffffff1673ffffffffffffffffffffffffffffffffffffffff1681526020018273ffffffffffffffffffffffffffffffffffffffff1673ffffffffffffffffffffffffffffffffffffffff168152602001935050505060405180910390a15050505050505050565b600360009054906101000a900473ffffffffffffffffffffffffffffffffffffffff1681565b6000606080600084905060608173ffffffffffffffffffffffffffffffffffffffff16633879ad436040518163ffffffff1660e01b815260040160006040518083038186803b15801562001de857600080fd5b505afa15801562001dfd573d6000803e3d6000fd5b505050506040513d6000823e3d601f19601f82011682018060405250602081101562001e2857600080fd5b81019080805164010000000081111562001e4157600080fd5b8281019050602081018481111562001e5857600080fd5b815185600182028301116401000000008211171562001e7657600080fd5b5050929190505050905060608273ffffffffffffffffffffffffffffffffffffffff16638191745f6040518163ffffffff1660e01b815260040160006040518083038186803b15801562001ec957600080fd5b505afa15801562001ede573d6000803e3d6000fd5b505050506040513d6000823e3d601f19601f82011682018060405250602081101562001f0957600080fd5b81019080805164010000000081111562001f2257600080fd5b8281019050602081018481111562001f3957600080fd5b815185600182028301116401000000008211171562001f5757600080fd5b505092919050505090508682829550955095505050509193909250565b637735940081565b60008060608060006008600087815260200190815260200160002060009054906101000a900473ffffffffffffffffffffffffffffffffffffffff16905060006009600088815260200190815260200160002060009054906101000a900473ffffffffffffffffffffffffffffffffffffffff16905060608273ffffffffffffffffffffffffffffffffffffffff16633879ad436040518163ffffffff1660e01b815260040160006040518083038186803b1580156200203b57600080fd5b505afa15801562002050573d6000803e3d6000fd5b505050506040513d6000823e3d601f19601f8201168201806040525060208110156200207b57600080fd5b8101908080516401000000008111156200209457600080fd5b82810190506020810184811115620020ab57600080fd5b8151856001820283011164010000000082111715620020c957600080fd5b5050929190505050905060608373ffffffffffffffffffffffffffffffffffffffff16638191745f6040518163ffffffff1660e01b815260040160006040518083038186803b1580156200211c57600080fd5b505afa15801562002131573d6000803e3d6000fd5b505050506040513d6000823e3d601f19601f8201168201806040525060208110156200215c57600080fd5b8101908080516401000000008111156200217557600080fd5b828101905060208101848111156200218c57600080fd5b8151856001820283011164010000000082111715620021aa57600080fd5b5050929190505050905082600860008b815260200190815260200160002060009054906101000a900473ffffffffffffffffffffffffffffffffffffffff1683839750975097509750505050509193509193565b3373ffffffffffffffffffffffffffffffffffffffff16600360009054906101000a900473ffffffffffffffffffffffffffffffffffffffff1673ffffffffffffffffffffffffffffffffffffffff1614620022c2576040517f08c379a000000000000000000000000000000000000000000000000000000000815260040180806020018281038252601e8152602001807f4f776e65722773207065726d697373696f6e206973207265717569726564000081525060200191505060405180910390fd5b60008060006101000a81548160ff021916908315150217905550565b81620186a081101562002359576040517f08c379a00000000000000000000000000000000000000000000000000000000081526004018080602001828103825260148152602001807f456e7472792046656520697320746f6f206c6f7700000000000000000000000081525060200191505060405180910390fd5b82633b9aca00811115620023d5576040517f08c379a00000000000000000000000000000000000000000000000000000000081526004018080602001828103825260158152602001807f456e7472792046656520697320746f6f2068696768000000000000000000000081525060200191505060405180910390fd5b83838082111562002432576040517f08c379a000000000000000000000000000000000000000000000000000000000815260040180806020018281038252602e815260200180620057ad602e913960400191505060405180910390fd5b846377359400811115620024ae576040517f08c379a00000000000000000000000000000000000000000000000000000000081526004018080602001828103825260208152602001807f5265776172642070726f706f736564206973206f666620746865206c696d697481525060200191505060405180910390fd5b600015156000809054906101000a900460ff1615151462002537576040517f08c379a000000000000000000000000000000000000000000000000000000000815260040180806020018281038252601e8152602001807f20436f6e747261637420697320506175736564205269676874204e6f7720000081525060200191505060405180910390fd5b6000633b9aca00880290506200254f8b8b8b62002969565b620025c2576040517f08c379a00000000000000000000000000000000000000000000000000000000081526004018080602001828103825260158152602001807f2054696d65206973206f7574206f66206c696d6974000000000000000000000081525060200191505060405180910390fd5b60008e8e8e8e8e8e8e88604051620025da9062002c66565b8080602001806020018060200189815260200188815260200187815260200186815260200185815260200184810384528c818151815260200191508051906020019080838360005b838110156200263f57808201518184015260208101905062002622565b50505050905090810190601f1680156200266d5780820380516001836020036101000a031916815260200191505b5084810383528b818151815260200191508051906020019080838360005b83811015620026a85780820151818401526020810190506200268b565b50505050905090810190601f168015620026d65780820380516001836020036101000a031916815260200191505b5084810382528a818151815260200191508051906020019080838360005b8381101562002711578082015181840152602081019050620026f4565b50505050905090810190601f1680156200273f5780820380516001836020036101000a031916815260200191505b509b505050505050505050505050604051809103906000f0801580156200276a573d6000803e3d6000fd5b50905060026000815480929190600101919050555060006001600254039050816008600083815260200190815260200160002060006101000a81548173ffffffffffffffffffffffffffffffffffffffff021916908373ffffffffffffffffffffffffffffffffffffffff160217905550336009600083815260200190815260200160002060006101000a81548173ffffffffffffffffffffffffffffffffffffffff021916908373ffffffffffffffffffffffffffffffffffffffff1602179055506001600560008473ffffffffffffffffffffffffffffffffffffffff1673ffffffffffffffffffffffffffffffffffffffff16815260200190815260200160002060006101000a81548160ff0219169083151502179055507fbeee238ae57e2eb9b00c901f08337a7655d607efae9d8aae180e039b2d509f57813384604051808481526020018373ffffffffffffffffffffffffffffffffffffffff1673ffffffffffffffffffffffffffffffffffffffff1681526020018273ffffffffffffffffffffffffffffffffffffffff1673ffffffffffffffffffffffffffffffffffffffff168152602001935050505060405180910390a150505050505050505050505050505050565b60066020528060005260406000206000915054906101000a900473ffffffffffffffffffffffffffffffffffffffff1681565b6000836014811015620029e4576040517f08c379a00000000000000000000000000000000000000000000000000000000081526004018080602001828103825260168152602001807f496e637265617365207468652074696d65205370616e0000000000000000000081525060200191505060405180910390fd5b83601481101562002a5d576040517f08c379a00000000000000000000000000000000000000000000000000000000081526004018080602001828103825260168152602001807f496e637265617365207468652074696d65205370616e0000000000000000000081525060200191505060405180910390fd5b83601481101562002ad6576040517f08c379a00000000000000000000000000000000000000000000000000000000081526004018080602001828103825260168152602001807f496e637265617365207468652074696d65205370616e0000000000000000000081525060200191505060405180910390fd5b86620d2f0081111562002b51576040517f08c379a00000000000000000000000000000000000000000000000000000000081526004018080602001828103825260148152602001807f54696d65205370616e20697320746f6f2062696700000000000000000000000081525060200191505060405180910390fd5b86620d2f0081111562002bcc576040517f08c379a00000000000000000000000000000000000000000000000000000000081526004018080602001828103825260148152602001807f54696d65205370616e20697320746f6f2062696700000000000000000000000081525060200191505060405180910390fd5b86620d2f0081111562002c47576040517f08c379a00000000000000000000000000000000000000000000000000000000081526004018080602001828103825260148152602001807f54696d65205370616e20697320746f6f2062696700000000000000000000000081525060200191505060405180910390fd5b600196505050505050509392505050565b6111548062002c7583390190565b6119e48062003dc98339019056fe60806040523480156200001157600080fd5b506040516200115438038062001154833981018060405260c08110156200003757600080fd5b8101908080516401000000008111156200005057600080fd5b828101905060208101848111156200006757600080fd5b81518560018202830111640100000000821117156200008557600080fd5b50509291906020018051640100000000811115620000a257600080fd5b82810190506020810184811115620000b957600080fd5b8151856001820283011164010000000082111715620000d757600080fd5b50509291906020018051640100000000811115620000f457600080fd5b828101905060208101848111156200010b57600080fd5b81518560018202830111640100000000821117156200012957600080fd5b5050929190602001805190602001909291908051906020019092919080519060200190929190505050336000806101000a81548173ffffffffffffffffffffffffffffffffffffffff021916908373ffffffffffffffffffffffffffffffffffffffff1602179055508560019080519060200190620001aa92919062000208565b508460029080519060200190620001c392919062000208565b508360039080519060200190620001dc92919062000208565b5082420160088190555081600854016009819055508060095401600a81905550505050505050620002b7565b828054600181600116156101000203166002900490600052602060002090601f016020900481019282601f106200024b57805160ff19168380011785556200027c565b828001600101855582156200027c579182015b828111156200027b5782518255916020019190600101906200025e565b5b5090506200028b91906200028f565b5090565b620002b491905b80821115620002b057600081600090555060010162000296565b5090565b90565b610e8d80620002c76000396000f3fe6080604052600436106100915760003560e01c8063a619350411610059578063a619350414610252578063acf654f71461027d578063e01d71a1146102a8578063f0a3e792146103a2578063fe95abf51461043257610091565b80632628c8cb146100965780633879ad43146100a05780633e858923146101305780638191745f1461016b5780638da5cb5b146101fb575b600080fd5b61009e61045d565b005b3480156100ac57600080fd5b506100b5610530565b6040518080602001828103825283818151815260200191508051906020019080838360005b838110156100f55780820151818401526020810190506100da565b50505050905090810190601f1680156101225780820380516001836020036101000a031916815260200191505b509250505060405180910390f35b34801561013c57600080fd5b506101696004803603602081101561015357600080fd5b81019080803590602001909291905050506105ce565b005b34801561017757600080fd5b5061018061076e565b6040518080602001828103825283818151815260200191508051906020019080838360005b838110156101c05780820151818401526020810190506101a5565b50505050905090810190601f1680156101ed5780820380516001836020036101000a031916815260200191505b509250505060405180910390f35b34801561020757600080fd5b5061021061080c565b604051808273ffffffffffffffffffffffffffffffffffffffff1673ffffffffffffffffffffffffffffffffffffffff16815260200191505060405180910390f35b34801561025e57600080fd5b50610267610831565b6040518082815260200191505060405180910390f35b34801561028957600080fd5b50610292610837565b6040518082815260200191505060405180910390f35b3480156102b457600080fd5b506103a0600480360360c08110156102cb57600080fd5b8101908080359060200190929190803590602001909291908035906020019092919080359060200190929190803590602001909291908035906020019064010000000081111561031a57600080fd5b82018360208201111561032c57600080fd5b8035906020019184600183028401116401000000008311171561034e57600080fd5b91908080601f016020809104026020016040519081016040528093929190818152602001838380828437600081840152601f19601f82011690508083019250505050505050919291929050505061083d565b005b3480156103ae57600080fd5b506103b7610c12565b6040518080602001828103825283818151815260200191508051906020019080838360005b838110156103f75780820151818401526020810190506103dc565b50505050905090810190601f1680156104245780820380516001836020036101000a031916815260200191505b509250505060405180910390f35b34801561043e57600080fd5b50610447610cb0565b6040518082815260200191505060405180910390f35b600a5442116104d4576040517f08c379a000000000000000000000000000000000000000000000000000000000815260040180806020018281038252601f8152602001807f4c6574207468652072657665616c20506572696f6420656e642066697273740081525060200191505060405180910390fd5b60006104de610cb6565b905060006104eb82610cd9565b90507f149884a7fe48259d8eff5214a021a988c74170498d0c9b25aa5ccecc95f0ad4e8282604051808381526020018281526020019250505060405180910390a15050565b60018054600181600116156101000203166002900480601f0160208091040260200160405190810160405280929190818152602001828054600181600116156101000203166002900480156105c65780601f1061059b576101008083540402835291602001916105c6565b820191906000526020600020905b8154815290600101906020018083116105a957829003601f168201915b505050505081565b6008544211610645576040517f08c379a000000000000000000000000000000000000000000000000000000000815260040180806020018281038252601e8152602001807f5761697420666f722072657669657720706572696f6420746f20656e6420000081525060200191505060405180910390fd5b600954421061069f576040517f08c379a000000000000000000000000000000000000000000000000000000000815260040180806020018281038252602b815260200180610dec602b913960400191505060405180910390fd5b80600b60003373ffffffffffffffffffffffffffffffffffffffff1673ffffffffffffffffffffffffffffffffffffffff168152602001908152602001600020819055506000600c600083815260200190815260200160002060006101000a81548160ff0219169083600181111561071357fe5b02179055507f651840caa1b0e1c52ec1324c2c0aca317ef17e709f0016630d8739f84c0f3f3681604051808060200183815260200182810382526027815260200180610e17602791396040019250505060405180910390a150565b60028054600181600116156101000203166002900480601f0160208091040260200160405190810160405280929190818152602001828054600181600116156101000203166002900480156108045780601f106107d957610100808354040283529160200191610804565b820191906000526020600020905b8154815290600101906020018083116107e757829003601f168201915b505050505081565b6000809054906101000a900473ffffffffffffffffffffffffffffffffffffffff1681565b60095481565b60085481565b6009544211610897576040517f08c379a0000000000000000000000000000000000000000000000000000000008152600401808060200182810382526038815260200180610d8e6038913960400191505060405180910390fd5b600a5442106108f1576040517f08c379a0000000000000000000000000000000000000000000000000000000008152600401808060200182810382526026815260200180610dc66026913960400191505060405180910390fd5b6000600b60003373ffffffffffffffffffffffffffffffffffffffff1673ffffffffffffffffffffffffffffffffffffffff1681526020019081526020016000205490506000600c600083815260200190815260200160002060009054906101000a900460ff1690506000600181111561096757fe5b81600181111561097357fe5b146109e6576040517f08c379a000000000000000000000000000000000000000000000000000000000815260040180806020018281038252601a8152602001807f20566f7465205761736e277420636f6d6d69747465642079657400000000000081525060200191505060405180910390fd5b8787878787876040516020018087815260200186815260200185815260200184815260200183815260200182805190602001908083835b60208310610a405780518252602082019150602081019050602083039250610a1d565b6001836020036101000a038019825116818451168082178552505050505050905001965050505050505060405160208183030381529060405280519060200120821415610ad8576040517f08c379a0000000000000000000000000000000000000000000000000000000008152600401808060200182810382526024815260200180610e3e6024913960400191505060405180910390fd5b600660008981526020019081526020016000206000815460010191905081905550600760008881526020019081526020016000206000815460010191905081905550600460008781526020019081526020016000206000815460010191905081905550600560008681526020019081526020016000206000815460010191905081905550600e60008581526020019081526020016000203390806001815401808255809150509060018203906000526020600020016000909192909190916101000a81548173ffffffffffffffffffffffffffffffffffffffff021916908373ffffffffffffffffffffffffffffffffffffffff160217905550506001600c600084815260200190815260200160002060006101000a81548160ff02191690836001811115610c0357fe5b02179055505050505050505050565b60038054600181600116156101000203166002900480601f016020809104026020016040519081016040528092919081815260200182805460018160011615610100020316600290048015610ca85780601f10610c7d57610100808354040283529160200191610ca8565b820191906000526020600020905b815481529060010190602001808311610c8b57829003601f168201915b505050505081565b600a5481565b6000610cd4610cc56001610cd9565b610ccf6000610cd9565b610cf9565b905090565b6000600e6000838152602001908152602001600020805490509050919050565b600081831415610d71576040517f08c379a000000000000000000000000000000000000000000000000000000000815260040180806020018281038252600d8152602001807f546869732069732061207469650000000000000000000000000000000000000081525060200191505060405180910390fd5b818311610d7f576000610d82565b60015b60ff1690509291505056fe506c65617365204f6e6c792072657665616c20766f74657320616674657220636f6d6d697474696e6720706572696f64206973206f766572204f6e6c7920616c6c6f77656420447572696e67207468652072657665616c20706572696f644f6e6c7920616c6c6f7720636f6d6d69747320647572696e6720636f6d6d697474696e6720706572696f64566f746520636f6d6d697474656420776974682074686520666f6c6c6f77696e6720686173683a566f7465206861736820646f6573206e6f74206d6174636820766f746520636f6d6d6974a165627a7a72305820eb3ece765026d2cfaa33d31490ac17528dcba53220f7b0b93dcf5594f9e6c181002960806040526000601460006101000a81548160ff021916908360018111156200002457fe5b02179055503480156200003657600080fd5b50604051620019e4380380620019e483398101806040526101008110156200005d57600080fd5b8101908080516401000000008111156200007657600080fd5b828101905060208101848111156200008d57600080fd5b8151856001820283011164010000000082111715620000ab57600080fd5b50509291906020018051640100000000811115620000c857600080fd5b82810190506020810184811115620000df57600080fd5b8151856001820283011164010000000082111715620000fd57600080fd5b505092919060200180516401000000008111156200011a57600080fd5b828101905060208101848111156200013157600080fd5b81518560018202830111640100000000821117156200014f57600080fd5b50509291906020018051906020019092919080519060200190929190805190602001909291908051906020019092919080519060200190929190505050336000806101000a81548173ffffffffffffffffffffffffffffffffffffffff021916908373ffffffffffffffffffffffffffffffffffffffff1602179055508760049080519060200190620001e492919062000252565b508660059080519060200190620001fd92919062000252565b5085600690805190602001906200021692919062000252565b50844201600b8190555083600b5401600c8190555082600c5401600d819055508160018190555080600281905550505050505050505062000301565b828054600181600116156101000203166002900490600052602060002090601f016020900481019282601f106200029557805160ff1916838001178555620002c6565b82800160010185558215620002c6579182015b82811115620002c5578251825591602001919060010190620002a8565b5b509050620002d59190620002d9565b5090565b620002fe91905b80821115620002fa576000816000905550600101620002e0565b5090565b90565b6116d380620003116000396000f3fe6080604052600436106100e85760003560e01c80638da5cb5b1161008a578063dd1df89f11610059578063dd1df89f14610397578063e01d71a1146103c2578063ef78d4fd146104bc578063fe95abf5146104f5576100e8565b80638da5cb5b146102e057806398f6560b14610337578063a619350414610341578063acf654f71461036c576100e8565b80633e858923116100c65780633e858923146101e057806342cde4e81461021b5780635c1faf0a146102465780638191745f14610250576100e8565b80630ebfa35d146100ea578063228cb733146101255780633879ad4314610150575b005b3480156100f657600080fd5b506101236004803603602081101561010d57600080fd5b8101908080359060200190929190505050610520565b005b34801561013157600080fd5b5061013a610732565b6040518082815260200191505060405180910390f35b34801561015c57600080fd5b50610165610738565b6040518080602001828103825283818151815260200191508051906020019080838360005b838110156101a557808201518184015260208101905061018a565b50505050905090810190601f1680156101d25780820380516001836020036101000a031916815260200191505b509250505060405180910390f35b3480156101ec57600080fd5b506102196004803603602081101561020357600080fd5b81019080803590602001909291905050506107d6565b005b34801561022757600080fd5b50610230610976565b6040518082815260200191505060405180910390f35b61024e61097c565b005b34801561025c57600080fd5b50610265610d0f565b6040518080602001828103825283818151815260200191508051906020019080838360005b838110156102a557808201518184015260208101905061028a565b50505050905090810190601f1680156102d25780820380516001836020036101000a031916815260200191505b509250505060405180910390f35b3480156102ec57600080fd5b506102f5610dad565b604051808273ffffffffffffffffffffffffffffffffffffffff1673ffffffffffffffffffffffffffffffffffffffff16815260200191505060405180910390f35b61033f610dd2565b005b34801561034d57600080fd5b506103566110b8565b6040518082815260200191505060405180910390f35b34801561037857600080fd5b506103816110be565b6040518082815260200191505060405180910390f35b3480156103a357600080fd5b506103ac6110c4565b6040518082815260200191505060405180910390f35b3480156103ce57600080fd5b506104ba600480360360c08110156103e557600080fd5b8101908080359060200190929190803590602001909291908035906020019092919080359060200190929190803590602001909291908035906020019064010000000081111561043457600080fd5b82018360208201111561044657600080fd5b8035906020019184600183028401116401000000008311171561046857600080fd5b91908080601f016020809104026020016040519081016040528093929190818152602001838380828437600081840152601f19601f8201169050808301925050505050505091929192905050506110ca565b005b3480156104c857600080fd5b506104d16114e3565b604051808260018111156104e157fe5b60ff16815260200191505060405180910390f35b34801561050157600080fd5b5061050a6114f6565b6040518082815260200191505060405180910390f35b3373ffffffffffffffffffffffffffffffffffffffff166000809054906101000a900473ffffffffffffffffffffffffffffffffffffffff1673ffffffffffffffffffffffffffffffffffffffff16146105e2576040517f08c379a000000000000000000000000000000000000000000000000000000000815260040180806020018281038252601e8152602001807f4f6e7765722773207065726d697373696f6e206973207265717569726564000081525060200191505060405180910390fd5b600d544211610659576040517f08c379a000000000000000000000000000000000000000000000000000000000815260040180806020018281038252601f8152602001807f4c6574207468652072657665616c20506572696f6420656e642066697273740081525060200191505060405180910390fd5b6000600181111561066657fe5b601460009054906101000a900460ff16600181111561068157fe5b146106f4576040517f08c379a00000000000000000000000000000000000000000000000000000000081526004018080602001828103825260128152602001807f4576616c617574696f6e20697320646f6e65000000000000000000000000000081525060200191505060405180910390fd5b6106fc6114fc565b600381905550804201600e819055506001601460006101000a81548160ff0219169083600181111561072a57fe5b021790555050565b60025481565b60048054600181600116156101000203166002900480601f0160208091040260200160405190810160405280929190818152602001828054600181600116156101000203166002900480156107ce5780601f106107a3576101008083540402835291602001916107ce565b820191906000526020600020905b8154815290600101906020018083116107b157829003601f168201915b505050505081565b600b54421161084d576040517f08c379a000000000000000000000000000000000000000000000000000000000815260040180806020018281038252601e8152602001807f5761697420666f722072657669657720706572696f6420746f20656e6420000081525060200191505060405180910390fd5b600c5442106108a7576040517f08c379a000000000000000000000000000000000000000000000000000000000815260040180806020018281038252602b815260200180611632602b913960400191505060405180910390fd5b80600f60003373ffffffffffffffffffffffffffffffffffffffff1673ffffffffffffffffffffffffffffffffffffffff1681526020019081526020016000208190555060006010600083815260200190815260200160002060006101000a81548160ff0219169083600181111561091b57fe5b02179055507f651840caa1b0e1c52ec1324c2c0aca317ef17e709f0016630d8739f84c0f3f368160405180806020018381526020018281038252602781526020018061165d602791396040019250505060405180910390a150565b60015481565b60018081111561098857fe5b601460009054906101000a900460ff1660018111156109a357fe5b14610a16576040517f08c379a00000000000000000000000000000000000000000000000000000000081526004018080602001828103825260098152602001807f4974277320446f6e65000000000000000000000000000000000000000000000081525060200191505060405180910390fd5b600e544210610a8d576040517f08c379a00000000000000000000000000000000000000000000000000000000081526004018080602001828103825260108152602001807f596f752061726520746f6f206c6174650000000000000000000000000000000081525060200191505060405180910390fd5b600354601160003373ffffffffffffffffffffffffffffffffffffffff1673ffffffffffffffffffffffffffffffffffffffff1681526020019081526020016000205414610b43576040517f08c379a00000000000000000000000000000000000000000000000000000000081526004018080602001828103825260168152602001807f596f75206172656e2774207468652077696e6e6572200000000000000000000081525060200191505060405180910390fd5b60001515601360003373ffffffffffffffffffffffffffffffffffffffff1673ffffffffffffffffffffffffffffffffffffffff16815260200190815260200160002060009054906101000a900460ff16151514610c09576040517f08c379a000000000000000000000000000000000000000000000000000000000815260040180806020018281038252601b8152602001807f596f7520686176652072656465656d20796f757220726577617264000000000081525060200191505060405180910390fd5b6001601360003373ffffffffffffffffffffffffffffffffffffffff1673ffffffffffffffffffffffffffffffffffffffff16815260200190815260200160002060006101000a81548160ff0219169083151502179055503373ffffffffffffffffffffffffffffffffffffffff166108fc6002549081150290604051600060405180830381858888f19350505050158015610ca9573d6000803e3d6000fd5b507fc2f58463acbb5b94b885e368cd3ae56785e5c703d98f2f6ec083c70e508f9f4633604051808273ffffffffffffffffffffffffffffffffffffffff1673ffffffffffffffffffffffffffffffffffffffff16815260200191505060405180910390a1565b60058054600181600116156101000203166002900480601f016020809104026020016040519081016040528092919081815260200182805460018160011615610100020316600290048015610da55780601f10610d7a57610100808354040283529160200191610da5565b820191906000526020600020905b815481529060010190602001808311610d8857829003601f168201915b505050505081565b6000809054906101000a900473ffffffffffffffffffffffffffffffffffffffff1681565b3373ffffffffffffffffffffffffffffffffffffffff166000809054906101000a900473ffffffffffffffffffffffffffffffffffffffff1673ffffffffffffffffffffffffffffffffffffffff1614610e94576040517f08c379a000000000000000000000000000000000000000000000000000000000815260040180806020018281038252601e8152602001807f4f6e7765722773207065726d697373696f6e206973207265717569726564000081525060200191505060405180910390fd5b600e544211610f0b576040517f08c379a000000000000000000000000000000000000000000000000000000000815260040180806020018281038252601f8152602001807f4c6574207468652072657761726420506572696f6420656e642066697273740081525060200191505060405180910390fd5b600180811115610f1757fe5b601460009054906101000a900460ff166001811115610f3257fe5b14610fa5576040517f08c379a00000000000000000000000000000000000000000000000000000000081526004018080602001828103825260158152602001807f456e64206f6620746865204576616c756174696f6e000000000000000000000081525060200191505060405180910390fd5b60003073ffffffffffffffffffffffffffffffffffffffff163190506000809054906101000a900473ffffffffffffffffffffffffffffffffffffffff1673ffffffffffffffffffffffffffffffffffffffff166108fc829081150290604051600060405180830381858888f19350505050158015611028573d6000803e3d6000fd5b507f4db06b3f8ea08c30ed5017c65f565dc2f06f14388f48d83a5d4398b4f3c7fe9e6000809054906101000a900473ffffffffffffffffffffffffffffffffffffffff1682604051808373ffffffffffffffffffffffffffffffffffffffff1673ffffffffffffffffffffffffffffffffffffffff1681526020018281526020019250505060405180910390a150565b600c5481565b600b5481565b600e5481565b600c544211611124576040517f08c379a00000000000000000000000000000000000000000000000000000000081526004018080602001828103825260388152602001806115d46038913960400191505060405180910390fd5b600d54421061117e576040517f08c379a000000000000000000000000000000000000000000000000000000000815260040180806020018281038252602681526020018061160c6026913960400191505060405180910390fd5b6000600f60003373ffffffffffffffffffffffffffffffffffffffff1673ffffffffffffffffffffffffffffffffffffffff16815260200190815260200160002054905060006010600083815260200190815260200160002060009054906101000a900460ff169050600060018111156111f457fe5b81600181111561120057fe5b14611273576040517f08c379a000000000000000000000000000000000000000000000000000000000815260040180806020018281038252601a8152602001807f20566f7465205761736e277420636f6d6d69747465642079657400000000000081525060200191505060405180910390fd5b8787878787876040516020018087815260200186815260200185815260200184815260200183815260200182805190602001908083835b602083106112cd57805182526020820191506020810190506020830392506112aa565b6001836020036101000a038019825116818451168082178552505050505050905001965050505050505060405160208183030381529060405280519060200120821415611365576040517f08c379a00000000000000000000000000000000000000000000000000000000081526004018080602001828103825260248152602001806116846024913960400191505060405180910390fd5b600960008981526020019081526020016000206000815460010191905081905550600a60008881526020019081526020016000206000815460010191905081905550600760008781526020019081526020016000206000815460010191905081905550600860008681526020019081526020016000206000815460010191905081905550601260008581526020019081526020016000203390806001815401808255809150509060018203906000526020600020016000909192909190916101000a81548173ffffffffffffffffffffffffffffffffffffffff021916908373ffffffffffffffffffffffffffffffffffffffff1602179055505083601160003373ffffffffffffffffffffffffffffffffffffffff1673ffffffffffffffffffffffffffffffffffffffff1681526020019081526020016000208190555060016010600084815260200190815260200160002060006101000a81548160ff021916908360018111156114d457fe5b02179055505050505050505050565b601460009054906101000a900460ff1681565b600d5481565b600061151a61150b600161151f565b611515600261151f565b61153f565b905090565b600060126000838152602001908152602001600020805490509050919050565b6000818314156115b7576040517f08c379a000000000000000000000000000000000000000000000000000000000815260040180806020018281038252600d8152602001807f546869732069732061207469650000000000000000000000000000000000000081525060200191505060405180910390fd5b8183116115c55760006115c8565b60015b60ff1690509291505056fe506c65617365204f6e6c792072657665616c20766f74657320616674657220636f6d6d697474696e6720706572696f64206973206f766572204f6e6c7920616c6c6f77656420447572696e67207468652072657665616c20706572696f644f6e6c7920616c6c6f7720636f6d6d69747320647572696e6720636f6d6d697474696e6720706572696f64566f746520636f6d6d697474656420776974682074686520666f6c6c6f77696e6720686173683a566f7465206861736820646f6573206e6f74206d6174636820766f746520636f6d6d6974a165627a7a72305820c9258a1740a577015edb153820235c0ce97358505907b4df670e23bd0dde173b00295265776172642053686f756c642062652067726561746572207468616e205365637572697479204465706f73697420436f6e7472616374206973206e6f742070726573656e7420627920746869732061646472657373a165627a7a72305820d485a09ed2efa583c462809b908fda4c27be10fe84ed163123e6aa1418f6fade0029",
  "source": "///@title Prescience\n///@author Sanchay Mittal\n///@notice Prescience ...\n///@dev All function calls are currently implemented without side effects\n\npragma solidity ^0.5.0;\n\n///@notice Contract below interconnect with contract main for Proposal Creation.\n///@dev ProposalEvaluation Contract operates without funding from Proposal Creater and IcenticizeProposal requires funding by proposal creater.\nimport \"./ProposalEvaluation.sol\";\nimport \"./IncentivizeProposalEvaluation.sol\";\n\n\ncontract Main {\n\n  /**\n   *State Variables\n   */\n\n  ///@notice Max Length of review, voting and reveal Period.\n  uint256 constant public MAX_TIME_PERIOD = 10 * 24 * 60 * 60;                  /**> Limit of 10 Days */\n\n  ///@notice Min Length of review, voting and reveal Period.\n  uint256 constant public MIN_TIME_PERIOD  = 1 * 1 * 1 * 20;                    /**> Limit of 20 Seconds*/\n\n  ///@notice Max Limit for Security Deposit Fee.\n  uint256 constant public MAX_SECURITY_DEPOSIT_ENTRY_FEE = 1 * 10 ** 9;        /**> 1 ETHER or 1000000000000000000 wei or 1000000000 Gwei*/\n\n  uint256 constant public MIN_SECURITY_DEPOSIT_ENTRY_FEE = 1 * 10 ** 5;        /**> 0.0001 ETHER or 100000000000000 wei or 100000 Gwei */\n\n  uint256 constant public MAX_REWARD_LIMIT = 2 * 10 ** 9;                      /**> 2 ETHER or 2000000000000000000 wei or 2000000000 Gwei*/\n\n  ///@notice Switch for Contract.\n  ///@dev Only Contract Owner can change the value.\n  bool public contractPaused = false;\n\n  uint256 ProposalId;\n  uint256 IncentivizeProposalId;\n\n  ///@notice Owner's address\n  address public owner;                                                         /**> owner of the contract*/\n\n  ///@notice To check the Contract's address Existence.\n  mapping(address => bool) ProposalContracts;\n  mapping(address => bool) IncentivizeProposalContracts;\n\n  ///@notice Array of Contract Addresses of created Proposals.\n  mapping(uint256 => address) public Proposals;\n\n  ///@notice Array of Addresses of Owner or Admin's of Proposals.\n  mapping(uint256 => address) public ProposalOwner;\n\n  ///@notice Array of Contract Addresses of created Incentivized Proposals.\n  mapping(uint256 => address payable) public IncentivizeProposals;\n\n  ///@notice Array of Addresses of Incentivized Proposal owners.\n  mapping(uint256 => address) public IncentivizeProposalOwner;\n\n  /**\n   * Modifiers\n   */\n\n  ///@notice Minimum Time period requirement.\n  ///@dev Check for Integer Underflow for Time period.\n  modifier minTime(uint256 time){\n    require(time >= MIN_TIME_PERIOD,\"Increase the time Span\");\n    _;\n  }\n\n  ///@notice Maximum Time period limit.\n  ///@dev Check for Integer Overflow for Time period.\n  modifier maxTime(uint256 time){\n    require(time <= MAX_TIME_PERIOD,\"Time Span is too big\");\n    _;\n  }\n\n  ///@notice Check for the Maximum limit for Security Deposit Entry Fee.\n  ///@dev Check for Integer Overflow for Security Deposit.\n  modifier checkMaxSecurityDeposit(uint256 _securityDeposit){\n    require(_securityDeposit <= MAX_SECURITY_DEPOSIT_ENTRY_FEE, \"Entry Fee is too high\");\n    _;\n  }\n\n  ///@notice Check for the Minimum requirement for Security Deposit Entry Fee.\n  ///@dev Check for Integer Underflow for Security Deposit.\n  modifier checkMinSecurityDeposit(uint256 _securityDeposit){\n    require(_securityDeposit >= MIN_SECURITY_DEPOSIT_ENTRY_FEE, \"Entry Fee is too low\");\n    _;\n  }\n\n  ///@notice Checks the owner of the contract.\n  modifier onlyOwner(){\n    require(owner == msg.sender,\"Owner's permission is required\");\n    _;\n  }\n\n  ///@notice Checks the Contract's Status\n  ///@dev Checks the circuit lock.\n  modifier checkIfPaused() {\n    require(contractPaused == false,\" Contract is Paused Right Now \");\n    _;\n  }\n\n  ///@notice Checks if Reward is greater than the security deposit.\n  modifier checkRewardLowerLimit(uint256 _securityDeposit,uint256 _reward){\n    require(_securityDeposit <= _reward, \"Reward Should be greater than Security Deposit\");\n    _;\n  }\n\n  modifier checkRewardUpperLimit(uint256 _reward){\n    require(_reward <= MAX_REWARD_LIMIT, \"Reward proposed is off the limit\");\n    _;\n  }\n\n  /**\n   * Events\n   */\n\n  event SuccessfullyProposalCreated(uint256 Id, address ContractOwner, address Contract);\n  event SuccessfullyIncentivizedProposalCreated(uint256 Id, address ContractOwner, address Contract);\n\n  /**\n   * Constructor\n   */\n\n  ///@notice Address of the Contract Owner is assigned\n  constructor() public {\n    owner = msg.sender;\n  }\n\n  /**\n   * Functions\n   */\n\n\n  /**@notice Create a Proposal for Judgement.\n   * @param topic Topic of the Proposal.\n   * @param desc Description of the Proposal.\n   * @param docs Docs related to Proposal.\n   * @param _ReviewPhaseLengthInSeconds Length of review period in seconds\n   * @param _CommitPhaseLengthInSeconds Length of Commmit period in seconds\n   * @param _RevealPhaseLengthInSeconds Length of reveal period in seconds\n   */\n  function Proposal(\n    string memory topic,\n    string memory desc,\n    string memory docs,\n    uint256 _ReviewPhaseLengthInSeconds,\n    uint256 _CommitPhaseLengthInSeconds,\n    uint256 _RevealPhaseLengthInSeconds)\n    public\n    checkIfPaused()\n    {\n    require(checkLimits(_ReviewPhaseLengthInSeconds, _CommitPhaseLengthInSeconds, _RevealPhaseLengthInSeconds),\" Time is out of limit\");\n    ProposalEvaluation newContract = new ProposalEvaluation(\n      topic, desc, docs, _ReviewPhaseLengthInSeconds, _CommitPhaseLengthInSeconds, _RevealPhaseLengthInSeconds);\n    ProposalId++;\n    uint256 ID = ProposalId - 1;\n    Proposals[ID] = (address(newContract));\n    ProposalOwner[ID] = msg.sender;\n\n    ProposalContracts[address(newContract)] = true;\n\n    emit SuccessfullyProposalCreated(ID, msg.sender, address(newContract));\n    }\n\n   /**@notice Create a Incentivized Proposal for Judgement.\n    * @param topic Topic of the Proposal.\n    * @param desc Description of the Proposal.\n    * @param docs Docs related to Proposal.\n    * @param _ReviewPhaseLengthInSeconds Length of review period in seconds\n    * @param _CommitPhaseLengthInSeconds Length of Commmit period in seconds\n    * @param _RevealPhaseLengthInSeconds Length of reveal period in seconds\n    * @param _securityDeposit Entry fee for the Proposal.\n    */\n    function incentivizeProposal(\n    string memory topic,\n    string memory desc,\n    string memory docs,\n    uint256 _ReviewPhaseLengthInSeconds,\n    uint256 _CommitPhaseLengthInSeconds,\n    uint256 _RevealPhaseLengthInSeconds,\n    uint256 _securityDeposit,\n    uint256 _Reward)\n    public\n    checkMinSecurityDeposit(_securityDeposit)\n    checkMaxSecurityDeposit(_securityDeposit)\n    checkRewardLowerLimit(_securityDeposit, _Reward)\n    checkRewardUpperLimit(_Reward)\n    checkIfPaused()\n    {\n      uint256 threshold = _securityDeposit * 10**9;        /**> From Gwei to wei */\n      require(checkLimits(_ReviewPhaseLengthInSeconds, _CommitPhaseLengthInSeconds, _RevealPhaseLengthInSeconds),\" Time is out of limit\");\n      IncentivizeProposalEvaluation newContract = new IncentivizeProposalEvaluation(\n      topic, desc, docs, _ReviewPhaseLengthInSeconds, _CommitPhaseLengthInSeconds, _RevealPhaseLengthInSeconds, _securityDeposit, threshold);\n      \n      IncentivizeProposalId++;\n      uint256 ID = IncentivizeProposalId - 1;\n\n      IncentivizeProposals[ID] = (address(newContract));\n      IncentivizeProposalOwner[ID] = (msg.sender);\n\n      IncentivizeProposalContracts[address(newContract)] = true;\n\n      emit SuccessfullyIncentivizedProposalCreated(ID, msg.sender, address(newContract));\n    }\n\n    /**@notice Details of the selected Proposal\n     * @param Id Key of the stored address.\n     * @return address of the selected Proposal\n     * @return string Topic of the Proposal\n     * @return string Description of the Proposal\n     */\n    function getProposalDetails(uint256 Id) public view returns(address ,address, string memory, string memory){\n      require(ProposalContracts[Proposals[Id]],\" Contract is not present by this address\");\n      ProposalEvaluation newContract = ProposalEvaluation(Proposals[Id]);\n      address ContractOwner = address(ProposalOwner[Id]);\n      string memory topic = newContract.Topic();\n      string memory desc = newContract.Description();\n      return (ContractOwner,Proposals[Id],topic,desc);\n    }\n\n    /**@notice Details of the selected Proposal\n     * @param Contract Address of the Proposal.\n     * @return address of the selected Proposal\n     * @return string Topic of the Proposal\n     * @return string Description of the Proposal\n     */\n    function getProposalDetailsByAddress(address Contract) public view returns(address ,string memory, string memory, string memory){\n      require(ProposalContracts[Contract],\" Contract is not present by this address\");\n      ProposalEvaluation newContract = ProposalEvaluation(Contract);\n\n      string memory topic = newContract.Topic();\n      string memory desc = newContract.Description();\n      string memory docs = newContract.Docs();\n      return (Contract,topic,desc, docs);\n    }\n\n    /**@notice Details of the selected Incentivized Proposal\n     * @param Id Key of the stored address.\n     * @return address of the selected Proposal\n     * @return string Topic of the Proposal\n     * @return string Description of the Proposal\n     */\n    function getIncentivizedProposal(uint256 Id) public view returns(address, address payable, string memory, string memory){\n      IncentivizeProposalEvaluation newContract = IncentivizeProposalEvaluation(address(IncentivizeProposals[Id]));\n      address ContractOwner = address(IncentivizeProposalOwner[Id]);\n      string memory topic = newContract.Topic();\n      string memory desc = newContract.Description();\n      return (ContractOwner, IncentivizeProposals[Id],topic,desc);\n    }\n\n    /**@notice Details of the selected Incentivized Proposal\n     * @param Contract Address of the Proposal.\n     * @return address of the selected Proposal\n     * @return string Topic of the Proposal\n     * @return string Description of the Proposal\n     */\n    function getIncentivizedProposalByAddress(address payable Contract) public view returns(address payable, string memory, string memory){\n      IncentivizeProposalEvaluation newContract = IncentivizeProposalEvaluation(Contract);\n      string memory topic = newContract.Topic();\n      string memory desc = newContract.Description();\n      return (Contract,topic,desc);\n    }\n\n    /**@notice getProposals list all the address of the Proposals.\n     * @return address[] Array of Proposals address.\n     */\n    function getProposalAddress(uint256 Id) public view returns(address){\n      return Proposals[Id];\n    }\n\n    /**@notice getIncentivizedProposals List all the address of the Incentivized Proposals.\n     * @return address[] Array of Incentivized Proposals address.\n     */\n    function getIncentivizedProposalAddress(uint256 Id) public view returns(address payable){\n      return IncentivizeProposals[Id];\n    }\n\n\n  /**@notice Circuit Breaker for emergency\n   * @dev Only contract owner can pause all functionality\n   * Checks if the functionality is already Paused.\n   */\n  function circuitBreaker() public\n    onlyOwner\n    checkIfPaused{\n    contractPaused = true;\n  }\n\n  /**@notice Circuit Maker to countinue the functionality of contract.\n   * @dev Only contract owner can pause all functionality\n   */\n  function circuitMaker() public\n    onlyOwner{\n    contractPaused = false;\n  }\n\n  /**\n   * Helping Functions\n   */\n\n    function checkLimits( uint256 _ReviewPhaseLengthInSeconds, uint256 _CommitPhaseLengthInSeconds, uint256 _RevealPhaseLengthInSeconds)\n    private\n    pure\n    minTime(_ReviewPhaseLengthInSeconds)\n    minTime(_CommitPhaseLengthInSeconds)\n    minTime(_RevealPhaseLengthInSeconds)\n    maxTime(_ReviewPhaseLengthInSeconds)\n    maxTime(_CommitPhaseLengthInSeconds)\n    maxTime(_RevealPhaseLengthInSeconds)\n    returns(bool){\n      return true;\n    }\n\n\n\n\n\n    // function incentive(address payable _address) public payable{\n    //     require(Contracts[_address] == true, \"Invalid address\");\n    //     Evaluation contractAddress = Evaluation(_address);\n    //     contractAdress;\n    // }\n\n  }",
  "sourcePath": "/home/sanchaymittal/Prescience/contracts/Main.sol",
  "compiler": {
    "name": "solc",
    "version": "0.5.8+commit.23d335f2.Emscripten.clang"
  },
  "schemaVersion": "3.0.11",
  "updatedAt": "2019-08-17T09:56:27.271Z",
  "devdoc": {
    "methods": {
      "Proposal(string,string,string,uint256,uint256,uint256)": {
        "params": {
          "_CommitPhaseLengthInSeconds": "Length of Commmit period in seconds",
          "_RevealPhaseLengthInSeconds": "Length of reveal period in seconds",
          "_ReviewPhaseLengthInSeconds": "Length of review period in seconds",
          "desc": "Description of the Proposal.",
          "docs": "Docs related to Proposal.",
          "topic": "Topic of the Proposal."
        }
      },
      "circuitBreaker()": {
        "details": "Only contract owner can pause all functionality Checks if the functionality is already Paused."
      },
      "circuitMaker()": {
        "details": "Only contract owner can pause all functionality"
      },
      "getIncentivizedProposal(uint256)": {
        "params": {
          "Id": "Key of the stored address."
        },
        "return": "address of the selected Proposalstring Topic of the Proposalstring Description of the Proposal"
      },
      "getIncentivizedProposalAddress(uint256)": {
        "return": "address[] Array of Incentivized Proposals address."
      },
      "getIncentivizedProposalByAddress(address)": {
        "params": {
          "Contract": "Address of the Proposal."
        },
        "return": "address of the selected Proposalstring Topic of the Proposalstring Description of the Proposal"
      },
      "getProposalAddress(uint256)": {
        "return": "address[] Array of Proposals address."
      },
      "getProposalDetails(uint256)": {
        "params": {
          "Id": "Key of the stored address."
        },
        "return": "address of the selected Proposalstring Topic of the Proposalstring Description of the Proposal"
      },
      "getProposalDetailsByAddress(address)": {
        "params": {
          "Contract": "Address of the Proposal."
        },
        "return": "address of the selected Proposalstring Topic of the Proposalstring Description of the Proposal"
      },
      "incentivizeProposal(string,string,string,uint256,uint256,uint256,uint256,uint256)": {
        "params": {
          "_CommitPhaseLengthInSeconds": "Length of Commmit period in seconds",
          "_RevealPhaseLengthInSeconds": "Length of reveal period in seconds",
          "_ReviewPhaseLengthInSeconds": "Length of review period in seconds",
          "_securityDeposit": "Entry fee for the Proposal.",
          "desc": "Description of the Proposal.",
          "docs": "Docs related to Proposal.",
          "topic": "Topic of the Proposal."
        }
      }
    }
  },
  "userdoc": {
    "methods": {
      "Proposal(string,string,string,uint256,uint256,uint256)": {
        "notice": "Create a Proposal for Judgement."
      },
      "circuitBreaker()": {
        "notice": "Circuit Breaker for emergency"
      },
      "circuitMaker()": {
        "notice": "Circuit Maker to countinue the functionality of contract."
      },
      "constructor": "Address of the Contract Owner is assigned",
      "getIncentivizedProposal(uint256)": {
        "notice": "Details of the selected Incentivized Proposal"
      },
      "getIncentivizedProposalAddress(uint256)": {
        "notice": "getIncentivizedProposals List all the address of the Incentivized Proposals."
      },
      "getIncentivizedProposalByAddress(address)": {
        "notice": "Details of the selected Incentivized Proposal"
      },
      "getProposalAddress(uint256)": {
        "notice": "getProposals list all the address of the Proposals."
      },
      "getProposalDetails(uint256)": {
        "notice": "Details of the selected Proposal"
      },
      "getProposalDetailsByAddress(address)": {
        "notice": "Details of the selected Proposal"
      },
      "incentivizeProposal(string,string,string,uint256,uint256,uint256,uint256,uint256)": {
        "notice": "Create a Incentivized Proposal for Judgement."
      }
    }
  }
}