{
  "contractName": "Main",
  "abi": [
    {
      "constant": true,
      "inputs": [],
      "name": "owner",
      "outputs": [
        {
          "name": "",
          "type": "address"
        }
      ],
      "payable": false,
      "stateMutability": "view",
      "type": "function"
    },
    {
      "inputs": [],
      "payable": false,
      "stateMutability": "nonpayable",
      "type": "constructor"
    },
    {
      "constant": false,
      "inputs": [
        {
          "name": "topic",
          "type": "string"
        },
        {
          "name": "desc",
          "type": "string"
        },
        {
          "name": "docs",
          "type": "string"
        },
        {
          "name": "_ReviewPhaseLengthInSeconds",
          "type": "uint256"
        },
        {
          "name": "_CommitPhaseLengthInSeconds",
          "type": "uint256"
        },
        {
          "name": "_RevealPhaseLengthInSeconds",
          "type": "uint256"
        }
      ],
      "name": "free",
      "outputs": [],
      "payable": false,
      "stateMutability": "nonpayable",
      "type": "function"
    },
    {
      "constant": false,
      "inputs": [
        {
          "name": "topic",
          "type": "string"
        },
        {
          "name": "desc",
          "type": "string"
        },
        {
          "name": "docs",
          "type": "string"
        },
        {
          "name": "_ReviewPhaseLengthInSeconds",
          "type": "uint256"
        },
        {
          "name": "_CommitPhaseLengthInSeconds",
          "type": "uint256"
        },
        {
          "name": "_RevealPhaseLengthInSeconds",
          "type": "uint256"
        },
        {
          "name": "threshold",
          "type": "uint256"
        }
      ],
      "name": "incentive",
      "outputs": [],
      "payable": false,
      "stateMutability": "nonpayable",
      "type": "function"
    }
  ],
  "bytecode": "0x608060405234801561001057600080fd5b50336000806101000a81548173ffffffffffffffffffffffffffffffffffffffff021916908373ffffffffffffffffffffffffffffffffffffffff160217905550612e6c806100606000396000f3fe608060405234801561001057600080fd5b50600436106100415760003560e01c80638da5cb5b14610046578063e538921014610090578063ea963e85146102a1575b600080fd5b61004e6104a8565b604051808273ffffffffffffffffffffffffffffffffffffffff1673ffffffffffffffffffffffffffffffffffffffff16815260200191505060405180910390f35b61029f600480360360e08110156100a657600080fd5b81019080803590602001906401000000008111156100c357600080fd5b8201836020820111156100d557600080fd5b803590602001918460018302840111640100000000831117156100f757600080fd5b91908080601f016020809104026020016040519081016040528093929190818152602001838380828437600081840152601f19601f8201169050808301925050505050505091929192908035906020019064010000000081111561015a57600080fd5b82018360208201111561016c57600080fd5b8035906020019184600183028401116401000000008311171561018e57600080fd5b91908080601f016020809104026020016040519081016040528093929190818152602001838380828437600081840152601f19601f820116905080830192505050505050509192919290803590602001906401000000008111156101f157600080fd5b82018360208201111561020357600080fd5b8035906020019184600183028401116401000000008311171561022557600080fd5b91908080601f016020809104026020016040519081016040528093929190818152602001838380828437600081840152601f19601f820116905080830192505050505050509192919290803590602001909291908035906020019092919080359060200190929190803590602001909291905050506104cd565b005b6104a6600480360360c08110156102b757600080fd5b81019080803590602001906401000000008111156102d457600080fd5b8201836020820111156102e657600080fd5b8035906020019184600183028401116401000000008311171561030857600080fd5b91908080601f016020809104026020016040519081016040528093929190818152602001838380828437600081840152601f19601f8201169050808301925050505050505091929192908035906020019064010000000081111561036b57600080fd5b82018360208201111561037d57600080fd5b8035906020019184600183028401116401000000008311171561039f57600080fd5b91908080601f016020809104026020016040519081016040528093929190818152602001838380828437600081840152601f19601f8201169050808301925050505050505091929192908035906020019064010000000081111561040257600080fd5b82018360208201111561041457600080fd5b8035906020019184600183028401116401000000008311171561043657600080fd5b91908080601f016020809104026020016040519081016040528093929190818152602001838380828437600081840152601f19601f82011690508083019250505050505050919291929080359060200190929190803590602001909291908035906020019092919050505061082d565b005b6000809054906101000a900473ffffffffffffffffffffffffffffffffffffffff1681565b8360148111610544576040517f08c379a00000000000000000000000000000000000000000000000000000000081526004018080602001828103825260168152602001807f496e637265617365207468652074696d65205370616e0000000000000000000081525060200191505060405180910390fd5b83601481116105bb576040517f08c379a00000000000000000000000000000000000000000000000000000000081526004018080602001828103825260168152602001807f496e637265617365207468652074696d65205370616e0000000000000000000081525060200191505060405180910390fd5b8360148111610632576040517f08c379a00000000000000000000000000000000000000000000000000000000081526004018080602001828103825260168152602001807f496e637265617365207468652074696d65205370616e0000000000000000000081525060200191505060405180910390fd5b60008a8a8a8a8a8a8a60405161064790610b84565b8080602001806020018060200188815260200187815260200186815260200185815260200184810384528b818151815260200191508051906020019080838360005b838110156106a4578082015181840152602081019050610689565b50505050905090810190601f1680156106d15780820380516001836020036101000a031916815260200191505b5084810383528a818151815260200191508051906020019080838360005b8381101561070a5780820151818401526020810190506106ef565b50505050905090810190601f1680156107375780820380516001836020036101000a031916815260200191505b50848103825289818151815260200191508051906020019080838360005b83811015610770578082015181840152602081019050610755565b50505050905090810190601f16801561079d5780820380516001836020036101000a031916815260200191505b509a5050505050505050505050604051809103906000f0801580156107c6573d6000803e3d6000fd5b50905060018060008373ffffffffffffffffffffffffffffffffffffffff1673ffffffffffffffffffffffffffffffffffffffff16815260200190815260200160002060006101000a81548160ff0219169083151502179055505050505050505050505050565b82601481116108a4576040517f08c379a00000000000000000000000000000000000000000000000000000000081526004018080602001828103825260168152602001807f496e637265617365207468652074696d65205370616e0000000000000000000081525060200191505060405180910390fd5b826014811161091b576040517f08c379a00000000000000000000000000000000000000000000000000000000081526004018080602001828103825260168152602001807f496e637265617365207468652074696d65205370616e0000000000000000000081525060200191505060405180910390fd5b8260148111610992576040517f08c379a00000000000000000000000000000000000000000000000000000000081526004018080602001828103825260168152602001807f496e637265617365207468652074696d65205370616e0000000000000000000081525060200191505060405180910390fd5b60008989898989896040516109a690610b91565b8080602001806020018060200187815260200186815260200185815260200184810384528a818151815260200191508051906020019080838360005b838110156109fd5780820151818401526020810190506109e2565b50505050905090810190601f168015610a2a5780820380516001836020036101000a031916815260200191505b50848103835289818151815260200191508051906020019080838360005b83811015610a63578082015181840152602081019050610a48565b50505050905090810190601f168015610a905780820380516001836020036101000a031916815260200191505b50848103825288818151815260200191508051906020019080838360005b83811015610ac9578082015181840152602081019050610aae565b50505050905090810190601f168015610af65780820380516001836020036101000a031916815260200191505b509950505050505050505050604051809103906000f080158015610b1e573d6000803e3d6000fd5b50905060018060008373ffffffffffffffffffffffffffffffffffffffff1673ffffffffffffffffffffffffffffffffffffffff16815260200190815260200160002060006101000a81548160ff02191690831515021790555050505050505050505050565b61137880610b9f83390190565b610f2a80611f178339019056fe60806040523480156200001157600080fd5b506040516200137838038062001378833981018060405260e08110156200003757600080fd5b8101908080516401000000008111156200005057600080fd5b828101905060208101848111156200006757600080fd5b81518560018202830111640100000000821117156200008557600080fd5b50509291906020018051640100000000811115620000a257600080fd5b82810190506020810184811115620000b957600080fd5b8151856001820283011164010000000082111715620000d757600080fd5b50509291906020018051640100000000811115620000f457600080fd5b828101905060208101848111156200010b57600080fd5b81518560018202830111640100000000821117156200012957600080fd5b50509291906020018051906020019092919080519060200190929190805190602001909291908051906020019092919050505033600160006101000a81548173ffffffffffffffffffffffffffffffffffffffff021916908373ffffffffffffffffffffffffffffffffffffffff160217905550620001b3876200022660201b62000e1a1760201c565b600281905550620001cf866200022660201b62000e1a1760201c565b600381905550620001eb856200022660201b62000e1a1760201c565b6004819055508342016009819055508383420101600a8190555083838342010101600b8190555080600081905550505050505050506200033d565b60006002826040516020018082805190602001908083835b602083106200026357805182526020820191506020810190506020830392506200023e565b6001836020036101000a0380198251168184511680821785525050505050509050019150506040516020818303038152906040526040518082805190602001908083835b60208310620002cc5780518252602082019150602081019050602083039250620002a7565b6001836020036101000a038019825116818451168082178552505050505050905001915050602060405180830381855afa1580156200030f573d6000803e3d6000fd5b5050506040513d60208110156200032557600080fd5b81019080805190602001909291905050509050919050565b61102b806200034d6000396000f3fe6080604052600436106100865760003560e01c806398f6560b1161005957806398f6560b1461014f578063a619350414610159578063acf654f714610184578063e01d71a1146101af578063fe95abf5146102a957610086565b80632628c8cb146100885780633e8589231461009257806342cde4e8146100cd5780638da5cb5b146100f8575b005b6100906102d4565b005b34801561009e57600080fd5b506100cb600480360360208110156100b557600080fd5b81019080803590602001909291905050506104a7565b005b3480156100d957600080fd5b506100e2610647565b6040518082815260200191505060405180910390f35b34801561010457600080fd5b5061010d61064d565b604051808273ffffffffffffffffffffffffffffffffffffffff1673ffffffffffffffffffffffffffffffffffffffff16815260200191505060405180910390f35b610157610673565b005b34801561016557600080fd5b5061016e61095c565b6040518082815260200191505060405180910390f35b34801561019057600080fd5b50610199610962565b6040518082815260200191505060405180910390f35b3480156101bb57600080fd5b506102a7600480360360c08110156101d257600080fd5b8101908080359060200190929190803590602001909291908035906020019092919080359060200190929190803590602001909291908035906020019064010000000081111561022157600080fd5b82018360208201111561023357600080fd5b8035906020019184600183028401116401000000008311171561025557600080fd5b91908080601f016020809104026020016040519081016040528093929190818152602001838380828437600081840152601f19601f820116905080830192505050505050509192919290505050610968565b005b3480156102b557600080fd5b506102be610d3d565b6040518082815260200191505060405180910390f35b600b54421161034b576040517f08c379a000000000000000000000000000000000000000000000000000000000815260040180806020018281038252601f8152602001807f4c6574207468652072657665616c20506572696f6420656e642066697273740081525060200191505060405180910390fd5b6000610355610d43565b9050600061036282610d66565b90506060600f60008481526020019081526020016000208054806020026020016040519081016040528092919081815260200182805480156103f957602002820191906000526020600020905b8160009054906101000a900473ffffffffffffffffffffffffffffffffffffffff1673ffffffffffffffffffffffffffffffffffffffff16815260200190600101908083116103af575b5050505050905060008090505b8281101561047d5781818151811061041a57fe5b602002602001015173ffffffffffffffffffffffffffffffffffffffff166108fc67016345785d8a00009081150290604051600060405180830381858888f1935050505015801561046f573d6000803e3d6000fd5b508080600101915050610406565b506002601060006101000a81548160ff0219169083600281111561049d57fe5b0217905550505050565b600954421161051e576040517f08c379a000000000000000000000000000000000000000000000000000000000815260040180806020018281038252601e8152602001807f5761697420666f722072657669657720706572696f6420746f20656e6420000081525060200191505060405180910390fd5b600a544210610578576040517f08c379a000000000000000000000000000000000000000000000000000000000815260040180806020018281038252602b815260200180610f8a602b913960400191505060405180910390fd5b80600c60003373ffffffffffffffffffffffffffffffffffffffff1673ffffffffffffffffffffffffffffffffffffffff168152602001908152602001600020819055506000600d600083815260200190815260200160002060006101000a81548160ff021916908360028111156105ec57fe5b02179055507f651840caa1b0e1c52ec1324c2c0aca317ef17e709f0016630d8739f84c0f3f3681604051808060200183815260200182810382526027815260200180610fb5602791396040019250505060405180910390a150565b60005481565b600160009054906101000a900473ffffffffffffffffffffffffffffffffffffffff1681565b3373ffffffffffffffffffffffffffffffffffffffff16600160009054906101000a900473ffffffffffffffffffffffffffffffffffffffff1673ffffffffffffffffffffffffffffffffffffffff1614610736576040517f08c379a000000000000000000000000000000000000000000000000000000000815260040180806020018281038252601e8152602001807f4f6e7765722773207065726d697373696f6e206973207265717569726564000081525060200191505060405180910390fd5b600b5442116107ad576040517f08c379a000000000000000000000000000000000000000000000000000000000815260040180806020018281038252601f8152602001807f4c6574207468652072657665616c20506572696f6420656e642066697273740081525060200191505060405180910390fd5b6002808111156107b957fe5b601060009054906101000a900460ff1660028111156107d457fe5b14610847576040517f08c379a00000000000000000000000000000000000000000000000000000000081526004018080602001828103825260158152602001807f456e64206f6620746865204576616c756174696f6e000000000000000000000081525060200191505060405180910390fd5b60003073ffffffffffffffffffffffffffffffffffffffff16319050600160009054906101000a900473ffffffffffffffffffffffffffffffffffffffff1673ffffffffffffffffffffffffffffffffffffffff166108fc829081150290604051600060405180830381858888f193505050501580156108cb573d6000803e3d6000fd5b507f4db06b3f8ea08c30ed5017c65f565dc2f06f14388f48d83a5d4398b4f3c7fe9e600160009054906101000a900473ffffffffffffffffffffffffffffffffffffffff1682604051808373ffffffffffffffffffffffffffffffffffffffff1673ffffffffffffffffffffffffffffffffffffffff1681526020018281526020019250505060405180910390a150565b600a5481565b60095481565b600a5442116109c2576040517f08c379a0000000000000000000000000000000000000000000000000000000008152600401808060200182810382526038815260200180610f2c6038913960400191505060405180910390fd5b600b544210610a1c576040517f08c379a0000000000000000000000000000000000000000000000000000000008152600401808060200182810382526026815260200180610f646026913960400191505060405180910390fd5b6000600c60003373ffffffffffffffffffffffffffffffffffffffff1673ffffffffffffffffffffffffffffffffffffffff1681526020019081526020016000205490506000600d600083815260200190815260200160002060009054906101000a900460ff16905060006002811115610a9257fe5b816002811115610a9e57fe5b14610b11576040517f08c379a000000000000000000000000000000000000000000000000000000000815260040180806020018281038252601a8152602001807f20566f7465205761736e277420636f6d6d69747465642079657400000000000081525060200191505060405180910390fd5b8787878787876040516020018087815260200186815260200185815260200184815260200183815260200182805190602001908083835b60208310610b6b5780518252602082019150602081019050602083039250610b48565b6001836020036101000a038019825116818451168082178552505050505050905001965050505050505060405160208183030381529060405280519060200120821415610c03576040517f08c379a0000000000000000000000000000000000000000000000000000000008152600401808060200182810382526024815260200180610fdc6024913960400191505060405180910390fd5b600760008981526020019081526020016000206000815460010191905081905550600860008881526020019081526020016000206000815460010191905081905550600560008781526020019081526020016000206000815460010191905081905550600660008681526020019081526020016000206000815460010191905081905550600f60008581526020019081526020016000203390806001815401808255809150509060018203906000526020600020016000909192909190916101000a81548173ffffffffffffffffffffffffffffffffffffffff021916908373ffffffffffffffffffffffffffffffffffffffff160217905550506001600d600084815260200190815260200160002060006101000a81548160ff02191690836002811115610d2e57fe5b02179055505050505050505050565b600b5481565b6000610d61610d526001610d66565b610d5c6000610d66565b610d86565b905090565b6000600f6000838152602001908152602001600020805490509050919050565b600081831415610dfe576040517f08c379a000000000000000000000000000000000000000000000000000000000815260040180806020018281038252600d8152602001807f546869732069732061207469650000000000000000000000000000000000000081525060200191505060405180910390fd5b818311610e0c576000610e0f565b60015b60ff16905092915050565b60006002826040516020018082805190602001908083835b60208310610e555780518252602082019150602081019050602083039250610e32565b6001836020036101000a0380198251168184511680821785525050505050509050019150506040516020818303038152906040526040518082805190602001908083835b60208310610ebc5780518252602082019150602081019050602083039250610e99565b6001836020036101000a038019825116818451168082178552505050505050905001915050602060405180830381855afa158015610efe573d6000803e3d6000fd5b5050506040513d6020811015610f1357600080fd5b8101908080519060200190929190505050905091905056fe506c65617365204f6e6c792072657665616c20766f74657320616674657220636f6d6d697474696e6720706572696f64206973206f766572204f6e6c7920616c6c6f77656420447572696e67207468652072657665616c20706572696f644f6e6c7920616c6c6f7720636f6d6d69747320647572696e6720636f6d6d697474696e6720706572696f64566f746520636f6d6d697474656420776974682074686520666f6c6c6f77696e6720686173683a566f7465206861736820646f6573206e6f74206d6174636820766f746520636f6d6d6974a165627a7a72305820815c29aac49b3fbcd541cde8a1f2ac5f37786c7fb33f28900f79e2f7432926ba002960806040523480156200001157600080fd5b5060405162000f2a38038062000f2a833981018060405260c08110156200003757600080fd5b8101908080516401000000008111156200005057600080fd5b828101905060208101848111156200006757600080fd5b81518560018202830111640100000000821117156200008557600080fd5b50509291906020018051640100000000811115620000a257600080fd5b82810190506020810184811115620000b957600080fd5b8151856001820283011164010000000082111715620000d757600080fd5b50509291906020018051640100000000811115620000f457600080fd5b828101905060208101848111156200010b57600080fd5b81518560018202830111640100000000821117156200012957600080fd5b5050929190602001805190602001909291908051906020019092919080519060200190929190505050336000806101000a81548173ffffffffffffffffffffffffffffffffffffffff021916908373ffffffffffffffffffffffffffffffffffffffff160217905550620001a8866200021360201b620009df1760201c565b600181905550620001c4856200021360201b620009df1760201c565b600281905550620001e0846200021360201b620009df1760201c565b600381905550824201600881905550828242010160098190555082828242010101600a819055505050505050506200032a565b60006002826040516020018082805190602001908083835b602083106200025057805182526020820191506020810190506020830392506200022b565b6001836020036101000a0380198251168184511680821785525050505050509050019150506040516020818303038152906040526040518082805190602001908083835b60208310620002b9578051825260208201915060208101905060208303925062000294565b6001836020036101000a038019825116818451168082178552505050505050905001915050602060405180830381855afa158015620002fc573d6000803e3d6000fd5b5050506040513d60208110156200031257600080fd5b81019080805190602001909291905050509050919050565b610bf0806200033a6000396000f3fe6080604052600436106100705760003560e01c8063a61935041161004e578063a61935041461010e578063acf654f714610139578063e01d71a114610164578063fe95abf51461025e57610070565b80632628c8cb146100725780633e8589231461007c5780638da5cb5b146100b7575b005b61007a610289565b005b34801561008857600080fd5b506100b56004803603602081101561009f57600080fd5b810190808035906020019092919050505061035c565b005b3480156100c357600080fd5b506100cc6104fc565b604051808273ffffffffffffffffffffffffffffffffffffffff1673ffffffffffffffffffffffffffffffffffffffff16815260200191505060405180910390f35b34801561011a57600080fd5b50610123610521565b6040518082815260200191505060405180910390f35b34801561014557600080fd5b5061014e610527565b6040518082815260200191505060405180910390f35b34801561017057600080fd5b5061025c600480360360c081101561018757600080fd5b810190808035906020019092919080359060200190929190803590602001909291908035906020019092919080359060200190929190803590602001906401000000008111156101d657600080fd5b8201836020820111156101e857600080fd5b8035906020019184600183028401116401000000008311171561020a57600080fd5b91908080601f016020809104026020016040519081016040528093929190818152602001838380828437600081840152601f19601f82011690508083019250505050505050919291929050505061052d565b005b34801561026a57600080fd5b50610273610902565b6040518082815260200191505060405180910390f35b600a544211610300576040517f08c379a000000000000000000000000000000000000000000000000000000000815260040180806020018281038252601f8152602001807f4c6574207468652072657665616c20506572696f6420656e642066697273740081525060200191505060405180910390fd5b600061030a610908565b905060006103178261092b565b90507f149884a7fe48259d8eff5214a021a988c74170498d0c9b25aa5ccecc95f0ad4e8282604051808381526020018281526020019250505060405180910390a15050565b60085442116103d3576040517f08c379a000000000000000000000000000000000000000000000000000000000815260040180806020018281038252601e8152602001807f5761697420666f722072657669657720706572696f6420746f20656e6420000081525060200191505060405180910390fd5b600954421061042d576040517f08c379a000000000000000000000000000000000000000000000000000000000815260040180806020018281038252602b815260200180610b4f602b913960400191505060405180910390fd5b80600b60003373ffffffffffffffffffffffffffffffffffffffff1673ffffffffffffffffffffffffffffffffffffffff168152602001908152602001600020819055506000600c600083815260200190815260200160002060006101000a81548160ff021916908360018111156104a157fe5b02179055507f651840caa1b0e1c52ec1324c2c0aca317ef17e709f0016630d8739f84c0f3f3681604051808060200183815260200182810382526027815260200180610b7a602791396040019250505060405180910390a150565b6000809054906101000a900473ffffffffffffffffffffffffffffffffffffffff1681565b60095481565b60085481565b6009544211610587576040517f08c379a0000000000000000000000000000000000000000000000000000000008152600401808060200182810382526038815260200180610af16038913960400191505060405180910390fd5b600a5442106105e1576040517f08c379a0000000000000000000000000000000000000000000000000000000008152600401808060200182810382526026815260200180610b296026913960400191505060405180910390fd5b6000600b60003373ffffffffffffffffffffffffffffffffffffffff1673ffffffffffffffffffffffffffffffffffffffff1681526020019081526020016000205490506000600c600083815260200190815260200160002060009054906101000a900460ff1690506000600181111561065757fe5b81600181111561066357fe5b146106d6576040517f08c379a000000000000000000000000000000000000000000000000000000000815260040180806020018281038252601a8152602001807f20566f7465205761736e277420636f6d6d69747465642079657400000000000081525060200191505060405180910390fd5b8787878787876040516020018087815260200186815260200185815260200184815260200183815260200182805190602001908083835b60208310610730578051825260208201915060208101905060208303925061070d565b6001836020036101000a0380198251168184511680821785525050505050509050019650505050505050604051602081830303815290604052805190602001208214156107c8576040517f08c379a0000000000000000000000000000000000000000000000000000000008152600401808060200182810382526024815260200180610ba16024913960400191505060405180910390fd5b600660008981526020019081526020016000206000815460010191905081905550600760008881526020019081526020016000206000815460010191905081905550600460008781526020019081526020016000206000815460010191905081905550600560008681526020019081526020016000206000815460010191905081905550600e60008581526020019081526020016000203390806001815401808255809150509060018203906000526020600020016000909192909190916101000a81548173ffffffffffffffffffffffffffffffffffffffff021916908373ffffffffffffffffffffffffffffffffffffffff160217905550506001600c600084815260200190815260200160002060006101000a81548160ff021916908360018111156108f357fe5b02179055505050505050505050565b600a5481565b6000610926610917600161092b565b610921600061092b565b61094b565b905090565b6000600e6000838152602001908152602001600020805490509050919050565b6000818314156109c3576040517f08c379a000000000000000000000000000000000000000000000000000000000815260040180806020018281038252600d8152602001807f546869732069732061207469650000000000000000000000000000000000000081525060200191505060405180910390fd5b8183116109d15760006109d4565b60015b60ff16905092915050565b60006002826040516020018082805190602001908083835b60208310610a1a57805182526020820191506020810190506020830392506109f7565b6001836020036101000a0380198251168184511680821785525050505050509050019150506040516020818303038152906040526040518082805190602001908083835b60208310610a815780518252602082019150602081019050602083039250610a5e565b6001836020036101000a038019825116818451168082178552505050505050905001915050602060405180830381855afa158015610ac3573d6000803e3d6000fd5b5050506040513d6020811015610ad857600080fd5b8101908080519060200190929190505050905091905056fe506c65617365204f6e6c792072657665616c20766f74657320616674657220636f6d6d697474696e6720706572696f64206973206f766572204f6e6c7920616c6c6f77656420447572696e67207468652072657665616c20706572696f644f6e6c7920616c6c6f7720636f6d6d69747320647572696e6720636f6d6d697474696e6720706572696f64566f746520636f6d6d697474656420776974682074686520666f6c6c6f77696e6720686173683a566f7465206861736820646f6573206e6f74206d6174636820766f746520636f6d6d6974a165627a7a7230582018e9c325f60e9f079567e22b09a377ab481834774710a280eb279181941db78e0029a165627a7a723058200e326e929cb427b81163f7a18bf651b09747993d8711e0500611bdec9552a9260029",
  "source": "///@author Sanchay Mittal\n\npragma solidity ^0.5.0;\n\nimport \"./FreeEvaluation.sol\";\nimport \"./IncentiveEvaluation.sol\";\n\n\ncontract Main {\n\n  /**\n   *State Variables\n   */\n\n  ///@notice Owner's address\n  address public owner;     //owner of the contract\n  mapping(address => bool) newContracts;\n\n\n  modifier minTime(uint256 time){\n    require(time > 20,\"Increase the time Span\");\n    _;\n  }\n\n  //\n  //Constructor\n  //\n\n  constructor() public {\n    owner = msg.sender;\n  }\n\n\n\n  /** @notice Question creation function\n   * @param topic Heading of the query\n   * @param desc description of it.\n   * @param docs docs related to it.\n   * @param _ReviewPhaseLengthInSeconds Length of review period in seconds\n   * @param _CommitPhaseLengthInSeconds Length of Commmit period in seconds\n   * @param _RevealPhaseLengthInSeconds Length of reveal period in seconds\n   */\n  function free(\n    string memory topic,\n    string memory desc,\n    string memory docs,\n    uint256 _ReviewPhaseLengthInSeconds,\n    uint256 _CommitPhaseLengthInSeconds,\n    uint256 _RevealPhaseLengthInSeconds)\n    public\n    minTime(_ReviewPhaseLengthInSeconds)\n    minTime(_CommitPhaseLengthInSeconds)\n    minTime(_RevealPhaseLengthInSeconds){\n    FreeEvaluation newContract = new FreeEvaluation(topic,\n     desc, docs, _ReviewPhaseLengthInSeconds, _CommitPhaseLengthInSeconds, _RevealPhaseLengthInSeconds);\n    newContracts[address(newContract)] = true;\n    // D newD = (new D).value(amount)(arg);\n    }\n\n    function incentive(\n    string memory topic,\n    string memory desc,\n    string memory docs,\n    uint256 _ReviewPhaseLengthInSeconds,\n    uint256 _CommitPhaseLengthInSeconds,\n    uint256 _RevealPhaseLengthInSeconds,\n    uint256 threshold)\n    public\n    minTime(_ReviewPhaseLengthInSeconds)\n    minTime(_CommitPhaseLengthInSeconds)\n    minTime(_RevealPhaseLengthInSeconds){\n    IncentiveEvaluation newContract = new IncentiveEvaluation(\n      topic, desc, docs, _ReviewPhaseLengthInSeconds, _CommitPhaseLengthInSeconds, _RevealPhaseLengthInSeconds, threshold);\n    newContracts[address(newContract)] = true;\n    // D newD = (new D).value(amount)(arg);\n    }\n\n\n    // function incentive(address payable _address) public payable{\n    //     require(newContracts[_address] == true, \"Invalid address\");\n    //     Evaluation contractAddress = Evaluation(_address);\n    //     contractAdress;\n    // }\n\n  }",
  "sourcePath": "/home/sanchaymittal/Justice-League/contracts/Main.sol",
  "compiler": {
    "name": "solc",
    "version": "0.5.8+commit.23d335f2.Emscripten.clang"
  },
  "schemaVersion": "3.0.11",
  "updatedAt": "2019-07-26T16:33:31.734Z",
  "devdoc": {
    "methods": {
      "free(string,string,string,uint256,uint256,uint256)": {
        "params": {
          "_CommitPhaseLengthInSeconds": "Length of Commmit period in seconds",
          "_RevealPhaseLengthInSeconds": "Length of reveal period in seconds",
          "_ReviewPhaseLengthInSeconds": "Length of review period in seconds",
          "desc": "description of it.",
          "docs": "docs related to it.",
          "topic": "Heading of the query"
        }
      }
    }
  },
  "userdoc": {
    "methods": {
      "free(string,string,string,uint256,uint256,uint256)": {
        "notice": "Question creation function"
      }
    }
  }
}